{
  "contractName": "ContextMockCaller",
  "abi": [
    {
      "inputs": [
        {
          "internalType": "contract ContextMock",
          "name": "context",
          "type": "address"
        }
      ],
      "name": "callSender",
      "outputs": [],
      "stateMutability": "nonpayable",
      "type": "function"
    },
    {
      "inputs": [
        {
          "internalType": "contract ContextMock",
          "name": "context",
          "type": "address"
        },
        {
          "internalType": "uint256",
          "name": "integerValue",
          "type": "uint256"
        },
        {
          "internalType": "string",
          "name": "stringValue",
          "type": "string"
        }
      ],
      "name": "callData",
      "outputs": [],
      "stateMutability": "nonpayable",
      "type": "function"
    }
  ],
  "bytecode": "0x608060405234801561001057600080fd5b50610492806100206000396000f3fe608060405234801561001057600080fd5b50600436106100355760003560e01c80628604591461003a5780633207ad9614610056575b600080fd5b610054600480360381019061004f9190610202565b610072565b005b610070600480360381019061006b91906101d9565b6100e4565b005b8273ffffffffffffffffffffffffffffffffffffffff1663376bf26283836040518363ffffffff1660e01b81526004016100ad9291906102b1565b600060405180830381600087803b1580156100c757600080fd5b505af11580156100db573d6000803e3d6000fd5b50505050505050565b8073ffffffffffffffffffffffffffffffffffffffff1663d737d0c76040518163ffffffff1660e01b8152600401600060405180830381600087803b15801561012c57600080fd5b505af1158015610140573d6000803e3d6000fd5b5050505050565b600061015a61015584610312565b6102e1565b90508281526020810184848401111561017257600080fd5b61017d8482856103ac565b509392505050565b6000813590506101948161042e565b92915050565b600082601f8301126101ab57600080fd5b81356101bb848260208601610147565b91505092915050565b6000813590506101d381610445565b92915050565b6000602082840312156101eb57600080fd5b60006101f984828501610185565b91505092915050565b60008060006060848603121561021757600080fd5b600061022586828701610185565b9350506020610236868287016101c4565b925050604084013567ffffffffffffffff81111561025357600080fd5b61025f8682870161019a565b9150509250925092565b600061027482610342565b61027e818561034d565b935061028e8185602086016103bb565b6102978161041d565b840191505092915050565b6102ab816103a2565b82525050565b60006040820190506102c660008301856102a2565b81810360208301526102d88184610269565b90509392505050565b6000604051905081810181811067ffffffffffffffff82111715610308576103076103ee565b5b8060405250919050565b600067ffffffffffffffff82111561032d5761032c6103ee565b5b601f19601f8301169050602081019050919050565b600081519050919050565b600082825260208201905092915050565b600061036982610382565b9050919050565b600061037b8261035e565b9050919050565b600073ffffffffffffffffffffffffffffffffffffffff82169050919050565b6000819050919050565b82818337600083830152505050565b60005b838110156103d95780820151818401526020810190506103be565b838111156103e8576000848401525b50505050565b7f4e487b7100000000000000000000000000000000000000000000000000000000600052604160045260246000fd5b6000601f19601f8301169050919050565b61043781610370565b811461044257600080fd5b50565b61044e816103a2565b811461045957600080fd5b5056fea26469706673582212208dc2e5e27b65d548aac99055ed757b744ed5049e3582df6be42948173b8a1fcd64736f6c63430008000033",
  "immutableReferences": {},
  "source": "// SPDX-License-Identifier: MIT\n\npragma solidity ^0.8.0;\n\nimport \"../utils/Context.sol\";\n\ncontract ContextMock is Context {\n    event Sender(address sender);\n\n    function msgSender() public {\n        emit Sender(_msgSender());\n    }\n\n    event Data(bytes data, uint256 integerValue, string stringValue);\n\n    function msgData(uint256 integerValue, string memory stringValue) public {\n        emit Data(_msgData(), integerValue, stringValue);\n    }\n}\n\ncontract ContextMockCaller {\n    function callSender(ContextMock context) public {\n        context.msgSender();\n    }\n\n    function callData(ContextMock context, uint256 integerValue, string memory stringValue) public {\n        context.msgData(integerValue, stringValue);\n    }\n}\n",
  "sourcePath": "E:\\work\\工作\\czz\\合约\\truffle\\safebox\\contracts\\openzeppelin\\contracts\\mocks\\ContextMock.sol",
  "compiler": {
    "name": "solc",
    "version": "0.8.0+commit.c7dfd78e.Emscripten.clang"
  },
  "schemaVersion": "3.2.3",
  "updatedAt": "2021-03-26T11:38:18.221Z",
  "devdoc": {
    "kind": "dev",
    "methods": {},
    "version": 1
  },
  "userdoc": {
    "kind": "user",
    "methods": {},
    "version": 1
  }
}