{
  "contractName": "CountersImpl",
  "abi": [
    {
      "inputs": [],
      "name": "current",
      "outputs": [
        {
          "internalType": "uint256",
          "name": "",
          "type": "uint256"
        }
      ],
      "stateMutability": "view",
      "type": "function"
    },
    {
      "inputs": [],
      "name": "increment",
      "outputs": [],
      "stateMutability": "nonpayable",
      "type": "function"
    },
    {
      "inputs": [],
      "name": "decrement",
      "outputs": [],
      "stateMutability": "nonpayable",
      "type": "function"
    }
  ],
  "bytecode": "0x608060405234801561001057600080fd5b506101fc806100206000396000f3fe608060405234801561001057600080fd5b50600436106100415760003560e01c80632baeceb7146100465780639fa6a6e314610050578063d09de08a1461006e575b600080fd5b61004e610078565b005b610058610084565b6040516100659190610190565b60405180910390f35b610076610095565b005b61008260006100a1565b565b600061009060006100fd565b905090565b61009f600061010b565b565b600081600001549050600081116100ed576040517f08c379a00000000000000000000000000000000000000000000000000000000081526004016100e490610170565b60405180910390fd5b6001810382600001819055505050565b600081600001549050919050565b6001816000016000828254019250508190555050565b600061012e601b836101ab565b91507f436f756e7465723a2064656372656d656e74206f766572666c6f7700000000006000830152602082019050919050565b61016a816101bc565b82525050565b6000602082019050818103600083015261018981610121565b9050919050565b60006020820190506101a56000830184610161565b92915050565b600082825260208201905092915050565b600081905091905056fea26469706673582212206a6474d8e1d2c5e9b75e06bae50aed2cb5d2461454e5c664b9eb4342670e543464736f6c63430008000033",
  "immutableReferences": {},
  "source": "// SPDX-License-Identifier: MIT\n\npragma solidity ^0.8.0;\n\nimport \"../utils/Counters.sol\";\n\ncontract CountersImpl {\n    using Counters for Counters.Counter;\n\n    Counters.Counter private _counter;\n\n    function current() public view returns (uint256) {\n        return _counter.current();\n    }\n\n    function increment() public {\n        _counter.increment();\n    }\n\n    function decrement() public {\n        _counter.decrement();\n    }\n}\n",
  "sourcePath": "E:/work/工作/czz/合约/truffle/safebox/contracts/openzeppelin/contracts/mocks/CountersImpl.sol",
  "compiler": {
    "name": "solc",
    "version": "0.8.0+commit.c7dfd78e.Emscripten.clang"
  },
  "schemaVersion": "3.2.3",
  "updatedAt": "2021-03-26T11:32:50.867Z",
  "devdoc": {
    "kind": "dev",
    "methods": {},
    "version": 1
  },
  "userdoc": {
    "kind": "user",
    "methods": {},
    "version": 1
  }
}