{
  "contractName": "DummyImplementation",
  "abi": [
    {
      "inputs": [],
      "name": "text",
      "outputs": [
        {
          "internalType": "string",
          "name": "",
          "type": "string"
        }
      ],
      "stateMutability": "view",
      "type": "function"
    },
    {
      "inputs": [],
      "name": "value",
      "outputs": [
        {
          "internalType": "uint256",
          "name": "",
          "type": "uint256"
        }
      ],
      "stateMutability": "view",
      "type": "function"
    },
    {
      "inputs": [
        {
          "internalType": "uint256",
          "name": "",
          "type": "uint256"
        }
      ],
      "name": "values",
      "outputs": [
        {
          "internalType": "uint256",
          "name": "",
          "type": "uint256"
        }
      ],
      "stateMutability": "view",
      "type": "function"
    },
    {
      "inputs": [],
      "name": "initializeNonPayable",
      "outputs": [],
      "stateMutability": "nonpayable",
      "type": "function"
    },
    {
      "inputs": [],
      "name": "initializePayable",
      "outputs": [],
      "stateMutability": "payable",
      "type": "function"
    },
    {
      "inputs": [
        {
          "internalType": "uint256",
          "name": "_value",
          "type": "uint256"
        }
      ],
      "name": "initializeNonPayableWithValue",
      "outputs": [],
      "stateMutability": "nonpayable",
      "type": "function"
    },
    {
      "inputs": [
        {
          "internalType": "uint256",
          "name": "_value",
          "type": "uint256"
        }
      ],
      "name": "initializePayableWithValue",
      "outputs": [],
      "stateMutability": "payable",
      "type": "function"
    },
    {
      "inputs": [
        {
          "internalType": "uint256",
          "name": "_value",
          "type": "uint256"
        },
        {
          "internalType": "string",
          "name": "_text",
          "type": "string"
        },
        {
          "internalType": "uint256[]",
          "name": "_values",
          "type": "uint256[]"
        }
      ],
      "name": "initialize",
      "outputs": [],
      "stateMutability": "nonpayable",
      "type": "function"
    },
    {
      "inputs": [],
      "name": "get",
      "outputs": [
        {
          "internalType": "bool",
          "name": "",
          "type": "bool"
        }
      ],
      "stateMutability": "pure",
      "type": "function"
    },
    {
      "inputs": [],
      "name": "version",
      "outputs": [
        {
          "internalType": "string",
          "name": "",
          "type": "string"
        }
      ],
      "stateMutability": "pure",
      "type": "function"
    },
    {
      "inputs": [],
      "name": "reverts",
      "outputs": [],
      "stateMutability": "pure",
      "type": "function"
    }
  ],
  "bytecode": "0x608060405234801561001057600080fd5b5061097c806100206000396000f3fe60806040526004361061009c5760003560e01c80635e383d21116100645780635e383d21146101505780636d4ce63c1461018d578063763e2831146101b85780639fba1f9a146101e1578063d31f8b6b146101eb578063e79f5bee146102145761009c565b80631f1bd692146100a1578063227367d5146100cc5780633bccbbc9146100e35780633fa4f245146100fa57806354fd4d5014610125575b600080fd5b3480156100ad57600080fd5b506100b6610230565b6040516100c39190610730565b60405180910390f35b3480156100d857600080fd5b506100e16102be565b005b3480156100ef57600080fd5b506100f86102c8565b005b34801561010657600080fd5b5061010f61030b565b60405161011c9190610772565b60405180910390f35b34801561013157600080fd5b5061013a610311565b6040516101479190610730565b60405180910390f35b34801561015c57600080fd5b50610177600480360381019061017291906105d6565b61034e565b6040516101849190610772565b60405180910390f35b34801561019957600080fd5b506101a2610372565b6040516101af9190610715565b60405180910390f35b3480156101c457600080fd5b506101df60048036038101906101da91906105d6565b61037b565b005b6101e9610385565b005b3480156101f757600080fd5b50610212600480360381019061020d91906105ff565b61038f565b005b61022e600480360381019061022991906105d6565b6103c9565b005b6001805461023d9061088e565b80601f01602080910402602001604051908101604052809291908181526020018280546102699061088e565b80156102b65780601f1061028b576101008083540402835291602001916102b6565b820191906000526020600020905b81548152906001019060200180831161029957829003601f168201915b505050505081565b600a600081905550565b6000610309576040517f08c379a000000000000000000000000000000000000000000000000000000000815260040161030090610752565b60405180910390fd5b565b60005481565b60606040518060400160405280600281526020017f5631000000000000000000000000000000000000000000000000000000000000815250905090565b6002818154811061035e57600080fd5b906000526020600020016000915090505481565b60006001905090565b8060008190555050565b6064600081905550565b8260008190555081600190805190602001906103ac9291906103d3565b5080600290805190602001906103c3929190610459565b50505050565b8060008190555050565b8280546103df9061088e565b90600052602060002090601f0160209004810192826104015760008555610448565b82601f1061041a57805160ff1916838001178555610448565b82800160010185558215610448579182015b8281111561044757825182559160200191906001019061042c565b5b50905061045591906104a6565b5090565b828054828255906000526020600020908101928215610495579160200282015b82811115610494578251825591602001919060010190610479565b5b5090506104a291906104a6565b5090565b5b808211156104bf5760008160009055506001016104a7565b5090565b60006104d66104d1846107be565b61078d565b905080838252602082019050828560208602820111156104f557600080fd5b60005b85811015610525578161050b88826105c1565b8452602084019350602083019250506001810190506104f8565b5050509392505050565b600061054261053d846107ea565b61078d565b90508281526020810184848401111561055a57600080fd5b61056584828561084c565b509392505050565b600082601f83011261057e57600080fd5b813561058e8482602086016104c3565b91505092915050565b600082601f8301126105a857600080fd5b81356105b884826020860161052f565b91505092915050565b6000813590506105d08161092f565b92915050565b6000602082840312156105e857600080fd5b60006105f6848285016105c1565b91505092915050565b60008060006060848603121561061457600080fd5b6000610622868287016105c1565b935050602084013567ffffffffffffffff81111561063f57600080fd5b61064b86828701610597565b925050604084013567ffffffffffffffff81111561066857600080fd5b6106748682870161056d565b9150509250925092565b61068781610836565b82525050565b60006106988261081a565b6106a28185610825565b93506106b281856020860161085b565b6106bb8161091e565b840191505092915050565b60006106d3601c83610825565b91507f44756d6d79496d706c656d656e746174696f6e207265766572746564000000006000830152602082019050919050565b61070f81610842565b82525050565b600060208201905061072a600083018461067e565b92915050565b6000602082019050818103600083015261074a818461068d565b905092915050565b6000602082019050818103600083015261076b816106c6565b9050919050565b60006020820190506107876000830184610706565b92915050565b6000604051905081810181811067ffffffffffffffff821117156107b4576107b36108ef565b5b8060405250919050565b600067ffffffffffffffff8211156107d9576107d86108ef565b5b602082029050602081019050919050565b600067ffffffffffffffff821115610805576108046108ef565b5b601f19601f8301169050602081019050919050565b600081519050919050565b600082825260208201905092915050565b60008115159050919050565b6000819050919050565b82818337600083830152505050565b60005b8381101561087957808201518184015260208101905061085e565b83811115610888576000848401525b50505050565b600060028204905060018216806108a657607f821691505b602082108114156108ba576108b96108c0565b5b50919050565b7f4e487b7100000000000000000000000000000000000000000000000000000000600052602260045260246000fd5b7f4e487b7100000000000000000000000000000000000000000000000000000000600052604160045260246000fd5b6000601f19601f8301169050919050565b61093881610842565b811461094357600080fd5b5056fea2646970667358221220cb439fd313200080e513f707d01f85f6c3dda78821e1d27fab65535603e6a7f064736f6c63430008000033",
  "immutableReferences": {},
  "source": "// SPDX-License-Identifier: MIT\n\npragma solidity ^0.8.0;\n\nabstract contract Impl {\n  function version() public pure virtual returns (string memory); \n}\n\ncontract DummyImplementation {\n  uint256 public value;\n  string public text;\n  uint256[] public values;\n\n  function initializeNonPayable() public {\n    value = 10;\n  }\n\n  function initializePayable() public payable {\n    value = 100;\n  }\n\n  function initializeNonPayableWithValue(uint256 _value) public {\n    value = _value;\n  }\n\n  function initializePayableWithValue(uint256 _value) public payable {\n    value = _value;\n  }\n\n  function initialize(uint256 _value, string memory _text, uint256[] memory _values) public {\n    value = _value;\n    text = _text;\n    values = _values;\n  }\n\n  function get() public pure returns (bool) {\n    return true;\n  }\n\n  function version() public pure virtual returns (string memory) {\n    return \"V1\";\n  }\n\n  function reverts() public pure {\n    require(false, \"DummyImplementation reverted\");\n  }\n}\n\ncontract DummyImplementationV2 is DummyImplementation {\n  function migrate(uint256 newVal) public payable {\n    value = newVal;\n  }\n\n  function version() public pure override returns (string memory) {\n    return \"V2\";\n  }\n}\n",
  "sourcePath": "E:/work/工作/czz/合约/truffle/safebox/contracts/openzeppelin/contracts/mocks/DummyImplementation.sol",
  "compiler": {
    "name": "solc",
    "version": "0.8.0+commit.c7dfd78e.Emscripten.clang"
  },
  "schemaVersion": "3.2.3",
  "updatedAt": "2021-03-26T11:32:50.870Z",
  "devdoc": {
    "kind": "dev",
    "methods": {},
    "version": 1
  },
  "userdoc": {
    "kind": "user",
    "methods": {},
    "version": 1
  }
}