{
  "contractName": "EIP712External",
  "abi": [
    {
      "inputs": [
        {
          "internalType": "string",
          "name": "name",
          "type": "string"
        },
        {
          "internalType": "string",
          "name": "version",
          "type": "string"
        }
      ],
      "stateMutability": "nonpayable",
      "type": "constructor"
    },
    {
      "inputs": [],
      "name": "domainSeparator",
      "outputs": [
        {
          "internalType": "bytes32",
          "name": "",
          "type": "bytes32"
        }
      ],
      "stateMutability": "view",
      "type": "function"
    },
    {
      "inputs": [
        {
          "internalType": "bytes",
          "name": "signature",
          "type": "bytes"
        },
        {
          "internalType": "address",
          "name": "signer",
          "type": "address"
        },
        {
          "internalType": "address",
          "name": "mailTo",
          "type": "address"
        },
        {
          "internalType": "string",
          "name": "mailContents",
          "type": "string"
        }
      ],
      "name": "verify",
      "outputs": [],
      "stateMutability": "view",
      "type": "function"
    },
    {
      "inputs": [],
      "name": "getChainId",
      "outputs": [
        {
          "internalType": "uint256",
          "name": "",
          "type": "uint256"
        }
      ],
      "stateMutability": "view",
      "type": "function"
    }
  ],
  "bytecode": "0x6101206040523480156200001257600080fd5b5060405162000f2138038062000f2183398181016040528101906200003891906200016d565b818160008280519060200120905060008280519060200120905060007f8b73c3c69bb8fe3d512ecc4cf759cc79239f7b179b0ffacaa9a75d522b39400f90508260c081815250508160e081815250504660a08181525050620000a2818484620000bf60201b60201c565b608081815250508061010081815250505050505050505062000384565b60008383834630604051602001620000dc95949392919062000213565b6040516020818303038152906040528051906020012090509392505050565b6000620001126200010c84620002a4565b62000270565b9050828152602081018484840111156200012b57600080fd5b620001388482856200031f565b509392505050565b600082601f8301126200015257600080fd5b815162000164848260208601620000fb565b91505092915050565b600080604083850312156200018157600080fd5b600083015167ffffffffffffffff8111156200019c57600080fd5b620001aa8582860162000140565b925050602083015167ffffffffffffffff811115620001c857600080fd5b620001d68582860162000140565b9150509250929050565b620001eb81620002d7565b82525050565b620001fc81620002eb565b82525050565b6200020d8162000315565b82525050565b600060a0820190506200022a6000830188620001f1565b620002396020830187620001f1565b620002486040830186620001f1565b62000257606083018562000202565b620002666080830184620001e0565b9695505050505050565b6000604051905081810181811067ffffffffffffffff821117156200029a576200029962000355565b5b8060405250919050565b600067ffffffffffffffff821115620002c257620002c162000355565b5b601f19601f8301169050602081019050919050565b6000620002e482620002f5565b9050919050565b6000819050919050565b600073ffffffffffffffffffffffffffffffffffffffff82169050919050565b6000819050919050565b60005b838110156200033f57808201518184015260208101905062000322565b838111156200034f576000848401525b50505050565b7f4e487b7100000000000000000000000000000000000000000000000000000000600052604160045260246000fd5b60805160a05160c05160e05161010051610b58620003c9600039600061024c0152600061028e0152600061026d015260006101f9015260006102210152610b586000f3fe608060405234801561001057600080fd5b50600436106100415760003560e01c806308c6e079146100465780633408e47014610062578063f698da2514610080575b600080fd5b610060600480360381019061005b9190610595565b61009e565b005b61006a61014a565b60405161007791906109a8565b60405180910390f35b610088610152565b604051610095919061083e565b60405180910390f35b60006100fa7f847fc9da8ec3c72cae85ca691245eaeb0a4a1e74f77c3a919c43afda231d39ba8484805190602001206040516020016100df93929190610859565b60405160208183030381529060405280519060200120610161565b90506000610108828761017b565b90508473ffffffffffffffffffffffffffffffffffffffff168173ffffffffffffffffffffffffffffffffffffffff161461014257600080fd5b505050505050565b600046905090565b600061015c6101f5565b905090565b600061017461016e6101f5565b836102b8565b9050919050565b600060418251146101c1576040517f08c379a00000000000000000000000000000000000000000000000000000000081526004016101b890610948565b60405180910390fd5b60008060006020850151925060408501519150606085015160001a90506101ea868285856102eb565b935050505092915050565b60007f0000000000000000000000000000000000000000000000000000000000000000461415610247577f000000000000000000000000000000000000000000000000000000000000000090506102b5565b6102b27f00000000000000000000000000000000000000000000000000000000000000007f00000000000000000000000000000000000000000000000000000000000000007f0000000000000000000000000000000000000000000000000000000000000000610476565b90505b90565b600082826040516020016102cd929190610807565b60405160208183030381529060405280519060200120905092915050565b60007f7fffffffffffffffffffffffffffffff5d576e7357a4501ddfe92f46681b20a08260001c1115610353576040517f08c379a000000000000000000000000000000000000000000000000000000000815260040161034a90610968565b60405180910390fd5b601b8460ff1614806103685750601c8460ff16145b6103a7576040517f08c379a000000000000000000000000000000000000000000000000000000000815260040161039e90610988565b60405180910390fd5b6000600186868686604051600081526020016040526040516103cc94939291906108e3565b6020604051602081039080840390855afa1580156103ee573d6000803e3d6000fd5b505050602060405103519050600073ffffffffffffffffffffffffffffffffffffffff168173ffffffffffffffffffffffffffffffffffffffff16141561046a576040517f08c379a000000000000000000000000000000000000000000000000000000000815260040161046190610928565b60405180910390fd5b80915050949350505050565b60008383834630604051602001610491959493929190610890565b6040516020818303038152906040528051906020012090509392505050565b60006104c36104be846109f4565b6109c3565b9050828152602081018484840111156104db57600080fd5b6104e6848285610ac3565b509392505050565b60006105016104fc84610a24565b6109c3565b90508281526020810184848401111561051957600080fd5b610524848285610ac3565b509392505050565b60008135905061053b81610b0b565b92915050565b600082601f83011261055257600080fd5b81356105628482602086016104b0565b91505092915050565b600082601f83011261057c57600080fd5b813561058c8482602086016104ee565b91505092915050565b600080600080608085870312156105ab57600080fd5b600085013567ffffffffffffffff8111156105c557600080fd5b6105d187828801610541565b94505060206105e28782880161052c565b93505060406105f38782880161052c565b925050606085013567ffffffffffffffff81111561061057600080fd5b61061c8782880161056b565b91505092959194509250565b61063181610a70565b82525050565b61064081610a82565b82525050565b61065761065282610a82565b610ad2565b82525050565b600061066a601883610a54565b91507f45434453413a20696e76616c6964207369676e617475726500000000000000006000830152602082019050919050565b60006106aa601f83610a54565b91507f45434453413a20696e76616c6964207369676e6174757265206c656e677468006000830152602082019050919050565b60006106ea600283610a65565b91507f19010000000000000000000000000000000000000000000000000000000000006000830152600282019050919050565b600061072a602283610a54565b91507f45434453413a20696e76616c6964207369676e6174757265202773272076616c60008301527f75650000000000000000000000000000000000000000000000000000000000006020830152604082019050919050565b6000610790602283610a54565b91507f45434453413a20696e76616c6964207369676e6174757265202776272076616c60008301527f75650000000000000000000000000000000000000000000000000000000000006020830152604082019050919050565b6107f281610aac565b82525050565b61080181610ab6565b82525050565b6000610812826106dd565b915061081e8285610646565b60208201915061082e8284610646565b6020820191508190509392505050565b60006020820190506108536000830184610637565b92915050565b600060608201905061086e6000830186610637565b61087b6020830185610628565b6108886040830184610637565b949350505050565b600060a0820190506108a56000830188610637565b6108b26020830187610637565b6108bf6040830186610637565b6108cc60608301856107e9565b6108d96080830184610628565b9695505050505050565b60006080820190506108f86000830187610637565b61090560208301866107f8565b6109126040830185610637565b61091f6060830184610637565b95945050505050565b600060208201905081810360008301526109418161065d565b9050919050565b600060208201905081810360008301526109618161069d565b9050919050565b600060208201905081810360008301526109818161071d565b9050919050565b600060208201905081810360008301526109a181610783565b9050919050565b60006020820190506109bd60008301846107e9565b92915050565b6000604051905081810181811067ffffffffffffffff821117156109ea576109e9610adc565b5b8060405250919050565b600067ffffffffffffffff821115610a0f57610a0e610adc565b5b601f19601f8301169050602081019050919050565b600067ffffffffffffffff821115610a3f57610a3e610adc565b5b601f19601f8301169050602081019050919050565b600082825260208201905092915050565b600081905092915050565b6000610a7b82610a8c565b9050919050565b6000819050919050565b600073ffffffffffffffffffffffffffffffffffffffff82169050919050565b6000819050919050565b600060ff82169050919050565b82818337600083830152505050565b6000819050919050565b7f4e487b7100000000000000000000000000000000000000000000000000000000600052604160045260246000fd5b610b1481610a70565b8114610b1f57600080fd5b5056fea2646970667358221220b60bc7367e9c23f33851ca5a5f791b94415f580177249141b9ff1d4f711553cc64736f6c63430008000033",
  "immutableReferences": {
    "17910": [
      {
        "length": 32,
        "start": 545
      }
    ],
    "17912": [
      {
        "length": 32,
        "start": 505
      }
    ],
    "17914": [
      {
        "length": 32,
        "start": 621
      }
    ],
    "17916": [
      {
        "length": 32,
        "start": 654
      }
    ],
    "17918": [
      {
        "length": 32,
        "start": 588
      }
    ]
  },
  "source": "// SPDX-License-Identifier: MIT\n\npragma solidity ^0.8.0;\n\nimport \"../utils/cryptography/draft-EIP712.sol\";\nimport \"../utils/cryptography/ECDSA.sol\";\n\ncontract EIP712External is EIP712 {\n    constructor(string memory name, string memory version) EIP712(name, version) {}\n\n    function domainSeparator() external view returns (bytes32) {\n        return _domainSeparatorV4();\n    }\n\n    function verify(bytes memory signature, address signer, address mailTo, string memory mailContents) external view {\n        bytes32 digest = _hashTypedDataV4(keccak256(abi.encode(\n            keccak256(\"Mail(address to,string contents)\"),\n            mailTo,\n            keccak256(bytes(mailContents))\n        )));\n        address recoveredSigner = ECDSA.recover(digest, signature);\n        require(recoveredSigner == signer);\n    }\n\n    function getChainId() external view returns (uint256) {\n        return block.chainid;\n    }\n}\n",
  "sourcePath": "E:/work/工作/czz/合约/truffle/safebox/contracts/openzeppelin/contracts/mocks/EIP712External.sol",
  "compiler": {
    "name": "solc",
    "version": "0.8.0+commit.c7dfd78e.Emscripten.clang"
  },
  "schemaVersion": "3.2.3",
  "updatedAt": "2021-03-26T11:32:50.878Z",
  "devdoc": {
    "kind": "dev",
    "methods": {},
    "version": 1
  },
  "userdoc": {
    "kind": "user",
    "methods": {},
    "version": 1
  }
}