{
  "contractName": "EnumerableBytes32SetMock",
  "abi": [
    {
      "anonymous": false,
      "inputs": [
        {
          "indexed": false,
          "internalType": "bool",
          "name": "result",
          "type": "bool"
        }
      ],
      "name": "OperationResult",
      "type": "event"
    },
    {
      "inputs": [
        {
          "internalType": "bytes32",
          "name": "value",
          "type": "bytes32"
        }
      ],
      "name": "contains",
      "outputs": [
        {
          "internalType": "bool",
          "name": "",
          "type": "bool"
        }
      ],
      "stateMutability": "view",
      "type": "function"
    },
    {
      "inputs": [
        {
          "internalType": "bytes32",
          "name": "value",
          "type": "bytes32"
        }
      ],
      "name": "add",
      "outputs": [],
      "stateMutability": "nonpayable",
      "type": "function"
    },
    {
      "inputs": [
        {
          "internalType": "bytes32",
          "name": "value",
          "type": "bytes32"
        }
      ],
      "name": "remove",
      "outputs": [],
      "stateMutability": "nonpayable",
      "type": "function"
    },
    {
      "inputs": [],
      "name": "length",
      "outputs": [
        {
          "internalType": "uint256",
          "name": "",
          "type": "uint256"
        }
      ],
      "stateMutability": "view",
      "type": "function"
    },
    {
      "inputs": [
        {
          "internalType": "uint256",
          "name": "index",
          "type": "uint256"
        }
      ],
      "name": "at",
      "outputs": [
        {
          "internalType": "bytes32",
          "name": "",
          "type": "bytes32"
        }
      ],
      "stateMutability": "view",
      "type": "function"
    }
  ],
  "bytecode": "0x608060405234801561001057600080fd5b506107a8806100206000396000f3fe608060405234801561001057600080fd5b50600436106100575760003560e01c80631d1a696d1461005c5780631f7b6d321461008c578063446bffba146100aa57806395bc2673146100c6578063e0886f90146100e2575b600080fd5b6100766004803603810190610071919061055a565b610112565b604051610083919061063f565b60405180910390f35b61009461012f565b6040516100a19190610695565b60405180910390f35b6100c460048036038101906100bf919061055a565b610140565b005b6100e060048036038101906100db919061055a565b610193565b005b6100fc60048036038101906100f79190610583565b6101e6565b604051610109919061065a565b60405180910390f35b600061012882600061020390919063ffffffff16565b9050919050565b600061013b600061021a565b905090565b600061015682600061022f90919063ffffffff16565b90507fed9840e0775590557ad736875d96c95cf1458b766335f74339951a32c82a9e3381604051610187919061063f565b60405180910390a15050565b60006101a982600061024690919063ffffffff16565b90507fed9840e0775590557ad736875d96c95cf1458b766335f74339951a32c82a9e33816040516101da919061063f565b60405180910390a15050565b60006101fc82600061025d90919063ffffffff16565b9050919050565b60006102128360000183610274565b905092915050565b600061022882600001610297565b9050919050565b600061023e83600001836102a8565b905092915050565b60006102558360000183610318565b905092915050565b600061026c8360000183610496565b905092915050565b600080836001016000848152602001908152602001600020541415905092915050565b600081600001805490509050919050565b60006102b48383610274565b61030d578260000182908060018154018082558091505060019003906000526020600020016000909190919091505582600001805490508360010160008481526020019081526020016000208190555060019050610312565b600090505b92915050565b6000808360010160008481526020019081526020016000205490506000811461048a57600060018261034a91906106c1565b905060006001866000018054905061036291906106c1565b905060008660000182815481106103a2577f4e487b7100000000000000000000000000000000000000000000000000000000600052603260045260246000fd5b90600052602060002001549050808760000184815481106103ec577f4e487b7100000000000000000000000000000000000000000000000000000000600052603260045260246000fd5b906000526020600020018190555083876001016000838152602001908152602001600020819055508660000180548061044e577f4e487b7100000000000000000000000000000000000000000000000000000000600052603160045260246000fd5b60019003818190600052602060002001600090559055866001016000878152602001908152602001600020600090556001945050505050610490565b60009150505b92915050565b6000818360000180549050116104e1576040517f08c379a00000000000000000000000000000000000000000000000000000000081526004016104d890610675565b60405180910390fd5b82600001828154811061051d577f4e487b7100000000000000000000000000000000000000000000000000000000600052603260045260246000fd5b9060005260206000200154905092915050565b60008135905061053f81610744565b92915050565b6000813590506105548161075b565b92915050565b60006020828403121561056c57600080fd5b600061057a84828501610530565b91505092915050565b60006020828403121561059557600080fd5b60006105a384828501610545565b91505092915050565b6105b5816106f5565b82525050565b6105c481610701565b82525050565b60006105d76022836106b0565b91507f456e756d657261626c655365743a20696e646578206f7574206f6620626f756e60008301527f64730000000000000000000000000000000000000000000000000000000000006020830152604082019050919050565b6106398161070b565b82525050565b600060208201905061065460008301846105ac565b92915050565b600060208201905061066f60008301846105bb565b92915050565b6000602082019050818103600083015261068e816105ca565b9050919050565b60006020820190506106aa6000830184610630565b92915050565b600082825260208201905092915050565b60006106cc8261070b565b91506106d78361070b565b9250828210156106ea576106e9610715565b5b828203905092915050565b60008115159050919050565b6000819050919050565b6000819050919050565b7f4e487b7100000000000000000000000000000000000000000000000000000000600052601160045260246000fd5b61074d81610701565b811461075857600080fd5b50565b6107648161070b565b811461076f57600080fd5b5056fea26469706673582212206925b46f93136a5805b14535af21a0fc89814ad8bac4c9447b2f43f37ccc71b264736f6c63430008000033",
  "immutableReferences": {},
  "source": "// SPDX-License-Identifier: MIT\n\npragma solidity ^0.8.0;\n\nimport \"../utils/structs/EnumerableSet.sol\";\n\n// Bytes32Set\ncontract EnumerableBytes32SetMock {\n    using EnumerableSet for EnumerableSet.Bytes32Set;\n\n    event OperationResult(bool result);\n\n    EnumerableSet.Bytes32Set private _set;\n\n    function contains(bytes32 value) public view returns (bool) {\n        return _set.contains(value);\n    }\n\n    function add(bytes32 value) public {\n        bool result = _set.add(value);\n        emit OperationResult(result);\n    }\n\n    function remove(bytes32 value) public {\n        bool result = _set.remove(value);\n        emit OperationResult(result);\n    }\n\n    function length() public view returns (uint256) {\n        return _set.length();\n    }\n\n    function at(uint256 index) public view returns (bytes32) {\n        return _set.at(index);\n    }\n}\n\n// AddressSet\ncontract EnumerableAddressSetMock {\n    using EnumerableSet for EnumerableSet.AddressSet;\n\n    event OperationResult(bool result);\n\n    EnumerableSet.AddressSet private _set;\n\n    function contains(address value) public view returns (bool) {\n        return _set.contains(value);\n    }\n\n    function add(address value) public {\n        bool result = _set.add(value);\n        emit OperationResult(result);\n    }\n\n    function remove(address value) public {\n        bool result = _set.remove(value);\n        emit OperationResult(result);\n    }\n\n    function length() public view returns (uint256) {\n        return _set.length();\n    }\n\n    function at(uint256 index) public view returns (address) {\n        return _set.at(index);\n    }\n}\n\n// UintSet\ncontract EnumerableUintSetMock {\n    using EnumerableSet for EnumerableSet.UintSet;\n\n    event OperationResult(bool result);\n\n    EnumerableSet.UintSet private _set;\n\n    function contains(uint256 value) public view returns (bool) {\n        return _set.contains(value);\n    }\n\n    function add(uint256 value) public {\n        bool result = _set.add(value);\n        emit OperationResult(result);\n    }\n\n    function remove(uint256 value) public {\n        bool result = _set.remove(value);\n        emit OperationResult(result);\n    }\n\n    function length() public view returns (uint256) {\n        return _set.length();\n    }\n\n    function at(uint256 index) public view returns (uint256) {\n        return _set.at(index);\n    }\n}\n",
  "sourcePath": "E:/work/工作/czz/合约/truffle/safebox/contracts/openzeppelin/contracts/mocks/EnumerableSetMock.sol",
  "compiler": {
    "name": "solc",
    "version": "0.8.0+commit.c7dfd78e.Emscripten.clang"
  },
  "schemaVersion": "3.2.3",
  "updatedAt": "2021-03-26T11:32:50.948Z",
  "devdoc": {
    "kind": "dev",
    "methods": {},
    "version": 1
  },
  "userdoc": {
    "kind": "user",
    "methods": {},
    "version": 1
  }
}