{
  "contractName": "ERC1155BurnableMock",
  "abi": [
    {
      "inputs": [
        {
          "internalType": "string",
          "name": "uri",
          "type": "string"
        }
      ],
      "stateMutability": "nonpayable",
      "type": "constructor"
    },
    {
      "anonymous": false,
      "inputs": [
        {
          "indexed": true,
          "internalType": "address",
          "name": "account",
          "type": "address"
        },
        {
          "indexed": true,
          "internalType": "address",
          "name": "operator",
          "type": "address"
        },
        {
          "indexed": false,
          "internalType": "bool",
          "name": "approved",
          "type": "bool"
        }
      ],
      "name": "ApprovalForAll",
      "type": "event"
    },
    {
      "anonymous": false,
      "inputs": [
        {
          "indexed": true,
          "internalType": "address",
          "name": "operator",
          "type": "address"
        },
        {
          "indexed": true,
          "internalType": "address",
          "name": "from",
          "type": "address"
        },
        {
          "indexed": true,
          "internalType": "address",
          "name": "to",
          "type": "address"
        },
        {
          "indexed": false,
          "internalType": "uint256[]",
          "name": "ids",
          "type": "uint256[]"
        },
        {
          "indexed": false,
          "internalType": "uint256[]",
          "name": "values",
          "type": "uint256[]"
        }
      ],
      "name": "TransferBatch",
      "type": "event"
    },
    {
      "anonymous": false,
      "inputs": [
        {
          "indexed": true,
          "internalType": "address",
          "name": "operator",
          "type": "address"
        },
        {
          "indexed": true,
          "internalType": "address",
          "name": "from",
          "type": "address"
        },
        {
          "indexed": true,
          "internalType": "address",
          "name": "to",
          "type": "address"
        },
        {
          "indexed": false,
          "internalType": "uint256",
          "name": "id",
          "type": "uint256"
        },
        {
          "indexed": false,
          "internalType": "uint256",
          "name": "value",
          "type": "uint256"
        }
      ],
      "name": "TransferSingle",
      "type": "event"
    },
    {
      "anonymous": false,
      "inputs": [
        {
          "indexed": false,
          "internalType": "string",
          "name": "value",
          "type": "string"
        },
        {
          "indexed": true,
          "internalType": "uint256",
          "name": "id",
          "type": "uint256"
        }
      ],
      "name": "URI",
      "type": "event"
    },
    {
      "inputs": [
        {
          "internalType": "address",
          "name": "account",
          "type": "address"
        },
        {
          "internalType": "uint256",
          "name": "id",
          "type": "uint256"
        }
      ],
      "name": "balanceOf",
      "outputs": [
        {
          "internalType": "uint256",
          "name": "",
          "type": "uint256"
        }
      ],
      "stateMutability": "view",
      "type": "function"
    },
    {
      "inputs": [
        {
          "internalType": "address[]",
          "name": "accounts",
          "type": "address[]"
        },
        {
          "internalType": "uint256[]",
          "name": "ids",
          "type": "uint256[]"
        }
      ],
      "name": "balanceOfBatch",
      "outputs": [
        {
          "internalType": "uint256[]",
          "name": "",
          "type": "uint256[]"
        }
      ],
      "stateMutability": "view",
      "type": "function"
    },
    {
      "inputs": [
        {
          "internalType": "address",
          "name": "account",
          "type": "address"
        },
        {
          "internalType": "uint256",
          "name": "id",
          "type": "uint256"
        },
        {
          "internalType": "uint256",
          "name": "value",
          "type": "uint256"
        }
      ],
      "name": "burn",
      "outputs": [],
      "stateMutability": "nonpayable",
      "type": "function"
    },
    {
      "inputs": [
        {
          "internalType": "address",
          "name": "account",
          "type": "address"
        },
        {
          "internalType": "uint256[]",
          "name": "ids",
          "type": "uint256[]"
        },
        {
          "internalType": "uint256[]",
          "name": "values",
          "type": "uint256[]"
        }
      ],
      "name": "burnBatch",
      "outputs": [],
      "stateMutability": "nonpayable",
      "type": "function"
    },
    {
      "inputs": [
        {
          "internalType": "address",
          "name": "account",
          "type": "address"
        },
        {
          "internalType": "address",
          "name": "operator",
          "type": "address"
        }
      ],
      "name": "isApprovedForAll",
      "outputs": [
        {
          "internalType": "bool",
          "name": "",
          "type": "bool"
        }
      ],
      "stateMutability": "view",
      "type": "function"
    },
    {
      "inputs": [
        {
          "internalType": "address",
          "name": "from",
          "type": "address"
        },
        {
          "internalType": "address",
          "name": "to",
          "type": "address"
        },
        {
          "internalType": "uint256[]",
          "name": "ids",
          "type": "uint256[]"
        },
        {
          "internalType": "uint256[]",
          "name": "amounts",
          "type": "uint256[]"
        },
        {
          "internalType": "bytes",
          "name": "data",
          "type": "bytes"
        }
      ],
      "name": "safeBatchTransferFrom",
      "outputs": [],
      "stateMutability": "nonpayable",
      "type": "function"
    },
    {
      "inputs": [
        {
          "internalType": "address",
          "name": "from",
          "type": "address"
        },
        {
          "internalType": "address",
          "name": "to",
          "type": "address"
        },
        {
          "internalType": "uint256",
          "name": "id",
          "type": "uint256"
        },
        {
          "internalType": "uint256",
          "name": "amount",
          "type": "uint256"
        },
        {
          "internalType": "bytes",
          "name": "data",
          "type": "bytes"
        }
      ],
      "name": "safeTransferFrom",
      "outputs": [],
      "stateMutability": "nonpayable",
      "type": "function"
    },
    {
      "inputs": [
        {
          "internalType": "address",
          "name": "operator",
          "type": "address"
        },
        {
          "internalType": "bool",
          "name": "approved",
          "type": "bool"
        }
      ],
      "name": "setApprovalForAll",
      "outputs": [],
      "stateMutability": "nonpayable",
      "type": "function"
    },
    {
      "inputs": [
        {
          "internalType": "bytes4",
          "name": "interfaceId",
          "type": "bytes4"
        }
      ],
      "name": "supportsInterface",
      "outputs": [
        {
          "internalType": "bool",
          "name": "",
          "type": "bool"
        }
      ],
      "stateMutability": "view",
      "type": "function"
    },
    {
      "inputs": [
        {
          "internalType": "uint256",
          "name": "",
          "type": "uint256"
        }
      ],
      "name": "uri",
      "outputs": [
        {
          "internalType": "string",
          "name": "",
          "type": "string"
        }
      ],
      "stateMutability": "view",
      "type": "function"
    },
    {
      "inputs": [
        {
          "internalType": "address",
          "name": "to",
          "type": "address"
        },
        {
          "internalType": "uint256",
          "name": "id",
          "type": "uint256"
        },
        {
          "internalType": "uint256",
          "name": "value",
          "type": "uint256"
        },
        {
          "internalType": "bytes",
          "name": "data",
          "type": "bytes"
        }
      ],
      "name": "mint",
      "outputs": [],
      "stateMutability": "nonpayable",
      "type": "function"
    }
  ],
  "bytecode": "0x60806040523480156200001157600080fd5b50604051620034033803806200340383398181016040528101906200003791906200018f565b8062000049816200005160201b60201c565b505062000305565b8060029080519060200190620000699291906200006d565b5050565b8280546200007b9062000271565b90600052602060002090601f0160209004810192826200009f5760008555620000eb565b82601f10620000ba57805160ff1916838001178555620000eb565b82800160010185558215620000eb579182015b82811115620000ea578251825591602001919060010190620000cd565b5b509050620000fa9190620000fe565b5090565b5b8082111562000119576000816000905550600101620000ff565b5090565b6000620001346200012e8462000208565b620001d4565b9050828152602081018484840111156200014d57600080fd5b6200015a8482856200023b565b509392505050565b600082601f8301126200017457600080fd5b8151620001868482602086016200011d565b91505092915050565b600060208284031215620001a257600080fd5b600082015167ffffffffffffffff811115620001bd57600080fd5b620001cb8482850162000162565b91505092915050565b6000604051905081810181811067ffffffffffffffff82111715620001fe57620001fd620002d6565b5b8060405250919050565b600067ffffffffffffffff821115620002265762000225620002d6565b5b601f19601f8301169050602081019050919050565b60005b838110156200025b5780820151818401526020810190506200023e565b838111156200026b576000848401525b50505050565b600060028204905060018216806200028a57607f821691505b60208210811415620002a157620002a0620002a7565b5b50919050565b7f4e487b7100000000000000000000000000000000000000000000000000000000600052602260045260246000fd5b7f4e487b7100000000000000000000000000000000000000000000000000000000600052604160045260246000fd5b6130ee80620003156000396000f3fe608060405234801561001057600080fd5b50600436106100a85760003560e01c80636b20c454116100715780636b20c45414610189578063731133e9146101a5578063a22cb465146101c1578063e985e9c5146101dd578063f242432a1461020d578063f5298aca14610229576100a8565b8062fdd58e146100ad57806301ffc9a7146100dd5780630e89341c1461010d5780632eb2c2d61461013d5780634e1273f414610159575b600080fd5b6100c760048036038101906100c2919061209b565b610245565b6040516100d49190612bd2565b60405180910390f35b6100f760048036038101906100f2919061220d565b61030e565b60405161010491906129f5565b60405180910390f35b6101276004803603810190610122919061225f565b6103f0565b6040516101349190612a10565b60405180910390f35b61015760048036038101906101529190611e92565b610484565b005b610173600480360381019061016e91906121a1565b61087a565b604051610180919061299c565b60405180910390f35b6101a3600480360381019061019e9190611fe0565b610a2b565b005b6101bf60048036038101906101ba9190612126565b610ac8565b005b6101db60048036038101906101d6919061205f565b610ada565b005b6101f760048036038101906101f29190611e56565b610c5b565b60405161020491906129f5565b60405180910390f35b61022760048036038101906102229190611f51565b610cef565b005b610243600480360381019061023e91906120d7565b611007565b005b60008073ffffffffffffffffffffffffffffffffffffffff168373ffffffffffffffffffffffffffffffffffffffff1614156102b6576040517f08c379a00000000000000000000000000000000000000000000000000000000081526004016102ad90612a72565b60405180910390fd5b60008083815260200190815260200160002060008473ffffffffffffffffffffffffffffffffffffffff1673ffffffffffffffffffffffffffffffffffffffff16815260200190815260200160002054905092915050565b60007fd9b67a26000000000000000000000000000000000000000000000000000000007bffffffffffffffffffffffffffffffffffffffffffffffffffffffff1916827bffffffffffffffffffffffffffffffffffffffffffffffffffffffff191614806103d957507f0e89341c000000000000000000000000000000000000000000000000000000007bffffffffffffffffffffffffffffffffffffffffffffffffffffffff1916827bffffffffffffffffffffffffffffffffffffffffffffffffffffffff1916145b806103e957506103e8826110a4565b5b9050919050565b6060600280546103ff90612e80565b80601f016020809104026020016040519081016040528092919081815260200182805461042b90612e80565b80156104785780601f1061044d57610100808354040283529160200191610478565b820191906000526020600020905b81548152906001019060200180831161045b57829003601f168201915b50505050509050919050565b81518351146104c8576040517f08c379a00000000000000000000000000000000000000000000000000000000081526004016104bf90612b92565b60405180910390fd5b600073ffffffffffffffffffffffffffffffffffffffff168473ffffffffffffffffffffffffffffffffffffffff161415610538576040517f08c379a000000000000000000000000000000000000000000000000000000000815260040161052f90612ad2565b60405180910390fd5b61054061110e565b73ffffffffffffffffffffffffffffffffffffffff168573ffffffffffffffffffffffffffffffffffffffff16148061058657506105858561058061110e565b610c5b565b5b6105c5576040517f08c379a00000000000000000000000000000000000000000000000000000000081526004016105bc90612af2565b60405180910390fd5b60006105cf61110e565b90506105df818787878787611116565b60005b84518110156107e5576000858281518110610626577f4e487b7100000000000000000000000000000000000000000000000000000000600052603260045260246000fd5b60200260200101519050600085838151811061066b577f4e487b7100000000000000000000000000000000000000000000000000000000600052603260045260246000fd5b60200260200101519050600080600084815260200190815260200160002060008b73ffffffffffffffffffffffffffffffffffffffff1673ffffffffffffffffffffffffffffffffffffffff1681526020019081526020016000205490508181101561070c576040517f08c379a000000000000000000000000000000000000000000000000000000000815260040161070390612b32565b60405180910390fd5b81816107189190612d96565b60008085815260200190815260200160002060008c73ffffffffffffffffffffffffffffffffffffffff1673ffffffffffffffffffffffffffffffffffffffff168152602001908152602001600020819055508160008085815260200190815260200160002060008b73ffffffffffffffffffffffffffffffffffffffff1673ffffffffffffffffffffffffffffffffffffffff16815260200190815260200160002060008282546107ca9190612d40565b92505081905550505050806107de90612eb2565b90506105e2565b508473ffffffffffffffffffffffffffffffffffffffff168673ffffffffffffffffffffffffffffffffffffffff168273ffffffffffffffffffffffffffffffffffffffff167f4a39dc06d4c0dbc64b70af90fd698a233a518aa5d07e595d983b8c0526c8f7fb878760405161085c9291906129be565b60405180910390a461087281878787878761111e565b505050505050565b606081518351146108c0576040517f08c379a00000000000000000000000000000000000000000000000000000000081526004016108b790612b72565b60405180910390fd5b6000835167ffffffffffffffff811115610903577f4e487b7100000000000000000000000000000000000000000000000000000000600052604160045260246000fd5b6040519080825280602002602001820160405280156109315781602001602082028036833780820191505090505b50905060005b8451811015610a20576109ca85828151811061097c577f4e487b7100000000000000000000000000000000000000000000000000000000600052603260045260246000fd5b60200260200101518583815181106109bd577f4e487b7100000000000000000000000000000000000000000000000000000000600052603260045260246000fd5b6020026020010151610245565b828281518110610a03577f4e487b7100000000000000000000000000000000000000000000000000000000600052603260045260246000fd5b60200260200101818152505080610a1990612eb2565b9050610937565b508091505092915050565b610a3361110e565b73ffffffffffffffffffffffffffffffffffffffff168373ffffffffffffffffffffffffffffffffffffffff161480610a795750610a7883610a7361110e565b610c5b565b5b610ab8576040517f08c379a0000000000000000000000000000000000000000000000000000000008152600401610aaf90612ab2565b60405180910390fd5b610ac38383836112ee565b505050565b610ad4848484846115f4565b50505050565b8173ffffffffffffffffffffffffffffffffffffffff16610af961110e565b73ffffffffffffffffffffffffffffffffffffffff161415610b50576040517f08c379a0000000000000000000000000000000000000000000000000000000008152600401610b4790612b52565b60405180910390fd5b8060016000610b5d61110e565b73ffffffffffffffffffffffffffffffffffffffff1673ffffffffffffffffffffffffffffffffffffffff16815260200190815260200160002060008473ffffffffffffffffffffffffffffffffffffffff1673ffffffffffffffffffffffffffffffffffffffff16815260200190815260200160002060006101000a81548160ff0219169083151502179055508173ffffffffffffffffffffffffffffffffffffffff16610c0a61110e565b73ffffffffffffffffffffffffffffffffffffffff167f17307eab39ab6107e8899845ad3d59bd9653f200f220920489ca2b5937696c3183604051610c4f91906129f5565b60405180910390a35050565b6000600160008473ffffffffffffffffffffffffffffffffffffffff1673ffffffffffffffffffffffffffffffffffffffff16815260200190815260200160002060008373ffffffffffffffffffffffffffffffffffffffff1673ffffffffffffffffffffffffffffffffffffffff16815260200190815260200160002060009054906101000a900460ff16905092915050565b600073ffffffffffffffffffffffffffffffffffffffff168473ffffffffffffffffffffffffffffffffffffffff161415610d5f576040517f08c379a0000000000000000000000000000000000000000000000000000000008152600401610d5690612ad2565b60405180910390fd5b610d6761110e565b73ffffffffffffffffffffffffffffffffffffffff168573ffffffffffffffffffffffffffffffffffffffff161480610dad5750610dac85610da761110e565b610c5b565b5b610dec576040517f08c379a0000000000000000000000000000000000000000000000000000000008152600401610de390612ab2565b60405180910390fd5b6000610df661110e565b9050610e16818787610e078861178a565b610e108861178a565b87611116565b600080600086815260200190815260200160002060008873ffffffffffffffffffffffffffffffffffffffff1673ffffffffffffffffffffffffffffffffffffffff16815260200190815260200160002054905083811015610ead576040517f08c379a0000000000000000000000000000000000000000000000000000000008152600401610ea490612b32565b60405180910390fd5b8381610eb99190612d96565b60008087815260200190815260200160002060008973ffffffffffffffffffffffffffffffffffffffff1673ffffffffffffffffffffffffffffffffffffffff168152602001908152602001600020819055508360008087815260200190815260200160002060008873ffffffffffffffffffffffffffffffffffffffff1673ffffffffffffffffffffffffffffffffffffffff1681526020019081526020016000206000828254610f6b9190612d40565b925050819055508573ffffffffffffffffffffffffffffffffffffffff168773ffffffffffffffffffffffffffffffffffffffff168373ffffffffffffffffffffffffffffffffffffffff167fc3d58168c5ae7397731d063d5bbf3d657854427343f4c083240f7aacaa2d0f628888604051610fe8929190612bed565b60405180910390a4610ffe828888888888611850565b50505050505050565b61100f61110e565b73ffffffffffffffffffffffffffffffffffffffff168373ffffffffffffffffffffffffffffffffffffffff16148061105557506110548361104f61110e565b610c5b565b5b611094576040517f08c379a000000000000000000000000000000000000000000000000000000000815260040161108b90612ab2565b60405180910390fd5b61109f838383611a20565b505050565b60007f01ffc9a7000000000000000000000000000000000000000000000000000000007bffffffffffffffffffffffffffffffffffffffffffffffffffffffff1916827bffffffffffffffffffffffffffffffffffffffffffffffffffffffff1916149050919050565b600033905090565b505050505050565b61113d8473ffffffffffffffffffffffffffffffffffffffff16611c46565b156112e6578373ffffffffffffffffffffffffffffffffffffffff1663bc197c8187878686866040518663ffffffff1660e01b81526004016111839594939291906128da565b602060405180830381600087803b15801561119d57600080fd5b505af19250505080156111ce57506040513d601f19601f820116820180604052508101906111cb9190612236565b60015b61125d576111da612fa6565b806111e55750611222565b806040517f08c379a00000000000000000000000000000000000000000000000000000000081526004016112199190612a10565b60405180910390fd5b6040517f08c379a000000000000000000000000000000000000000000000000000000000815260040161125490612a32565b60405180910390fd5b63bc197c8160e01b7bffffffffffffffffffffffffffffffffffffffffffffffffffffffff1916817bffffffffffffffffffffffffffffffffffffffffffffffffffffffff1916146112e4576040517f08c379a00000000000000000000000000000000000000000000000000000000081526004016112db90612a52565b60405180910390fd5b505b505050505050565b600073ffffffffffffffffffffffffffffffffffffffff168373ffffffffffffffffffffffffffffffffffffffff16141561135e576040517f08c379a000000000000000000000000000000000000000000000000000000000815260040161135590612b12565b60405180910390fd5b80518251146113a2576040517f08c379a000000000000000000000000000000000000000000000000000000000815260040161139990612b92565b60405180910390fd5b60006113ac61110e565b90506113cc81856000868660405180602001604052806000815250611116565b60005b835181101561156e576000848281518110611413577f4e487b7100000000000000000000000000000000000000000000000000000000600052603260045260246000fd5b602002602001015190506000848381518110611458577f4e487b7100000000000000000000000000000000000000000000000000000000600052603260045260246000fd5b60200260200101519050600080600084815260200190815260200160002060008973ffffffffffffffffffffffffffffffffffffffff1673ffffffffffffffffffffffffffffffffffffffff168152602001908152602001600020549050818110156114f9576040517f08c379a00000000000000000000000000000000000000000000000000000000081526004016114f090612a92565b60405180910390fd5b81816115059190612d96565b60008085815260200190815260200160002060008a73ffffffffffffffffffffffffffffffffffffffff1673ffffffffffffffffffffffffffffffffffffffff16815260200190815260200160002081905550505050808061156690612eb2565b9150506113cf565b50600073ffffffffffffffffffffffffffffffffffffffff168473ffffffffffffffffffffffffffffffffffffffff168273ffffffffffffffffffffffffffffffffffffffff167f4a39dc06d4c0dbc64b70af90fd698a233a518aa5d07e595d983b8c0526c8f7fb86866040516115e69291906129be565b60405180910390a450505050565b600073ffffffffffffffffffffffffffffffffffffffff168473ffffffffffffffffffffffffffffffffffffffff161415611664576040517f08c379a000000000000000000000000000000000000000000000000000000000815260040161165b90612bb2565b60405180910390fd5b600061166e61110e565b905061168f816000876116808861178a565b6116898861178a565b87611116565b8260008086815260200190815260200160002060008773ffffffffffffffffffffffffffffffffffffffff1673ffffffffffffffffffffffffffffffffffffffff16815260200190815260200160002060008282546116ee9190612d40565b925050819055508473ffffffffffffffffffffffffffffffffffffffff16600073ffffffffffffffffffffffffffffffffffffffff168273ffffffffffffffffffffffffffffffffffffffff167fc3d58168c5ae7397731d063d5bbf3d657854427343f4c083240f7aacaa2d0f62878760405161176c929190612bed565b60405180910390a461178381600087878787611850565b5050505050565b60606000600167ffffffffffffffff8111156117cf577f4e487b7100000000000000000000000000000000000000000000000000000000600052604160045260246000fd5b6040519080825280602002602001820160405280156117fd5781602001602082028036833780820191505090505b509050828160008151811061183b577f4e487b7100000000000000000000000000000000000000000000000000000000600052603260045260246000fd5b60200260200101818152505080915050919050565b61186f8473ffffffffffffffffffffffffffffffffffffffff16611c46565b15611a18578373ffffffffffffffffffffffffffffffffffffffff1663f23a6e6187878686866040518663ffffffff1660e01b81526004016118b5959493929190612942565b602060405180830381600087803b1580156118cf57600080fd5b505af192505050801561190057506040513d601f19601f820116820180604052508101906118fd9190612236565b60015b61198f5761190c612fa6565b806119175750611954565b806040517f08c379a000000000000000000000000000000000000000000000000000000000815260040161194b9190612a10565b60405180910390fd5b6040517f08c379a000000000000000000000000000000000000000000000000000000000815260040161198690612a32565b60405180910390fd5b63f23a6e6160e01b7bffffffffffffffffffffffffffffffffffffffffffffffffffffffff1916817bffffffffffffffffffffffffffffffffffffffffffffffffffffffff191614611a16576040517f08c379a0000000000000000000000000000000000000000000000000000000008152600401611a0d90612a52565b60405180910390fd5b505b505050505050565b600073ffffffffffffffffffffffffffffffffffffffff168373ffffffffffffffffffffffffffffffffffffffff161415611a90576040517f08c379a0000000000000000000000000000000000000000000000000000000008152600401611a8790612b12565b60405180910390fd5b6000611a9a61110e565b9050611aca81856000611aac8761178a565b611ab58761178a565b60405180602001604052806000815250611116565b600080600085815260200190815260200160002060008673ffffffffffffffffffffffffffffffffffffffff1673ffffffffffffffffffffffffffffffffffffffff16815260200190815260200160002054905082811015611b61576040517f08c379a0000000000000000000000000000000000000000000000000000000008152600401611b5890612a92565b60405180910390fd5b8281611b6d9190612d96565b60008086815260200190815260200160002060008773ffffffffffffffffffffffffffffffffffffffff1673ffffffffffffffffffffffffffffffffffffffff16815260200190815260200160002081905550600073ffffffffffffffffffffffffffffffffffffffff168573ffffffffffffffffffffffffffffffffffffffff168373ffffffffffffffffffffffffffffffffffffffff167fc3d58168c5ae7397731d063d5bbf3d657854427343f4c083240f7aacaa2d0f628787604051611c37929190612bed565b60405180910390a45050505050565b600080823b905060008111915050919050565b6000611c6c611c6784612c47565b612c16565b90508083825260208201905082856020860282011115611c8b57600080fd5b60005b85811015611cbb5781611ca18882611d6f565b845260208401935060208301925050600181019050611c8e565b5050509392505050565b6000611cd8611cd384612c73565b612c16565b90508083825260208201905082856020860282011115611cf757600080fd5b60005b85811015611d275781611d0d8882611e41565b845260208401935060208301925050600181019050611cfa565b5050509392505050565b6000611d44611d3f84612c9f565b612c16565b905082815260208101848484011115611d5c57600080fd5b611d67848285612e3e565b509392505050565b600081359050611d7e8161305c565b92915050565b600082601f830112611d9557600080fd5b8135611da5848260208601611c59565b91505092915050565b600082601f830112611dbf57600080fd5b8135611dcf848260208601611cc5565b91505092915050565b600081359050611de781613073565b92915050565b600081359050611dfc8161308a565b92915050565b600081519050611e118161308a565b92915050565b600082601f830112611e2857600080fd5b8135611e38848260208601611d31565b91505092915050565b600081359050611e50816130a1565b92915050565b60008060408385031215611e6957600080fd5b6000611e7785828601611d6f565b9250506020611e8885828601611d6f565b9150509250929050565b600080600080600060a08688031215611eaa57600080fd5b6000611eb888828901611d6f565b9550506020611ec988828901611d6f565b945050604086013567ffffffffffffffff811115611ee657600080fd5b611ef288828901611dae565b935050606086013567ffffffffffffffff811115611f0f57600080fd5b611f1b88828901611dae565b925050608086013567ffffffffffffffff811115611f3857600080fd5b611f4488828901611e17565b9150509295509295909350565b600080600080600060a08688031215611f6957600080fd5b6000611f7788828901611d6f565b9550506020611f8888828901611d6f565b9450506040611f9988828901611e41565b9350506060611faa88828901611e41565b925050608086013567ffffffffffffffff811115611fc757600080fd5b611fd388828901611e17565b9150509295509295909350565b600080600060608486031215611ff557600080fd5b600061200386828701611d6f565b935050602084013567ffffffffffffffff81111561202057600080fd5b61202c86828701611dae565b925050604084013567ffffffffffffffff81111561204957600080fd5b61205586828701611dae565b9150509250925092565b6000806040838503121561207257600080fd5b600061208085828601611d6f565b925050602061209185828601611dd8565b9150509250929050565b600080604083850312156120ae57600080fd5b60006120bc85828601611d6f565b92505060206120cd85828601611e41565b9150509250929050565b6000806000606084860312156120ec57600080fd5b60006120fa86828701611d6f565b935050602061210b86828701611e41565b925050604061211c86828701611e41565b9150509250925092565b6000806000806080858703121561213c57600080fd5b600061214a87828801611d6f565b945050602061215b87828801611e41565b935050604061216c87828801611e41565b925050606085013567ffffffffffffffff81111561218957600080fd5b61219587828801611e17565b91505092959194509250565b600080604083850312156121b457600080fd5b600083013567ffffffffffffffff8111156121ce57600080fd5b6121da85828601611d84565b925050602083013567ffffffffffffffff8111156121f757600080fd5b61220385828601611dae565b9150509250929050565b60006020828403121561221f57600080fd5b600061222d84828501611ded565b91505092915050565b60006020828403121561224857600080fd5b600061225684828501611e02565b91505092915050565b60006020828403121561227157600080fd5b600061227f84828501611e41565b91505092915050565b600061229483836128bc565b60208301905092915050565b6122a981612dca565b82525050565b60006122ba82612cdf565b6122c48185612d0d565b93506122cf83612ccf565b8060005b838110156123005781516122e78882612288565b97506122f283612d00565b9250506001810190506122d3565b5085935050505092915050565b61231681612ddc565b82525050565b600061232782612cea565b6123318185612d1e565b9350612341818560208601612e4d565b61234a81612f88565b840191505092915050565b600061236082612cf5565b61236a8185612d2f565b935061237a818560208601612e4d565b61238381612f88565b840191505092915050565b600061239b603483612d2f565b91507f455243313135353a207472616e7366657220746f206e6f6e204552433131353560008301527f526563656976657220696d706c656d656e7465720000000000000000000000006020830152604082019050919050565b6000612401602883612d2f565b91507f455243313135353a204552433131353552656365697665722072656a6563746560008301527f6420746f6b656e730000000000000000000000000000000000000000000000006020830152604082019050919050565b6000612467602b83612d2f565b91507f455243313135353a2062616c616e636520717565727920666f7220746865207a60008301527f65726f20616464726573730000000000000000000000000000000000000000006020830152604082019050919050565b60006124cd602483612d2f565b91507f455243313135353a206275726e20616d6f756e7420657863656564732062616c60008301527f616e6365000000000000000000000000000000000000000000000000000000006020830152604082019050919050565b6000612533602983612d2f565b91507f455243313135353a2063616c6c6572206973206e6f74206f776e6572206e6f7260008301527f20617070726f76656400000000000000000000000000000000000000000000006020830152604082019050919050565b6000612599602583612d2f565b91507f455243313135353a207472616e7366657220746f20746865207a65726f20616460008301527f64726573730000000000000000000000000000000000000000000000000000006020830152604082019050919050565b60006125ff603283612d2f565b91507f455243313135353a207472616e736665722063616c6c6572206973206e6f742060008301527f6f776e6572206e6f7220617070726f76656400000000000000000000000000006020830152604082019050919050565b6000612665602383612d2f565b91507f455243313135353a206275726e2066726f6d20746865207a65726f206164647260008301527f65737300000000000000000000000000000000000000000000000000000000006020830152604082019050919050565b60006126cb602a83612d2f565b91507f455243313135353a20696e73756666696369656e742062616c616e636520666f60008301527f72207472616e73666572000000000000000000000000000000000000000000006020830152604082019050919050565b6000612731602983612d2f565b91507f455243313135353a2073657474696e6720617070726f76616c2073746174757360008301527f20666f722073656c6600000000000000000000000000000000000000000000006020830152604082019050919050565b6000612797602983612d2f565b91507f455243313135353a206163636f756e747320616e6420696473206c656e67746860008301527f206d69736d6174636800000000000000000000000000000000000000000000006020830152604082019050919050565b60006127fd602883612d2f565b91507f455243313135353a2069647320616e6420616d6f756e7473206c656e6774682060008301527f6d69736d617463680000000000000000000000000000000000000000000000006020830152604082019050919050565b6000612863602183612d2f565b91507f455243313135353a206d696e7420746f20746865207a65726f2061646472657360008301527f73000000000000000000000000000000000000000000000000000000000000006020830152604082019050919050565b6128c581612e34565b82525050565b6128d481612e34565b82525050565b600060a0820190506128ef60008301886122a0565b6128fc60208301876122a0565b818103604083015261290e81866122af565b9050818103606083015261292281856122af565b90508181036080830152612936818461231c565b90509695505050505050565b600060a08201905061295760008301886122a0565b61296460208301876122a0565b61297160408301866128cb565b61297e60608301856128cb565b8181036080830152612990818461231c565b90509695505050505050565b600060208201905081810360008301526129b681846122af565b905092915050565b600060408201905081810360008301526129d881856122af565b905081810360208301526129ec81846122af565b90509392505050565b6000602082019050612a0a600083018461230d565b92915050565b60006020820190508181036000830152612a2a8184612355565b905092915050565b60006020820190508181036000830152612a4b8161238e565b9050919050565b60006020820190508181036000830152612a6b816123f4565b9050919050565b60006020820190508181036000830152612a8b8161245a565b9050919050565b60006020820190508181036000830152612aab816124c0565b9050919050565b60006020820190508181036000830152612acb81612526565b9050919050565b60006020820190508181036000830152612aeb8161258c565b9050919050565b60006020820190508181036000830152612b0b816125f2565b9050919050565b60006020820190508181036000830152612b2b81612658565b9050919050565b60006020820190508181036000830152612b4b816126be565b9050919050565b60006020820190508181036000830152612b6b81612724565b9050919050565b60006020820190508181036000830152612b8b8161278a565b9050919050565b60006020820190508181036000830152612bab816127f0565b9050919050565b60006020820190508181036000830152612bcb81612856565b9050919050565b6000602082019050612be760008301846128cb565b92915050565b6000604082019050612c0260008301856128cb565b612c0f60208301846128cb565b9392505050565b6000604051905081810181811067ffffffffffffffff82111715612c3d57612c3c612f59565b5b8060405250919050565b600067ffffffffffffffff821115612c6257612c61612f59565b5b602082029050602081019050919050565b600067ffffffffffffffff821115612c8e57612c8d612f59565b5b602082029050602081019050919050565b600067ffffffffffffffff821115612cba57612cb9612f59565b5b601f19601f8301169050602081019050919050565b6000819050602082019050919050565b600081519050919050565b600081519050919050565b600081519050919050565b6000602082019050919050565b600082825260208201905092915050565b600082825260208201905092915050565b600082825260208201905092915050565b6000612d4b82612e34565b9150612d5683612e34565b9250827fffffffffffffffffffffffffffffffffffffffffffffffffffffffffffffffff03821115612d8b57612d8a612efb565b5b828201905092915050565b6000612da182612e34565b9150612dac83612e34565b925082821015612dbf57612dbe612efb565b5b828203905092915050565b6000612dd582612e14565b9050919050565b60008115159050919050565b60007fffffffff0000000000000000000000000000000000000000000000000000000082169050919050565b600073ffffffffffffffffffffffffffffffffffffffff82169050919050565b6000819050919050565b82818337600083830152505050565b60005b83811015612e6b578082015181840152602081019050612e50565b83811115612e7a576000848401525b50505050565b60006002820490506001821680612e9857607f821691505b60208210811415612eac57612eab612f2a565b5b50919050565b6000612ebd82612e34565b91507fffffffffffffffffffffffffffffffffffffffffffffffffffffffffffffffff821415612ef057612eef612efb565b5b600182019050919050565b7f4e487b7100000000000000000000000000000000000000000000000000000000600052601160045260246000fd5b7f4e487b7100000000000000000000000000000000000000000000000000000000600052602260045260246000fd5b7f4e487b7100000000000000000000000000000000000000000000000000000000600052604160045260246000fd5b6000601f19601f8301169050919050565b60008160e01c9050919050565b600060443d1015612fb657613059565b60046000803e612fc7600051612f99565b6308c379a08114612fd85750613059565b60405160043d036004823e80513d602482011167ffffffffffffffff8211171561300457505050613059565b808201805167ffffffffffffffff811115613023575050505050613059565b8060208301013d850181111561303e57505050505050613059565b61304782612f88565b60208401016040528296505050505050505b90565b61306581612dca565b811461307057600080fd5b50565b61307c81612ddc565b811461308757600080fd5b50565b61309381612de8565b811461309e57600080fd5b50565b6130aa81612e34565b81146130b557600080fd5b5056fea26469706673582212209c9c48aeb731268e89faddb4872b022272f09389c97235a09affe4ef706bfe9f64736f6c63430008000033",
  "immutableReferences": {},
  "source": "// SPDX-License-Identifier: MIT\n\npragma solidity ^0.8.0;\n\nimport \"../token/ERC1155/extensions/ERC1155Burnable.sol\";\n\ncontract ERC1155BurnableMock is ERC1155Burnable {\n    constructor(string memory uri) ERC1155(uri) { }\n\n    function mint(address to, uint256 id, uint256 value, bytes memory data) public {\n        _mint(to, id, value, data);\n    }\n}\n",
  "sourcePath": "E:/work//czz//truffle/safebox/contracts/openzeppelin/contracts/mocks/ERC1155BurnableMock.sol",
  "compiler": {
    "name": "solc",
    "version": "0.8.0+commit.c7dfd78e.Emscripten.clang"
  },
  "schemaVersion": "3.2.3",
  "updatedAt": "2021-03-26T11:32:50.880Z",
  "devdoc": {
    "kind": "dev",
    "methods": {
      "balanceOf(address,uint256)": {
        "details": "See {IERC1155-balanceOf}. Requirements: - `account` cannot be the zero address."
      },
      "balanceOfBatch(address[],uint256[])": {
        "details": "See {IERC1155-balanceOfBatch}. Requirements: - `accounts` and `ids` must have the same length."
      },
      "isApprovedForAll(address,address)": {
        "details": "See {IERC1155-isApprovedForAll}."
      },
      "safeBatchTransferFrom(address,address,uint256[],uint256[],bytes)": {
        "details": "See {IERC1155-safeBatchTransferFrom}."
      },
      "safeTransferFrom(address,address,uint256,uint256,bytes)": {
        "details": "See {IERC1155-safeTransferFrom}."
      },
      "setApprovalForAll(address,bool)": {
        "details": "See {IERC1155-setApprovalForAll}."
      },
      "supportsInterface(bytes4)": {
        "details": "See {IERC165-supportsInterface}."
      },
      "uri(uint256)": {
        "details": "See {IERC1155MetadataURI-uri}. This implementation returns the same URI for *all* token types. It relies on the token type ID substitution mechanism https://eips.ethereum.org/EIPS/eip-1155#metadata[defined in the EIP]. Clients calling this function must replace the `\\{id\\}` substring with the actual token type ID."
      }
    },
    "version": 1
  },
  "userdoc": {
    "kind": "user",
    "methods": {},
    "version": 1
  }
}