{
  "contractName": "ERC721URIStorageMock",
  "abi": [
    {
      "inputs": [
        {
          "internalType": "string",
          "name": "name",
          "type": "string"
        },
        {
          "internalType": "string",
          "name": "symbol",
          "type": "string"
        }
      ],
      "stateMutability": "nonpayable",
      "type": "constructor"
    },
    {
      "anonymous": false,
      "inputs": [
        {
          "indexed": true,
          "internalType": "address",
          "name": "owner",
          "type": "address"
        },
        {
          "indexed": true,
          "internalType": "address",
          "name": "approved",
          "type": "address"
        },
        {
          "indexed": true,
          "internalType": "uint256",
          "name": "tokenId",
          "type": "uint256"
        }
      ],
      "name": "Approval",
      "type": "event"
    },
    {
      "anonymous": false,
      "inputs": [
        {
          "indexed": true,
          "internalType": "address",
          "name": "owner",
          "type": "address"
        },
        {
          "indexed": true,
          "internalType": "address",
          "name": "operator",
          "type": "address"
        },
        {
          "indexed": false,
          "internalType": "bool",
          "name": "approved",
          "type": "bool"
        }
      ],
      "name": "ApprovalForAll",
      "type": "event"
    },
    {
      "anonymous": false,
      "inputs": [
        {
          "indexed": true,
          "internalType": "address",
          "name": "from",
          "type": "address"
        },
        {
          "indexed": true,
          "internalType": "address",
          "name": "to",
          "type": "address"
        },
        {
          "indexed": true,
          "internalType": "uint256",
          "name": "tokenId",
          "type": "uint256"
        }
      ],
      "name": "Transfer",
      "type": "event"
    },
    {
      "inputs": [
        {
          "internalType": "address",
          "name": "to",
          "type": "address"
        },
        {
          "internalType": "uint256",
          "name": "tokenId",
          "type": "uint256"
        }
      ],
      "name": "approve",
      "outputs": [],
      "stateMutability": "nonpayable",
      "type": "function"
    },
    {
      "inputs": [
        {
          "internalType": "address",
          "name": "owner",
          "type": "address"
        }
      ],
      "name": "balanceOf",
      "outputs": [
        {
          "internalType": "uint256",
          "name": "",
          "type": "uint256"
        }
      ],
      "stateMutability": "view",
      "type": "function"
    },
    {
      "inputs": [
        {
          "internalType": "uint256",
          "name": "tokenId",
          "type": "uint256"
        }
      ],
      "name": "getApproved",
      "outputs": [
        {
          "internalType": "address",
          "name": "",
          "type": "address"
        }
      ],
      "stateMutability": "view",
      "type": "function"
    },
    {
      "inputs": [
        {
          "internalType": "address",
          "name": "owner",
          "type": "address"
        },
        {
          "internalType": "address",
          "name": "operator",
          "type": "address"
        }
      ],
      "name": "isApprovedForAll",
      "outputs": [
        {
          "internalType": "bool",
          "name": "",
          "type": "bool"
        }
      ],
      "stateMutability": "view",
      "type": "function"
    },
    {
      "inputs": [],
      "name": "name",
      "outputs": [
        {
          "internalType": "string",
          "name": "",
          "type": "string"
        }
      ],
      "stateMutability": "view",
      "type": "function"
    },
    {
      "inputs": [
        {
          "internalType": "uint256",
          "name": "tokenId",
          "type": "uint256"
        }
      ],
      "name": "ownerOf",
      "outputs": [
        {
          "internalType": "address",
          "name": "",
          "type": "address"
        }
      ],
      "stateMutability": "view",
      "type": "function"
    },
    {
      "inputs": [
        {
          "internalType": "address",
          "name": "from",
          "type": "address"
        },
        {
          "internalType": "address",
          "name": "to",
          "type": "address"
        },
        {
          "internalType": "uint256",
          "name": "tokenId",
          "type": "uint256"
        }
      ],
      "name": "safeTransferFrom",
      "outputs": [],
      "stateMutability": "nonpayable",
      "type": "function"
    },
    {
      "inputs": [
        {
          "internalType": "address",
          "name": "from",
          "type": "address"
        },
        {
          "internalType": "address",
          "name": "to",
          "type": "address"
        },
        {
          "internalType": "uint256",
          "name": "tokenId",
          "type": "uint256"
        },
        {
          "internalType": "bytes",
          "name": "_data",
          "type": "bytes"
        }
      ],
      "name": "safeTransferFrom",
      "outputs": [],
      "stateMutability": "nonpayable",
      "type": "function"
    },
    {
      "inputs": [
        {
          "internalType": "address",
          "name": "operator",
          "type": "address"
        },
        {
          "internalType": "bool",
          "name": "approved",
          "type": "bool"
        }
      ],
      "name": "setApprovalForAll",
      "outputs": [],
      "stateMutability": "nonpayable",
      "type": "function"
    },
    {
      "inputs": [
        {
          "internalType": "bytes4",
          "name": "interfaceId",
          "type": "bytes4"
        }
      ],
      "name": "supportsInterface",
      "outputs": [
        {
          "internalType": "bool",
          "name": "",
          "type": "bool"
        }
      ],
      "stateMutability": "view",
      "type": "function"
    },
    {
      "inputs": [],
      "name": "symbol",
      "outputs": [
        {
          "internalType": "string",
          "name": "",
          "type": "string"
        }
      ],
      "stateMutability": "view",
      "type": "function"
    },
    {
      "inputs": [
        {
          "internalType": "uint256",
          "name": "tokenId",
          "type": "uint256"
        }
      ],
      "name": "tokenURI",
      "outputs": [
        {
          "internalType": "string",
          "name": "",
          "type": "string"
        }
      ],
      "stateMutability": "view",
      "type": "function"
    },
    {
      "inputs": [
        {
          "internalType": "address",
          "name": "from",
          "type": "address"
        },
        {
          "internalType": "address",
          "name": "to",
          "type": "address"
        },
        {
          "internalType": "uint256",
          "name": "tokenId",
          "type": "uint256"
        }
      ],
      "name": "transferFrom",
      "outputs": [],
      "stateMutability": "nonpayable",
      "type": "function"
    },
    {
      "inputs": [
        {
          "internalType": "string",
          "name": "newBaseTokenURI",
          "type": "string"
        }
      ],
      "name": "setBaseURI",
      "outputs": [],
      "stateMutability": "nonpayable",
      "type": "function"
    },
    {
      "inputs": [],
      "name": "baseURI",
      "outputs": [
        {
          "internalType": "string",
          "name": "",
          "type": "string"
        }
      ],
      "stateMutability": "view",
      "type": "function"
    },
    {
      "inputs": [
        {
          "internalType": "uint256",
          "name": "tokenId",
          "type": "uint256"
        },
        {
          "internalType": "string",
          "name": "_tokenURI",
          "type": "string"
        }
      ],
      "name": "setTokenURI",
      "outputs": [],
      "stateMutability": "nonpayable",
      "type": "function"
    },
    {
      "inputs": [
        {
          "internalType": "uint256",
          "name": "tokenId",
          "type": "uint256"
        }
      ],
      "name": "exists",
      "outputs": [
        {
          "internalType": "bool",
          "name": "",
          "type": "bool"
        }
      ],
      "stateMutability": "view",
      "type": "function"
    },
    {
      "inputs": [
        {
          "internalType": "address",
          "name": "to",
          "type": "address"
        },
        {
          "internalType": "uint256",
          "name": "tokenId",
          "type": "uint256"
        }
      ],
      "name": "mint",
      "outputs": [],
      "stateMutability": "nonpayable",
      "type": "function"
    },
    {
      "inputs": [
        {
          "internalType": "address",
          "name": "to",
          "type": "address"
        },
        {
          "internalType": "uint256",
          "name": "tokenId",
          "type": "uint256"
        },
        {
          "internalType": "bytes",
          "name": "_data",
          "type": "bytes"
        }
      ],
      "name": "safeMint",
      "outputs": [],
      "stateMutability": "nonpayable",
      "type": "function"
    },
    {
      "inputs": [
        {
          "internalType": "address",
          "name": "to",
          "type": "address"
        },
        {
          "internalType": "uint256",
          "name": "tokenId",
          "type": "uint256"
        }
      ],
      "name": "safeMint",
      "outputs": [],
      "stateMutability": "nonpayable",
      "type": "function"
    },
    {
      "inputs": [
        {
          "internalType": "uint256",
          "name": "tokenId",
          "type": "uint256"
        }
      ],
      "name": "burn",
      "outputs": [],
      "stateMutability": "nonpayable",
      "type": "function"
    }
  ],
  "bytecode": "0x60806040523480156200001157600080fd5b506040516200331838038062003318833981810160405281019062000037919062000197565b818181600090805190602001906200005192919062000075565b5080600190805190602001906200006a92919062000075565b50505050506200033b565b8280546200008390620002a7565b90600052602060002090601f016020900481019282620000a75760008555620000f3565b82601f10620000c257805160ff1916838001178555620000f3565b82800160010185558215620000f3579182015b82811115620000f2578251825591602001919060010190620000d5565b5b50905062000102919062000106565b5090565b5b808211156200012157600081600090555060010162000107565b5090565b60006200013c62000136846200023e565b6200020a565b9050828152602081018484840111156200015557600080fd5b6200016284828562000271565b509392505050565b600082601f8301126200017c57600080fd5b81516200018e84826020860162000125565b91505092915050565b60008060408385031215620001ab57600080fd5b600083015167ffffffffffffffff811115620001c657600080fd5b620001d4858286016200016a565b925050602083015167ffffffffffffffff811115620001f257600080fd5b62000200858286016200016a565b9150509250929050565b6000604051905081810181811067ffffffffffffffff821117156200023457620002336200030c565b5b8060405250919050565b600067ffffffffffffffff8211156200025c576200025b6200030c565b5b601f19601f8301169050602081019050919050565b60005b838110156200029157808201518184015260208101905062000274565b83811115620002a1576000848401525b50505050565b60006002820490506001821680620002c057607f821691505b60208210811415620002d757620002d6620002dd565b5b50919050565b7f4e487b7100000000000000000000000000000000000000000000000000000000600052602260045260246000fd5b7f4e487b7100000000000000000000000000000000000000000000000000000000600052604160045260246000fd5b612fcd806200034b6000396000f3fe608060405234801561001057600080fd5b50600436106101375760003560e01c806355f804b3116100b857806395d89b411161007c57806395d89b4114610348578063a144819414610366578063a22cb46514610382578063b88d4fde1461039e578063c87b56dd146103ba578063e985e9c5146103ea57610137565b806355f804b3146102925780636352211e146102ae5780636c0360eb146102de57806370a08231146102fc5780638832e6e31461032c57610137565b806323b872dd116100ff57806323b872dd146101f257806340c10f191461020e57806342842e0e1461022a57806342966c68146102465780634f558e791461026257610137565b806301ffc9a71461013c57806306fdde031461016c578063081812fc1461018a578063095ea7b3146101ba578063162094c4146101d6575b600080fd5b610156600480360381019061015191906120c8565b61041a565b6040516101639190612925565b60405180910390f35b6101746104fc565b6040516101819190612940565b60405180910390f35b6101a4600480360381019061019f919061215f565b61058e565b6040516101b191906128be565b60405180910390f35b6101d460048036038101906101cf9190612025565b610613565b005b6101f060048036038101906101eb9190612188565b61072b565b005b61020c60048036038101906102079190611f1f565b610739565b005b61022860048036038101906102239190612025565b610799565b005b610244600480360381019061023f9190611f1f565b6107a7565b005b610260600480360381019061025b919061215f565b6107c7565b005b61027c6004803603810190610277919061215f565b6107d3565b6040516102899190612925565b60405180910390f35b6102ac60048036038101906102a7919061211a565b6107e5565b005b6102c860048036038101906102c3919061215f565b6107fb565b6040516102d591906128be565b60405180910390f35b6102e66108ad565b6040516102f39190612940565b60405180910390f35b61031660048036038101906103119190611eba565b6108bc565b6040516103239190612b62565b60405180910390f35b61034660048036038101906103419190612061565b610974565b005b610350610984565b60405161035d9190612940565b60405180910390f35b610380600480360381019061037b9190612025565b610a16565b005b61039c60048036038101906103979190611fe9565b610a24565b005b6103b860048036038101906103b39190611f6e565b610ba5565b005b6103d460048036038101906103cf919061215f565b610c07565b6040516103e19190612940565b60405180910390f35b61040460048036038101906103ff9190611ee3565b610d59565b6040516104119190612925565b60405180910390f35b60007f80ac58cd000000000000000000000000000000000000000000000000000000007bffffffffffffffffffffffffffffffffffffffffffffffffffffffff1916827bffffffffffffffffffffffffffffffffffffffffffffffffffffffff191614806104e557507f5b5e139f000000000000000000000000000000000000000000000000000000007bffffffffffffffffffffffffffffffffffffffffffffffffffffffff1916827bffffffffffffffffffffffffffffffffffffffffffffffffffffffff1916145b806104f557506104f482610ded565b5b9050919050565b60606000805461050b90612dc2565b80601f016020809104026020016040519081016040528092919081815260200182805461053790612dc2565b80156105845780601f1061055957610100808354040283529160200191610584565b820191906000526020600020905b81548152906001019060200180831161056757829003601f168201915b5050505050905090565b600061059982610e57565b6105d8576040517f08c379a00000000000000000000000000000000000000000000000000000000081526004016105cf90612ac2565b60405180910390fd5b6004600083815260200190815260200160002060009054906101000a900473ffffffffffffffffffffffffffffffffffffffff169050919050565b600061061e826107fb565b90508073ffffffffffffffffffffffffffffffffffffffff168373ffffffffffffffffffffffffffffffffffffffff16141561068f576040517f08c379a000000000000000000000000000000000000000000000000000000000815260040161068690612b22565b60405180910390fd5b8073ffffffffffffffffffffffffffffffffffffffff166106ae610ec3565b73ffffffffffffffffffffffffffffffffffffffff1614806106dd57506106dc816106d7610ec3565b610d59565b5b61071c576040517f08c379a000000000000000000000000000000000000000000000000000000000815260040161071390612a02565b60405180910390fd5b6107268383610ecb565b505050565b6107358282610f84565b5050565b61074a610744610ec3565b82610ff8565b610789576040517f08c379a000000000000000000000000000000000000000000000000000000000815260040161078090612b42565b60405180910390fd5b6107948383836110d6565b505050565b6107a38282611332565b5050565b6107c283838360405180602001604052806000815250610ba5565b505050565b6107d081611500565b50565b60006107de82610e57565b9050919050565b8181600791906107f6929190611bce565b505050565b6000806002600084815260200190815260200160002060009054906101000a900473ffffffffffffffffffffffffffffffffffffffff169050600073ffffffffffffffffffffffffffffffffffffffff168173ffffffffffffffffffffffffffffffffffffffff1614156108a4576040517f08c379a000000000000000000000000000000000000000000000000000000000815260040161089b90612a42565b60405180910390fd5b80915050919050565b60606108b7611553565b905090565b60008073ffffffffffffffffffffffffffffffffffffffff168273ffffffffffffffffffffffffffffffffffffffff16141561092d576040517f08c379a000000000000000000000000000000000000000000000000000000000815260040161092490612a22565b60405180910390fd5b600360008373ffffffffffffffffffffffffffffffffffffffff1673ffffffffffffffffffffffffffffffffffffffff168152602001908152602001600020549050919050565b61097f8383836115e5565b505050565b60606001805461099390612dc2565b80601f01602080910402602001604051908101604052809291908181526020018280546109bf90612dc2565b8015610a0c5780601f106109e157610100808354040283529160200191610a0c565b820191906000526020600020905b8154815290600101906020018083116109ef57829003601f168201915b5050505050905090565b610a208282611640565b5050565b610a2c610ec3565b73ffffffffffffffffffffffffffffffffffffffff168273ffffffffffffffffffffffffffffffffffffffff161415610a9a576040517f08c379a0000000000000000000000000000000000000000000000000000000008152600401610a91906129c2565b60405180910390fd5b8060056000610aa7610ec3565b73ffffffffffffffffffffffffffffffffffffffff1673ffffffffffffffffffffffffffffffffffffffff16815260200190815260200160002060008473ffffffffffffffffffffffffffffffffffffffff1673ffffffffffffffffffffffffffffffffffffffff16815260200190815260200160002060006101000a81548160ff0219169083151502179055508173ffffffffffffffffffffffffffffffffffffffff16610b54610ec3565b73ffffffffffffffffffffffffffffffffffffffff167f17307eab39ab6107e8899845ad3d59bd9653f200f220920489ca2b5937696c3183604051610b999190612925565b60405180910390a35050565b610bb6610bb0610ec3565b83610ff8565b610bf5576040517f08c379a0000000000000000000000000000000000000000000000000000000008152600401610bec90612b42565b60405180910390fd5b610c018484848461165e565b50505050565b6060610c1282610e57565b610c51576040517f08c379a0000000000000000000000000000000000000000000000000000000008152600401610c4890612aa2565b60405180910390fd5b6000600660008481526020019081526020016000208054610c7190612dc2565b80601f0160208091040260200160405190810160405280929190818152602001828054610c9d90612dc2565b8015610cea5780601f10610cbf57610100808354040283529160200191610cea565b820191906000526020600020905b815481529060010190602001808311610ccd57829003601f168201915b505050505090506000610cfb611553565b9050600081511415610d11578192505050610d54565b600082511115610d46578082604051602001610d2e92919061289a565b60405160208183030381529060405292505050610d54565b610d4f846116ba565b925050505b919050565b6000600560008473ffffffffffffffffffffffffffffffffffffffff1673ffffffffffffffffffffffffffffffffffffffff16815260200190815260200160002060008373ffffffffffffffffffffffffffffffffffffffff1673ffffffffffffffffffffffffffffffffffffffff16815260200190815260200160002060009054906101000a900460ff16905092915050565b60007f01ffc9a7000000000000000000000000000000000000000000000000000000007bffffffffffffffffffffffffffffffffffffffffffffffffffffffff1916827bffffffffffffffffffffffffffffffffffffffffffffffffffffffff1916149050919050565b60008073ffffffffffffffffffffffffffffffffffffffff166002600084815260200190815260200160002060009054906101000a900473ffffffffffffffffffffffffffffffffffffffff1673ffffffffffffffffffffffffffffffffffffffff1614159050919050565b600033905090565b816004600083815260200190815260200160002060006101000a81548173ffffffffffffffffffffffffffffffffffffffff021916908373ffffffffffffffffffffffffffffffffffffffff160217905550808273ffffffffffffffffffffffffffffffffffffffff16610f3e836107fb565b73ffffffffffffffffffffffffffffffffffffffff167f8c5be1e5ebec7d5bd14f71427d1e84f3dd0314c0f7b2291e5b200ac8c7c3b92560405160405180910390a45050565b610f8d82610e57565b610fcc576040517f08c379a0000000000000000000000000000000000000000000000000000000008152600401610fc390612a62565b60405180910390fd5b80600660008481526020019081526020016000209080519060200190610ff3929190611c54565b505050565b600061100382610e57565b611042576040517f08c379a0000000000000000000000000000000000000000000000000000000008152600401611039906129e2565b60405180910390fd5b600061104d836107fb565b90508073ffffffffffffffffffffffffffffffffffffffff168473ffffffffffffffffffffffffffffffffffffffff1614806110bc57508373ffffffffffffffffffffffffffffffffffffffff166110a48461058e565b73ffffffffffffffffffffffffffffffffffffffff16145b806110cd57506110cc8185610d59565b5b91505092915050565b8273ffffffffffffffffffffffffffffffffffffffff166110f6826107fb565b73ffffffffffffffffffffffffffffffffffffffff161461114c576040517f08c379a000000000000000000000000000000000000000000000000000000000815260040161114390612ae2565b60405180910390fd5b600073ffffffffffffffffffffffffffffffffffffffff168273ffffffffffffffffffffffffffffffffffffffff1614156111bc576040517f08c379a00000000000000000000000000000000000000000000000000000000081526004016111b3906129a2565b60405180910390fd5b6111c7838383611761565b6111d2600082610ecb565b6001600360008573ffffffffffffffffffffffffffffffffffffffff1673ffffffffffffffffffffffffffffffffffffffff16815260200190815260200160002060008282546112229190612cd8565b925050819055506001600360008473ffffffffffffffffffffffffffffffffffffffff1673ffffffffffffffffffffffffffffffffffffffff16815260200190815260200160002060008282546112799190612c51565b92505081905550816002600083815260200190815260200160002060006101000a81548173ffffffffffffffffffffffffffffffffffffffff021916908373ffffffffffffffffffffffffffffffffffffffff160217905550808273ffffffffffffffffffffffffffffffffffffffff168473ffffffffffffffffffffffffffffffffffffffff167fddf252ad1be2c89b69c2b068fc378daa952ba7f163c4a11628f55a4df523b3ef60405160405180910390a4505050565b600073ffffffffffffffffffffffffffffffffffffffff168273ffffffffffffffffffffffffffffffffffffffff1614156113a2576040517f08c379a000000000000000000000000000000000000000000000000000000000815260040161139990612a82565b60405180910390fd5b6113ab81610e57565b156113eb576040517f08c379a00000000000000000000000000000000000000000000000000000000081526004016113e290612982565b60405180910390fd5b6113f760008383611761565b6001600360008473ffffffffffffffffffffffffffffffffffffffff1673ffffffffffffffffffffffffffffffffffffffff16815260200190815260200160002060008282546114479190612c51565b92505081905550816002600083815260200190815260200160002060006101000a81548173ffffffffffffffffffffffffffffffffffffffff021916908373ffffffffffffffffffffffffffffffffffffffff160217905550808273ffffffffffffffffffffffffffffffffffffffff16600073ffffffffffffffffffffffffffffffffffffffff167fddf252ad1be2c89b69c2b068fc378daa952ba7f163c4a11628f55a4df523b3ef60405160405180910390a45050565b61150981611766565b600060066000838152602001908152602001600020805461152990612dc2565b9050146115505760066000828152602001908152602001600020600061154f9190611cda565b5b50565b60606007805461156290612dc2565b80601f016020809104026020016040519081016040528092919081815260200182805461158e90612dc2565b80156115db5780601f106115b0576101008083540402835291602001916115db565b820191906000526020600020905b8154815290600101906020018083116115be57829003601f168201915b5050505050905090565b6115ef8383611332565b6115fc6000848484611877565b61163b576040517f08c379a000000000000000000000000000000000000000000000000000000000815260040161163290612962565b60405180910390fd5b505050565b61165a8282604051806020016040528060008152506115e5565b5050565b6116698484846110d6565b61167584848484611877565b6116b4576040517f08c379a00000000000000000000000000000000000000000000000000000000081526004016116ab90612962565b60405180910390fd5b50505050565b60606116c582610e57565b611704576040517f08c379a00000000000000000000000000000000000000000000000000000000081526004016116fb90612b02565b60405180910390fd5b600061170e611553565b9050600081511161172e5760405180602001604052806000815250611759565b8061173884611a0e565b60405160200161174992919061289a565b6040516020818303038152906040525b915050919050565b505050565b6000611771826107fb565b905061177f81600084611761565b61178a600083610ecb565b6001600360008373ffffffffffffffffffffffffffffffffffffffff1673ffffffffffffffffffffffffffffffffffffffff16815260200190815260200160002060008282546117da9190612cd8565b925050819055506002600083815260200190815260200160002060006101000a81549073ffffffffffffffffffffffffffffffffffffffff021916905581600073ffffffffffffffffffffffffffffffffffffffff168273ffffffffffffffffffffffffffffffffffffffff167fddf252ad1be2c89b69c2b068fc378daa952ba7f163c4a11628f55a4df523b3ef60405160405180910390a45050565b60006118988473ffffffffffffffffffffffffffffffffffffffff16611bbb565b15611a01578373ffffffffffffffffffffffffffffffffffffffff1663150b7a026118c1610ec3565b8786866040518563ffffffff1660e01b81526004016118e394939291906128d9565b602060405180830381600087803b1580156118fd57600080fd5b505af192505050801561192e57506040513d601f19601f8201168201806040525081019061192b91906120f1565b60015b6119b1573d806000811461195e576040519150601f19603f3d011682016040523d82523d6000602084013e611963565b606091505b506000815114156119a9576040517f08c379a00000000000000000000000000000000000000000000000000000000081526004016119a090612962565b60405180910390fd5b805181602001fd5b63150b7a0260e01b7bffffffffffffffffffffffffffffffffffffffffffffffffffffffff1916817bffffffffffffffffffffffffffffffffffffffffffffffffffffffff191614915050611a06565b600190505b949350505050565b60606000821415611a56576040518060400160405280600181526020017f30000000000000000000000000000000000000000000000000000000000000008152509050611bb6565b600082905060005b60008214611a88578080611a7190612df4565b915050600a82611a819190612ca7565b9150611a5e565b60008167ffffffffffffffff811115611aca577f4e487b7100000000000000000000000000000000000000000000000000000000600052604160045260246000fd5b6040519080825280601f01601f191660200182016040528015611afc5781602001600182028036833780820191505090505b5090505b60008514611baf57600182611b159190612cd8565b9150600a85611b249190612e3d565b6030611b309190612c51565b60f81b818381518110611b6c577f4e487b7100000000000000000000000000000000000000000000000000000000600052603260045260246000fd5b60200101907effffffffffffffffffffffffffffffffffffffffffffffffffffffffffffff1916908160001a905350600a85611ba89190612ca7565b9450611b00565b8093505050505b919050565b600080823b905060008111915050919050565b828054611bda90612dc2565b90600052602060002090601f016020900481019282611bfc5760008555611c43565b82601f10611c1557803560ff1916838001178555611c43565b82800160010185558215611c43579182015b82811115611c42578235825591602001919060010190611c27565b5b509050611c509190611d1a565b5090565b828054611c6090612dc2565b90600052602060002090601f016020900481019282611c825760008555611cc9565b82601f10611c9b57805160ff1916838001178555611cc9565b82800160010185558215611cc9579182015b82811115611cc8578251825591602001919060010190611cad565b5b509050611cd69190611d1a565b5090565b508054611ce690612dc2565b6000825580601f10611cf85750611d17565b601f016020900490600052602060002090810190611d169190611d1a565b5b50565b5b80821115611d33576000816000905550600101611d1b565b5090565b6000611d4a611d4584612bae565b612b7d565b905082815260208101848484011115611d6257600080fd5b611d6d848285612d80565b509392505050565b6000611d88611d8384612bde565b612b7d565b905082815260208101848484011115611da057600080fd5b611dab848285612d80565b509392505050565b600081359050611dc281612f3b565b92915050565b600081359050611dd781612f52565b92915050565b600081359050611dec81612f69565b92915050565b600081519050611e0181612f69565b92915050565b600082601f830112611e1857600080fd5b8135611e28848260208601611d37565b91505092915050565b60008083601f840112611e4357600080fd5b8235905067ffffffffffffffff811115611e5c57600080fd5b602083019150836001820283011115611e7457600080fd5b9250929050565b600082601f830112611e8c57600080fd5b8135611e9c848260208601611d75565b91505092915050565b600081359050611eb481612f80565b92915050565b600060208284031215611ecc57600080fd5b6000611eda84828501611db3565b91505092915050565b60008060408385031215611ef657600080fd5b6000611f0485828601611db3565b9250506020611f1585828601611db3565b9150509250929050565b600080600060608486031215611f3457600080fd5b6000611f4286828701611db3565b9350506020611f5386828701611db3565b9250506040611f6486828701611ea5565b9150509250925092565b60008060008060808587031215611f8457600080fd5b6000611f9287828801611db3565b9450506020611fa387828801611db3565b9350506040611fb487828801611ea5565b925050606085013567ffffffffffffffff811115611fd157600080fd5b611fdd87828801611e07565b91505092959194509250565b60008060408385031215611ffc57600080fd5b600061200a85828601611db3565b925050602061201b85828601611dc8565b9150509250929050565b6000806040838503121561203857600080fd5b600061204685828601611db3565b925050602061205785828601611ea5565b9150509250929050565b60008060006060848603121561207657600080fd5b600061208486828701611db3565b935050602061209586828701611ea5565b925050604084013567ffffffffffffffff8111156120b257600080fd5b6120be86828701611e07565b9150509250925092565b6000602082840312156120da57600080fd5b60006120e884828501611ddd565b91505092915050565b60006020828403121561210357600080fd5b600061211184828501611df2565b91505092915050565b6000806020838503121561212d57600080fd5b600083013567ffffffffffffffff81111561214757600080fd5b61215385828601611e31565b92509250509250929050565b60006020828403121561217157600080fd5b600061217f84828501611ea5565b91505092915050565b6000806040838503121561219b57600080fd5b60006121a985828601611ea5565b925050602083013567ffffffffffffffff8111156121c657600080fd5b6121d285828601611e7b565b9150509250929050565b6121e581612d0c565b82525050565b6121f481612d1e565b82525050565b600061220582612c0e565b61220f8185612c24565b935061221f818560208601612d8f565b61222881612f2a565b840191505092915050565b600061223e82612c19565b6122488185612c35565b9350612258818560208601612d8f565b61226181612f2a565b840191505092915050565b600061227782612c19565b6122818185612c46565b9350612291818560208601612d8f565b80840191505092915050565b60006122aa603283612c35565b91507f4552433732313a207472616e7366657220746f206e6f6e20455243373231526560008301527f63656976657220696d706c656d656e74657200000000000000000000000000006020830152604082019050919050565b6000612310601c83612c35565b91507f4552433732313a20746f6b656e20616c7265616479206d696e746564000000006000830152602082019050919050565b6000612350602483612c35565b91507f4552433732313a207472616e7366657220746f20746865207a65726f2061646460008301527f72657373000000000000000000000000000000000000000000000000000000006020830152604082019050919050565b60006123b6601983612c35565b91507f4552433732313a20617070726f766520746f2063616c6c6572000000000000006000830152602082019050919050565b60006123f6602c83612c35565b91507f4552433732313a206f70657261746f7220717565727920666f72206e6f6e657860008301527f697374656e7420746f6b656e00000000000000000000000000000000000000006020830152604082019050919050565b600061245c603883612c35565b91507f4552433732313a20617070726f76652063616c6c6572206973206e6f74206f7760008301527f6e6572206e6f7220617070726f76656420666f7220616c6c00000000000000006020830152604082019050919050565b60006124c2602a83612c35565b91507f4552433732313a2062616c616e636520717565727920666f7220746865207a6560008301527f726f2061646472657373000000000000000000000000000000000000000000006020830152604082019050919050565b6000612528602983612c35565b91507f4552433732313a206f776e657220717565727920666f72206e6f6e657869737460008301527f656e7420746f6b656e00000000000000000000000000000000000000000000006020830152604082019050919050565b600061258e602e83612c35565b91507f45524337323155524953746f726167653a2055524920736574206f66206e6f6e60008301527f6578697374656e7420746f6b656e0000000000000000000000000000000000006020830152604082019050919050565b60006125f4602083612c35565b91507f4552433732313a206d696e7420746f20746865207a65726f20616464726573736000830152602082019050919050565b6000612634603183612c35565b91507f45524337323155524953746f726167653a2055524920717565727920666f722060008301527f6e6f6e6578697374656e7420746f6b656e0000000000000000000000000000006020830152604082019050919050565b600061269a602c83612c35565b91507f4552433732313a20617070726f76656420717565727920666f72206e6f6e657860008301527f697374656e7420746f6b656e00000000000000000000000000000000000000006020830152604082019050919050565b6000612700602983612c35565b91507f4552433732313a207472616e73666572206f6620746f6b656e2074686174206960008301527f73206e6f74206f776e00000000000000000000000000000000000000000000006020830152604082019050919050565b6000612766602f83612c35565b91507f4552433732314d657461646174613a2055524920717565727920666f72206e6f60008301527f6e6578697374656e7420746f6b656e00000000000000000000000000000000006020830152604082019050919050565b60006127cc602183612c35565b91507f4552433732313a20617070726f76616c20746f2063757272656e74206f776e6560008301527f72000000000000000000000000000000000000000000000000000000000000006020830152604082019050919050565b6000612832603183612c35565b91507f4552433732313a207472616e736665722063616c6c6572206973206e6f74206f60008301527f776e6572206e6f7220617070726f7665640000000000000000000000000000006020830152604082019050919050565b61289481612d76565b82525050565b60006128a6828561226c565b91506128b2828461226c565b91508190509392505050565b60006020820190506128d360008301846121dc565b92915050565b60006080820190506128ee60008301876121dc565b6128fb60208301866121dc565b612908604083018561288b565b818103606083015261291a81846121fa565b905095945050505050565b600060208201905061293a60008301846121eb565b92915050565b6000602082019050818103600083015261295a8184612233565b905092915050565b6000602082019050818103600083015261297b8161229d565b9050919050565b6000602082019050818103600083015261299b81612303565b9050919050565b600060208201905081810360008301526129bb81612343565b9050919050565b600060208201905081810360008301526129db816123a9565b9050919050565b600060208201905081810360008301526129fb816123e9565b9050919050565b60006020820190508181036000830152612a1b8161244f565b9050919050565b60006020820190508181036000830152612a3b816124b5565b9050919050565b60006020820190508181036000830152612a5b8161251b565b9050919050565b60006020820190508181036000830152612a7b81612581565b9050919050565b60006020820190508181036000830152612a9b816125e7565b9050919050565b60006020820190508181036000830152612abb81612627565b9050919050565b60006020820190508181036000830152612adb8161268d565b9050919050565b60006020820190508181036000830152612afb816126f3565b9050919050565b60006020820190508181036000830152612b1b81612759565b9050919050565b60006020820190508181036000830152612b3b816127bf565b9050919050565b60006020820190508181036000830152612b5b81612825565b9050919050565b6000602082019050612b77600083018461288b565b92915050565b6000604051905081810181811067ffffffffffffffff82111715612ba457612ba3612efb565b5b8060405250919050565b600067ffffffffffffffff821115612bc957612bc8612efb565b5b601f19601f8301169050602081019050919050565b600067ffffffffffffffff821115612bf957612bf8612efb565b5b601f19601f8301169050602081019050919050565b600081519050919050565b600081519050919050565b600082825260208201905092915050565b600082825260208201905092915050565b600081905092915050565b6000612c5c82612d76565b9150612c6783612d76565b9250827fffffffffffffffffffffffffffffffffffffffffffffffffffffffffffffffff03821115612c9c57612c9b612e6e565b5b828201905092915050565b6000612cb282612d76565b9150612cbd83612d76565b925082612ccd57612ccc612e9d565b5b828204905092915050565b6000612ce382612d76565b9150612cee83612d76565b925082821015612d0157612d00612e6e565b5b828203905092915050565b6000612d1782612d56565b9050919050565b60008115159050919050565b60007fffffffff0000000000000000000000000000000000000000000000000000000082169050919050565b600073ffffffffffffffffffffffffffffffffffffffff82169050919050565b6000819050919050565b82818337600083830152505050565b60005b83811015612dad578082015181840152602081019050612d92565b83811115612dbc576000848401525b50505050565b60006002820490506001821680612dda57607f821691505b60208210811415612dee57612ded612ecc565b5b50919050565b6000612dff82612d76565b91507fffffffffffffffffffffffffffffffffffffffffffffffffffffffffffffffff821415612e3257612e31612e6e565b5b600182019050919050565b6000612e4882612d76565b9150612e5383612d76565b925082612e6357612e62612e9d565b5b828206905092915050565b7f4e487b7100000000000000000000000000000000000000000000000000000000600052601160045260246000fd5b7f4e487b7100000000000000000000000000000000000000000000000000000000600052601260045260246000fd5b7f4e487b7100000000000000000000000000000000000000000000000000000000600052602260045260246000fd5b7f4e487b7100000000000000000000000000000000000000000000000000000000600052604160045260246000fd5b6000601f19601f8301169050919050565b612f4481612d0c565b8114612f4f57600080fd5b50565b612f5b81612d1e565b8114612f6657600080fd5b50565b612f7281612d2a565b8114612f7d57600080fd5b50565b612f8981612d76565b8114612f9457600080fd5b5056fea2646970667358221220e3c415311ad5078d484c31fc55f5427cbe8bd4f1dd512a876f9808c56cb3b51864736f6c63430008000033",
  "immutableReferences": {},
  "source": "// SPDX-License-Identifier: MIT\n\npragma solidity ^0.8.0;\n\nimport \"../token/ERC721/extensions/ERC721URIStorage.sol\";\n\n/**\n * @title ERC721Mock\n * This mock just provides a public safeMint, mint, and burn functions for testing purposes\n */\ncontract ERC721URIStorageMock is ERC721URIStorage {\n    string private _baseTokenURI;\n\n    constructor (string memory name, string memory symbol) ERC721(name, symbol) { }\n\n    function _baseURI() internal view virtual override returns (string memory) {\n        return _baseTokenURI;\n    }\n\n    function setBaseURI(string calldata newBaseTokenURI) public {\n        _baseTokenURI = newBaseTokenURI;\n    }\n\n    function baseURI() public view returns (string memory) {\n        return _baseURI();\n    }\n\n    function setTokenURI(uint256 tokenId, string memory _tokenURI) public {\n        _setTokenURI(tokenId, _tokenURI);\n    }\n\n    function exists(uint256 tokenId) public view returns (bool) {\n        return _exists(tokenId);\n    }\n\n    function mint(address to, uint256 tokenId) public {\n        _mint(to, tokenId);\n    }\n\n    function safeMint(address to, uint256 tokenId) public {\n        _safeMint(to, tokenId);\n    }\n\n    function safeMint(address to, uint256 tokenId, bytes memory _data) public {\n        _safeMint(to, tokenId, _data);\n    }\n\n    function burn(uint256 tokenId) public {\n        _burn(tokenId);\n    }\n}\n",
  "sourcePath": "E:/work//czz//truffle/safebox/contracts/openzeppelin/contracts/mocks/ERC721URIStorageMock.sol",
  "compiler": {
    "name": "solc",
    "version": "0.8.0+commit.c7dfd78e.Emscripten.clang"
  },
  "schemaVersion": "3.2.3",
  "updatedAt": "2021-03-26T11:32:50.931Z",
  "devdoc": {
    "kind": "dev",
    "methods": {
      "approve(address,uint256)": {
        "details": "See {IERC721-approve}."
      },
      "balanceOf(address)": {
        "details": "See {IERC721-balanceOf}."
      },
      "getApproved(uint256)": {
        "details": "See {IERC721-getApproved}."
      },
      "isApprovedForAll(address,address)": {
        "details": "See {IERC721-isApprovedForAll}."
      },
      "name()": {
        "details": "See {IERC721Metadata-name}."
      },
      "ownerOf(uint256)": {
        "details": "See {IERC721-ownerOf}."
      },
      "safeTransferFrom(address,address,uint256)": {
        "details": "See {IERC721-safeTransferFrom}."
      },
      "safeTransferFrom(address,address,uint256,bytes)": {
        "details": "See {IERC721-safeTransferFrom}."
      },
      "setApprovalForAll(address,bool)": {
        "details": "See {IERC721-setApprovalForAll}."
      },
      "supportsInterface(bytes4)": {
        "details": "See {IERC165-supportsInterface}."
      },
      "symbol()": {
        "details": "See {IERC721Metadata-symbol}."
      },
      "tokenURI(uint256)": {
        "details": "See {IERC721Metadata-tokenURI}."
      },
      "transferFrom(address,address,uint256)": {
        "details": "See {IERC721-transferFrom}."
      }
    },
    "title": "ERC721Mock This mock just provides a public safeMint, mint, and burn functions for testing purposes",
    "version": 1
  },
  "userdoc": {
    "kind": "user",
    "methods": {},
    "version": 1
  }
}