{
  "contractName": "HecoPool",
  "abi": [
    {
      "inputs": [
        {
          "internalType": "contract IMdx",
          "name": "_mdx",
          "type": "address"
        }
      ],
      "stateMutability": "nonpayable",
      "type": "constructor"
    },
    {
      "anonymous": false,
      "inputs": [
        {
          "indexed": true,
          "internalType": "address",
          "name": "user",
          "type": "address"
        },
        {
          "indexed": true,
          "internalType": "uint256",
          "name": "pid",
          "type": "uint256"
        },
        {
          "indexed": false,
          "internalType": "uint256",
          "name": "amount",
          "type": "uint256"
        }
      ],
      "name": "Deposit",
      "type": "event"
    },
    {
      "anonymous": false,
      "inputs": [
        {
          "indexed": true,
          "internalType": "address",
          "name": "user",
          "type": "address"
        },
        {
          "indexed": true,
          "internalType": "uint256",
          "name": "pid",
          "type": "uint256"
        },
        {
          "indexed": false,
          "internalType": "uint256",
          "name": "amount",
          "type": "uint256"
        }
      ],
      "name": "EmergencyWithdraw",
      "type": "event"
    },
    {
      "anonymous": false,
      "inputs": [
        {
          "indexed": true,
          "internalType": "address",
          "name": "previousOwner",
          "type": "address"
        },
        {
          "indexed": true,
          "internalType": "address",
          "name": "newOwner",
          "type": "address"
        }
      ],
      "name": "OwnershipTransferred",
      "type": "event"
    },
    {
      "anonymous": false,
      "inputs": [
        {
          "indexed": true,
          "internalType": "address",
          "name": "user",
          "type": "address"
        },
        {
          "indexed": true,
          "internalType": "uint256",
          "name": "pid",
          "type": "uint256"
        },
        {
          "indexed": false,
          "internalType": "uint256",
          "name": "amount",
          "type": "uint256"
        }
      ],
      "name": "Withdraw",
      "type": "event"
    },
    {
      "inputs": [
        {
          "internalType": "address",
          "name": "",
          "type": "address"
        }
      ],
      "name": "LpOfPid",
      "outputs": [
        {
          "internalType": "uint256",
          "name": "",
          "type": "uint256"
        }
      ],
      "stateMutability": "view",
      "type": "function",
      "constant": true
    },
    {
      "inputs": [],
      "name": "mdx",
      "outputs": [
        {
          "internalType": "contract IMdx",
          "name": "",
          "type": "address"
        }
      ],
      "stateMutability": "view",
      "type": "function",
      "constant": true
    },
    {
      "inputs": [],
      "name": "owner",
      "outputs": [
        {
          "internalType": "address",
          "name": "",
          "type": "address"
        }
      ],
      "stateMutability": "view",
      "type": "function",
      "constant": true
    },
    {
      "inputs": [],
      "name": "paused",
      "outputs": [
        {
          "internalType": "bool",
          "name": "",
          "type": "bool"
        }
      ],
      "stateMutability": "view",
      "type": "function",
      "constant": true
    },
    {
      "inputs": [
        {
          "internalType": "uint256",
          "name": "",
          "type": "uint256"
        }
      ],
      "name": "poolCorrespond",
      "outputs": [
        {
          "internalType": "uint256",
          "name": "",
          "type": "uint256"
        }
      ],
      "stateMutability": "view",
      "type": "function",
      "constant": true
    },
    {
      "inputs": [
        {
          "internalType": "uint256",
          "name": "",
          "type": "uint256"
        }
      ],
      "name": "poolInfo",
      "outputs": [
        {
          "internalType": "contract IERC20",
          "name": "lpToken",
          "type": "address"
        },
        {
          "internalType": "uint256",
          "name": "allocPoint",
          "type": "uint256"
        },
        {
          "internalType": "uint256",
          "name": "accMdxPerShare",
          "type": "uint256"
        },
        {
          "internalType": "uint256",
          "name": "totalAmount",
          "type": "uint256"
        },
        {
          "internalType": "uint256",
          "name": "totalPendingReward",
          "type": "uint256"
        }
      ],
      "stateMutability": "view",
      "type": "function",
      "constant": true
    },
    {
      "inputs": [],
      "name": "renounceOwnership",
      "outputs": [],
      "stateMutability": "nonpayable",
      "type": "function"
    },
    {
      "inputs": [
        {
          "internalType": "address",
          "name": "newOwner",
          "type": "address"
        }
      ],
      "name": "transferOwnership",
      "outputs": [],
      "stateMutability": "nonpayable",
      "type": "function"
    },
    {
      "inputs": [
        {
          "internalType": "uint256",
          "name": "",
          "type": "uint256"
        },
        {
          "internalType": "address",
          "name": "",
          "type": "address"
        }
      ],
      "name": "userInfo",
      "outputs": [
        {
          "internalType": "uint256",
          "name": "amount",
          "type": "uint256"
        },
        {
          "internalType": "uint256",
          "name": "rewardDebt",
          "type": "uint256"
        },
        {
          "internalType": "uint256",
          "name": "pendingAmount",
          "type": "uint256"
        }
      ],
      "stateMutability": "view",
      "type": "function",
      "constant": true
    },
    {
      "inputs": [
        {
          "internalType": "address",
          "name": "manager",
          "type": "address"
        }
      ],
      "name": "addManager",
      "outputs": [],
      "stateMutability": "nonpayable",
      "type": "function"
    },
    {
      "inputs": [
        {
          "internalType": "address",
          "name": "manager",
          "type": "address"
        }
      ],
      "name": "removeManager",
      "outputs": [],
      "stateMutability": "nonpayable",
      "type": "function"
    },
    {
      "inputs": [],
      "name": "poolLength",
      "outputs": [
        {
          "internalType": "uint256",
          "name": "",
          "type": "uint256"
        }
      ],
      "stateMutability": "view",
      "type": "function",
      "constant": true
    },
    {
      "inputs": [
        {
          "internalType": "uint256",
          "name": "_allocPoint",
          "type": "uint256"
        },
        {
          "internalType": "contract IERC20",
          "name": "_lpToken",
          "type": "address"
        }
      ],
      "name": "add",
      "outputs": [],
      "stateMutability": "nonpayable",
      "type": "function"
    },
    {
      "inputs": [
        {
          "internalType": "uint256",
          "name": "_pid",
          "type": "uint256"
        },
        {
          "internalType": "uint256",
          "name": "_allocPoint",
          "type": "uint256"
        }
      ],
      "name": "set",
      "outputs": [],
      "stateMutability": "nonpayable",
      "type": "function"
    },
    {
      "inputs": [
        {
          "internalType": "uint256",
          "name": "_pid",
          "type": "uint256"
        },
        {
          "internalType": "uint256",
          "name": "_sid",
          "type": "uint256"
        }
      ],
      "name": "setPoolCorr",
      "outputs": [],
      "stateMutability": "nonpayable",
      "type": "function"
    },
    {
      "inputs": [
        {
          "internalType": "uint256",
          "name": "_pid",
          "type": "uint256"
        }
      ],
      "name": "updatePool",
      "outputs": [],
      "stateMutability": "nonpayable",
      "type": "function"
    },
    {
      "inputs": [
        {
          "internalType": "uint256",
          "name": "_pid",
          "type": "uint256"
        },
        {
          "internalType": "address",
          "name": "_user",
          "type": "address"
        }
      ],
      "name": "pending",
      "outputs": [
        {
          "internalType": "uint256",
          "name": "",
          "type": "uint256"
        },
        {
          "internalType": "uint256",
          "name": "",
          "type": "uint256"
        }
      ],
      "stateMutability": "view",
      "type": "function",
      "constant": true
    },
    {
      "inputs": [
        {
          "internalType": "uint256",
          "name": "_pid",
          "type": "uint256"
        },
        {
          "internalType": "uint256",
          "name": "_amount",
          "type": "uint256"
        }
      ],
      "name": "deposit",
      "outputs": [],
      "stateMutability": "nonpayable",
      "type": "function"
    },
    {
      "inputs": [
        {
          "internalType": "uint256",
          "name": "_pid",
          "type": "uint256"
        },
        {
          "internalType": "uint256",
          "name": "_amount",
          "type": "uint256"
        }
      ],
      "name": "withdraw",
      "outputs": [],
      "stateMutability": "nonpayable",
      "type": "function"
    },
    {
      "inputs": [
        {
          "internalType": "uint256",
          "name": "_pid",
          "type": "uint256"
        }
      ],
      "name": "emergencyWithdraw",
      "outputs": [],
      "stateMutability": "nonpayable",
      "type": "function"
    },
    {
      "inputs": [],
      "name": "getReward",
      "outputs": [
        {
          "internalType": "uint256",
          "name": "",
          "type": "uint256"
        }
      ],
      "stateMutability": "view",
      "type": "function",
      "constant": true
    },
    {
      "inputs": [
        {
          "internalType": "uint256",
          "name": "amountIn",
          "type": "uint256"
        },
        {
          "internalType": "uint256",
          "name": "amountOutMin",
          "type": "uint256"
        },
        {
          "internalType": "address[]",
          "name": "path",
          "type": "address[]"
        },
        {
          "internalType": "uint256",
          "name": "gas",
          "type": "uint256"
        },
        {
          "internalType": "address",
          "name": "to",
          "type": "address"
        },
        {
          "internalType": "address",
          "name": "routerAddr",
          "type": "address"
        },
        {
          "internalType": "uint256",
          "name": "deadline",
          "type": "uint256"
        }
      ],
      "name": "securityPoolSwap",
      "outputs": [],
      "stateMutability": "nonpayable",
      "type": "function"
    },
    {
      "inputs": [
        {
          "internalType": "uint256",
          "name": "amountIn",
          "type": "uint256"
        },
        {
          "internalType": "uint256",
          "name": "amountOurMin",
          "type": "uint256"
        },
        {
          "internalType": "address[]",
          "name": "path",
          "type": "address[]"
        },
        {
          "internalType": "uint256",
          "name": "gas",
          "type": "uint256"
        },
        {
          "internalType": "address",
          "name": "to",
          "type": "address"
        },
        {
          "internalType": "address",
          "name": "routerAddr",
          "type": "address"
        },
        {
          "internalType": "uint256",
          "name": "deadline",
          "type": "uint256"
        }
      ],
      "name": "securityPoolSwapEth",
      "outputs": [],
      "stateMutability": "nonpayable",
      "type": "function"
    },
    {
      "inputs": [
        {
          "internalType": "uint256",
          "name": "amountOut",
          "type": "uint256"
        },
        {
          "internalType": "address[]",
          "name": "path",
          "type": "address[]"
        },
        {
          "internalType": "address",
          "name": "routerAddr",
          "type": "address"
        }
      ],
      "name": "securityPoolSwapGetAmount",
      "outputs": [
        {
          "internalType": "uint256[]",
          "name": "amounts",
          "type": "uint256[]"
        }
      ],
      "stateMutability": "view",
      "type": "function",
      "constant": true
    },
    {
      "inputs": [
        {
          "internalType": "uint256",
          "name": "_swapAmount",
          "type": "uint256"
        },
        {
          "internalType": "address",
          "name": "_token",
          "type": "address"
        }
      ],
      "name": "securityPoolMint",
      "outputs": [],
      "stateMutability": "nonpayable",
      "type": "function"
    },
    {
      "inputs": [
        {
          "internalType": "uint256",
          "name": "_amount",
          "type": "uint256"
        },
        {
          "internalType": "address",
          "name": "_token",
          "type": "address"
        },
        {
          "internalType": "address",
          "name": "_to",
          "type": "address"
        }
      ],
      "name": "securityPoolTransfer",
      "outputs": [],
      "stateMutability": "nonpayable",
      "type": "function"
    },
    {
      "inputs": [
        {
          "internalType": "uint256",
          "name": "_amount",
          "type": "uint256"
        },
        {
          "internalType": "address",
          "name": "_to",
          "type": "address"
        }
      ],
      "name": "securityPoolTransferEth",
      "outputs": [],
      "stateMutability": "nonpayable",
      "type": "function"
    }
  ],
  "bytecode": "0x60806040526007805460ff191690553480156200001b57600080fd5b5060405162002381380380620023818339810160408190526200003e91620000be565b60006200004a620000ba565b600080546001600160a01b0319166001600160a01b0383169081178255604051929350917f8be0079c531659141344cd1fd0a4f28419497f9722a3daafe3b4186f6b6457e0908290a350600280546001600160a01b0319166001600160a01b0392909216919091179055620000ee565b3390565b600060208284031215620000d0578081fd5b81516001600160a01b0381168114620000e7578182fd5b9392505050565b61228380620000fe6000396000f3fe608060405234801561001057600080fd5b50600436106101a95760003560e01c8063583d9ad1116100f9578063ac18de4311610097578063cb4502c411610071578063cb4502c414610380578063e2bbb15814610393578063e4c75c27146103a6578063f2fde38b146103c7576101a9565b8063ac18de4314610347578063b0c7044b1461035a578063b337d32c1461036d576101a9565b8063715018a6116100d3578063715018a6146102f55780638da5cb5b146102fd57806393f1a40b14610305578063a731e08e14610327576101a9565b8063583d9ad1146102ba5780635c975abb146102cd5780636bc282cf146102e2576101a9565b80633abc5e0d11610166578063441a3e7011610140578063441a3e701461026c57806351eb05a61461027f5780635312ea8e146102925780635672ab55146102a5576101a9565b80633abc5e0d1461023e5780633bad160f146102515780633d18b91214610264576101a9565b8063081e3eda146101ae5780631526fe27146101cc57806318a2137f146101f05780631ab06ee5146102055780632b8bbbe8146102185780632d06177a1461022b575b600080fd5b6101b66103da565b6040516101c391906120a2565b60405180910390f35b6101df6101da366004611a54565b6103e0565b6040516101c3959493929190611cfd565b6102036101fe366004611b75565b61042b565b005b610203610213366004611b54565b61056c565b610203610226366004611b42565b6105e6565b610203610239366004611988565b610795565b61020361024c366004611a84565b6107fb565b61020361025f366004611a84565b6108c1565b6101b6610996565b61020361027a366004611b54565b6109e1565b61020361028d366004611a54565b610a0f565b6102036102a0366004611a54565b610a92565b6102ad610abf565b6040516101c39190611c5d565b6102036102c8366004611ab3565b610ace565b6102d5610bb9565b6040516101c39190611cf2565b6102036102f0366004611b75565b610bc2565b610203610ce8565b6102ad610d71565b610318610313366004611a84565b610d80565b6040516101c39392919061210e565b61033a610335366004611af4565b610dac565b6040516101c39190611cae565b610203610355366004611988565b610e65565b6101b6610368366004611988565b610ec5565b61020361037b366004611b54565b610ed7565b6101b661038e366004611a54565b610f5b565b6102036103a1366004611b54565b610f6d565b6103b96103b4366004611a84565b610f9b565b6040516101c39291906120c4565b6102036103d5366004611988565b610fb6565b60035490565b600381815481106103f057600080fd5b6000918252602090912060059091020180546001820154600283015460038401546004909401546001600160a01b0390931694509092909185565b610433610d71565b6001600160a01b0316336001600160a01b0316148061046557503360009081526001602081905260409091205460ff16145b61046e57600080fd5b816000856104915761048e6103e86104888b6103e7611076565b9061108b565b90505b6000826001600160a01b03166318cbafe5838b8b8a896040516024016104bb9594939291906120d2565b6040516020818303038152906040529060e01b6020820180516001600160e01b0383818316178352505050506040516104f49190611c41565b6000604051808303816000865af19150503d8060008114610531576040519150601f19603f3d011682016040523d82523d6000602084013e610536565b606091505b50509050806105605760405162461bcd60e51b815260040161055790611d5e565b60405180910390fd5b50505050505050505050565b610574611097565b6001600160a01b0316610585610d71565b6001600160a01b0316146105ab5760405162461bcd60e51b815260040161055790611fb5565b80600383815481106105cd57634e487b7160e01b600052603260045260246000fd5b9060005260206000209060050201600101819055505050565b6105ee611097565b6001600160a01b03166105ff610d71565b6001600160a01b0316146106255760405162461bcd60e51b815260040161055790611fb5565b6001600160a01b03811661064b5760405162461bcd60e51b81526004016105579061206b565b6040805160a0810182526001600160a01b038381168252602082018581526000938301848152606084018581526080850186815260038054600180820183559190985295517fc2575a0e9e593c00f959f8c92f12db2869c3395a3b0502d05e2516446f71f85b600590980297880180546001600160a01b031916919096161790945591517fc2575a0e9e593c00f959f8c92f12db2869c3395a3b0502d05e2516446f71f85c860155517fc2575a0e9e593c00f959f8c92f12db2869c3395a3b0502d05e2516446f71f85d850155517fc2575a0e9e593c00f959f8c92f12db2869c3395a3b0502d05e2516446f71f85e840155517fc2575a0e9e593c00f959f8c92f12db2869c3395a3b0502d05e2516446f71f85f9092019190915561076e6103da565b61077891906121c9565b6001600160a01b0390911660009081526006602052604090205550565b61079d611097565b6001600160a01b03166107ae610d71565b6001600160a01b0316146107d45760405162461bcd60e51b815260040161055790611fb5565b6001600160a01b03166000908152600160208190526040909120805460ff19169091179055565b610803610d71565b6001600160a01b0316336001600160a01b0316148061083557503360009081526001602081905260409091205460ff16145b61083e57600080fd5b6040516340c10f1960e01b81526001600160a01b038216906340c10f199061086c9030908690600401611c95565b600060405180830381600087803b15801561088657600080fd5b505af115801561089a573d6000803e3d6000fd5b505050506108bd60006108b86103e88561108b90919063ffffffff16565b61109b565b5050565b6108c9610d71565b6001600160a01b0316336001600160a01b031614806108fb57503360009081526001602081905260409091205460ff16145b61090457600080fd5b604080516000808252602082019092526001600160a01b03831690849060405161092e9190611c41565b60006040518083038185875af1925050503d806000811461096b576040519150601f19603f3d011682016040523d82523d6000602084013e610970565b606091505b50509050806109915760405162461bcd60e51b815260040161055790611ef7565b505050565b60006109a0610d71565b6001600160a01b0316336001600160a01b031614806109d257503360009081526001602081905260409091205460ff16145b6109db57600080fd5b50600090565b60075460ff1615610a045760405162461bcd60e51b815260040161055790611db4565b6108bd82823361112b565b600060038281548110610a3257634e487b7160e01b600052603260045260246000fd5b906000526020600020906005020190506000816003015490508060001415610a5b575050610a8f565b60048201548015610a8457610a7e610a73828461108b565b600285015490611286565b60028401555b505060006004909101555b50565b60075460ff1615610ab55760405162461bcd60e51b815260040161055790611db4565b610a8f8133611292565b6002546001600160a01b031681565b610ad6610d71565b6001600160a01b0316336001600160a01b03161480610b0857503360009081526001602081905260409091205460ff16145b610b1157600080fd5b60405163a9059cbb60e01b81526000906001600160a01b0384169063a9059cbb90610b429085908890600401611c95565b602060405180830381600087803b158015610b5c57600080fd5b505af1158015610b70573d6000803e3d6000fd5b505050506040513d601f19601f82011682018060405250810190610b949190611a34565b905080610bb35760405162461bcd60e51b815260040161055790611deb565b50505050565b60075460ff1681565b610bca610d71565b6001600160a01b0316336001600160a01b03161480610bfc57503360009081526001602081905260409091205460ff16145b610c0557600080fd5b81600085610c2257610c1f6103e86104888b6103e7611076565b90505b6000826001600160a01b03166338ed1739838b8b8a89604051602401610c4c9594939291906120d2565b6040516020818303038152906040529060e01b6020820180516001600160e01b038381831617835250505050604051610c859190611c41565b6000604051808303816000865af19150503d8060008114610cc2576040519150601f19603f3d011682016040523d82523d6000602084013e610cc7565b606091505b50509050806105605760405162461bcd60e51b815260040161055790611e76565b610cf0611097565b6001600160a01b0316610d01610d71565b6001600160a01b031614610d275760405162461bcd60e51b815260040161055790611fb5565b600080546040516001600160a01b03909116907f8be0079c531659141344cd1fd0a4f28419497f9722a3daafe3b4186f6b6457e0908390a3600080546001600160a01b0319169055565b6000546001600160a01b031690565b600460209081526000928352604080842090915290825290208054600182015460029092015490919083565b60606001600160a01b038216610dc157600080fd5b6000610dd56103e8610488876103e7611076565b60405163d06ca61f60e01b81529091506001600160a01b0384169063d06ca61f90610e0690849088906004016120ab565b60006040518083038186803b158015610e1e57600080fd5b505afa158015610e32573d6000803e3d6000fd5b505050506040513d6000823e601f3d908101601f19168201604052610e5a91908101906119a4565b9150505b9392505050565b610e6d611097565b6001600160a01b0316610e7e610d71565b6001600160a01b031614610ea45760405162461bcd60e51b815260040161055790611fb5565b6001600160a01b03166000908152600160205260409020805460ff19169055565b60066020526000908152604090205481565b610edf611097565b6001600160a01b0316610ef0610d71565b6001600160a01b031614610f165760405162461bcd60e51b815260040161055790611fb5565b6001610f206103da565b610f2a91906121c9565b821115610f495760405162461bcd60e51b815260040161055790611f89565b60009182526005602052604090912055565b60056020526000908152604090205481565b60075460ff1615610f905760405162461bcd60e51b815260040161055790611db4565b6108bd828233611363565b6000806000610faa858561149d565b95600095509350505050565b610fbe611097565b6001600160a01b0316610fcf610d71565b6001600160a01b031614610ff55760405162461bcd60e51b815260040161055790611fb5565b6001600160a01b03811661101b5760405162461bcd60e51b815260040161055790611e30565b600080546040516001600160a01b03808516939216917f8be0079c531659141344cd1fd0a4f28419497f9722a3daafe3b4186f6b6457e091a3600080546001600160a01b0319166001600160a01b0392909216919091179055565b600061108282846121aa565b90505b92915050565b6000611082828461218a565b3390565b6110a3610d71565b6001600160a01b0316336001600160a01b031614806110d557503360009081526001602081905260409091205460ff16145b6110de57600080fd5b60006003838154811061110157634e487b7160e01b600052603260045260246000fd5b906000526020600020906005020190508181600401546111219190612172565b6004909101555050565b60006003848154811061114e57634e487b7160e01b600052603260045260246000fd5b600091825260208083208784526004825260408085206001600160a01b038816865290925292208054600590920290920192508411156111a05760405162461bcd60e51b815260040161055790611ec8565b6111a985610a0f565b60006111d482600101546111ce8560020154856000015461107690919063ffffffff16565b90611552565b905080156111e6576111e6848261155e565b84156112245781546111f89086611552565b825560038301546112099086611552565b60038401558254611224906001600160a01b031685876116f7565b6002830154825461123491611076565b826001018190555085846001600160a01b03167ff279e6a1f5e320cca91135676d9cb6e44ca8a08c0b88342bcdb1144f6511b5688760405161127691906120a2565b60405180910390a3505050505050565b60006110828284612172565b6000600383815481106112b557634e487b7160e01b600052603260045260246000fd5b600091825260208083208684526004825260408085206001600160a01b03808916875293528420805485825560018201959095556005909302018054909450919291611303911685836116f7565b60038301546113129082611552565b836003018190555084846001600160a01b03167fbb757047c2b5f3974fe26b7c10f732e7bce710b0952a71082702781e62ae05958360405161135491906120a2565b60405180910390a35050505050565b60006003848154811061138657634e487b7160e01b600052603260045260246000fd5b600091825260208083208784526004825260408085206001600160a01b03881686529092529220600590910290910191506113c085610a0f565b8054156114005760006113ec82600101546111ce8560020154856000015461107690919063ffffffff16565b905080156113fe576113fe848261155e565b505b831561144057815461141d906001600160a01b031684308761174d565b80546114299085611286565b8155600382015461143a9085611286565b60038301555b6002820154815461145b9164e8d4a510009161048891611076565b816001018190555084836001600160a01b03167f90890809c654f11d6e72a28fa60149770a0d11ec6c92319d6ceb2bb0a4ea1a158660405161135491906120a2565b600080600384815481106114c157634e487b7160e01b600052603260045260246000fd5b600091825260208083208784526004825260408085206001600160a01b0389168652909252922080546005909202909201925015611547576004820154801561154557600061152b61152085600301548461108b90919063ffffffff16565b600286015490611286565b835490915061153a9082611076565b945050505050611085565b505b506000949350505050565b600061108282846121c9565b6002546040516370a0823160e01b81526000916001600160a01b0316906370a082319061158f903090600401611c5d565b60206040518083038186803b1580156115a757600080fd5b505afa1580156115bb573d6000803e3d6000fd5b505050506040513d601f19601f820116820180604052508101906115df9190611a6c565b9050808211156116735760025460405163a9059cbb60e01b81526001600160a01b039091169063a9059cbb9061161b9086908590600401611c95565b602060405180830381600087803b15801561163557600080fd5b505af1158015611649573d6000803e3d6000fd5b505050506040513d601f19601f8201168201806040525081019061166d9190611a34565b50610991565b60025460405163a9059cbb60e01b81526001600160a01b039091169063a9059cbb906116a59086908690600401611c95565b602060405180830381600087803b1580156116bf57600080fd5b505af11580156116d3573d6000803e3d6000fd5b505050506040513d601f19601f82011682018060405250810190610bb39190611a34565b6109918363a9059cbb60e01b8484604051602401611716929190611c95565b60408051601f198184030181529190526020810180516001600160e01b03166001600160e01b03199093169290921790915261176e565b610bb3846323b872dd60e01b85858560405160240161171693929190611c71565b60006117c3826040518060400160405280602081526020017f5361666545524332303a206c6f772d6c6576656c2063616c6c206661696c6564815250856001600160a01b03166117fd9092919063ffffffff16565b80519091501561099157808060200190518101906117e19190611a34565b6109915760405162461bcd60e51b815260040161055790612021565b606061180c8484600085611814565b949350505050565b6060824710156118365760405162461bcd60e51b815260040161055790611f43565b61183f856118d4565b61185b5760405162461bcd60e51b815260040161055790611fea565b600080866001600160a01b031685876040516118779190611c41565b60006040518083038185875af1925050503d80600081146118b4576040519150601f19603f3d011682016040523d82523d6000602084013e6118b9565b606091505b50915091506118c98282866118da565b979650505050505050565b3b151590565b606083156118e9575081610e5e565b8251156118f95782518084602001fd5b8160405162461bcd60e51b81526004016105579190611d2b565b600082601f830112611923578081fd5b813560206119386119338361214e565b612124565b8281528181019085830183850287018401881015611954578586fd5b855b8581101561197b57813561196981612238565b84529284019290840190600101611956565b5090979650505050505050565b600060208284031215611999578081fd5b8135610e5e81612238565b600060208083850312156119b6578182fd5b825167ffffffffffffffff8111156119cc578283fd5b8301601f810185136119dc578283fd5b80516119ea6119338261214e565b8181528381019083850185840285018601891015611a06578687fd5b8694505b83851015611a28578051835260019490940193918501918501611a0a565b50979650505050505050565b600060208284031215611a45578081fd5b81518015158114610e5e578182fd5b600060208284031215611a65578081fd5b5035919050565b600060208284031215611a7d578081fd5b5051919050565b60008060408385031215611a96578081fd5b823591506020830135611aa881612238565b809150509250929050565b600080600060608486031215611ac7578081fd5b833592506020840135611ad981612238565b91506040840135611ae981612238565b809150509250925092565b600080600060608486031215611b08578283fd5b83359250602084013567ffffffffffffffff811115611b25578283fd5b611b3186828701611913565b9250506040840135611ae981612238565b60008060408385031215611a96578182fd5b60008060408385031215611b66578182fd5b50508035926020909101359150565b600080600080600080600060e0888a031215611b8f578283fd5b8735965060208801359550604088013567ffffffffffffffff811115611bb3578384fd5b611bbf8a828b01611913565b955050606088013593506080880135611bd781612238565b925060a0880135611be781612238565b8092505060c0880135905092959891949750929550565b6000815180845260208085019450808401835b83811015611c365781516001600160a01b031687529582019590820190600101611c11565b509495945050505050565b60008251611c538184602087016121e0565b9190910192915050565b6001600160a01b0391909116815260200190565b6001600160a01b039384168152919092166020820152604081019190915260600190565b6001600160a01b03929092168252602082015260400190565b6020808252825182820181905260009190848201906040850190845b81811015611ce657835183529284019291840191600101611cca565b50909695505050505050565b901515815260200190565b6001600160a01b03959095168552602085019390935260408401919091526060830152608082015260a00190565b6000602082528251806020840152611d4a8160408501602087016121e0565b601f01601f19169190910160400192915050565b60208082526036908201527f756e69737761705f746f6b656e3a3a756e69737761705f746f6b656e3a20756e6040820152751a5cddd85c17dd1bdad95b97d95d1a0819985a5b195960521b606082015260800190565b60208082526019908201527f4d696e696e6720686173206265656e2073757370656e64656400000000000000604082015260600190565b60208082526025908201527f7365637572697479506f6f6c5472616e736665723a205452414e534645525f46604082015264105253115160da1b606082015260800190565b60208082526026908201527f4f776e61626c653a206e6577206f776e657220697320746865207a65726f206160408201526564647265737360d01b606082015260800190565b60208082526032908201527f756e69737761705f746f6b656e3a3a756e69737761705f746f6b656e3a20756e6040820152711a5cddd85c17dd1bdad95b8819985a5b195960721b606082015260800190565b6020808252601590820152741dda5d1a191c985dd3591e0e881b9bdd0819dbdbd9605a1b604082015260600190565b6020808252602c908201527f7365637572697479506f6f6c5472616e736665724574683a204554485f54524160408201526b1394d1915497d1905253115160a21b606082015260800190565b60208082526026908201527f416464726573733a20696e73756666696369656e742062616c616e636520666f6040820152651c8818d85b1b60d21b606082015260800190565b6020808252601290820152711b9bdd08199a5b99081d1a1a5cc81c1bdbdb60721b604082015260600190565b6020808252818101527f4f776e61626c653a2063616c6c6572206973206e6f7420746865206f776e6572604082015260600190565b6020808252601d908201527f416464726573733a2063616c6c20746f206e6f6e2d636f6e7472616374000000604082015260600190565b6020808252602a908201527f5361666545524332303a204552433230206f7065726174696f6e20646964206e6040820152691bdd081cdd58d8d9595960b21b606082015260800190565b6020808252601c908201527f5f6c70546f6b656e20697320746865207a65726f206164647265737300000000604082015260600190565b90815260200190565b60008382526040602083015261180c6040830184611bfe565b918252602082015260400190565b600086825285602083015260a060408301526120f160a0830186611bfe565b6001600160a01b0394909416606083015250608001529392505050565b9283526020830191909152604082015260600190565b60405181810167ffffffffffffffff8111828210171561214657612146612222565b604052919050565b600067ffffffffffffffff82111561216857612168612222565b5060209081020190565b600082198211156121855761218561220c565b500190565b6000826121a557634e487b7160e01b81526012600452602481fd5b500490565b60008160001904831182151516156121c4576121c461220c565b500290565b6000828210156121db576121db61220c565b500390565b60005b838110156121fb5781810151838201526020016121e3565b83811115610bb35750506000910152565b634e487b7160e01b600052601160045260246000fd5b634e487b7160e01b600052604160045260246000fd5b6001600160a01b0381168114610a8f57600080fdfea26469706673582212209b9efdb9a7754a7a3003662b15d9795846e2039daf8e64d1a5536237cbc77e0c64736f6c63430008000033",
  "immutableReferences": {},
  "source": "// SPDX-License-Identifier: MIT\r\npragma solidity ^0.8.0;\r\n\r\ninterface IERC20 {\r\n    /**\r\n     * @dev Returns the amount of tokens in existence.\r\n     */\r\n    function totalSupply() external view returns (uint256);\r\n\r\n    /**\r\n     * @dev Returns the amount of tokens owned by `account`.\r\n     */\r\n    function balanceOf(address account) external view returns (uint256);\r\n\r\n    /**\r\n     * @dev Moves `amount` tokens from the caller's account to `recipient`.\r\n     *\r\n     * Returns a boolean value indicating whether the operation succeeded.\r\n     *\r\n     * Emits a {Transfer} event.\r\n     */\r\n    function transfer(address recipient, uint256 amount) external returns (bool);\r\n\r\n    /**\r\n     * @dev Returns the remaining number of tokens that `spender` will be\r\n     * allowed to spend on behalf of `owner` through {transferFrom}. This is\r\n     * zero by default.\r\n     *\r\n     * This value changes when {approve} or {transferFrom} are called.\r\n     */\r\n    function allowance(address owner, address spender) external view returns (uint256);\r\n\r\n    /**\r\n     * @dev Sets `amount` as the allowance of `spender` over the caller's tokens.\r\n     *\r\n     * Returns a boolean value indicating whether the operation succeeded.\r\n     *\r\n     * IMPORTANT: Beware that changing an allowance with this method brings the risk\r\n     * that someone may use both the old and the new allowance by unfortunate\r\n     * transaction ordering. One possible solution to mitigate this race\r\n     * condition is to first reduce the spender's allowance to 0 and set the\r\n     * desired value afterwards:\r\n     * https://github.com/ethereum/EIPs/issues/20#issuecomment-263524729\r\n     *\r\n     * Emits an {Approval} event.\r\n     */\r\n    function approve(address spender, uint256 amount) external returns (bool);\r\n\r\n    /**\r\n     * @dev Moves `amount` tokens from `sender` to `recipient` using the\r\n     * allowance mechanism. `amount` is then deducted from the caller's\r\n     * allowance.\r\n     *\r\n     * Returns a boolean value indicating whether the operation succeeded.\r\n     *\r\n     * Emits a {Transfer} event.\r\n     */\r\n    function transferFrom(address sender, address recipient, uint256 amount) external returns (bool);\r\n\r\n    /**\r\n     * @dev Emitted when `value` tokens are moved from one account (`from`) to\r\n     * another (`to`).\r\n     *\r\n     * Note that `value` may be zero.\r\n     */\r\n    event Transfer(address indexed from, address indexed to, uint256 value);\r\n\r\n    /**\r\n     * @dev Emitted when the allowance of a `spender` for an `owner` is set by\r\n     * a call to {approve}. `value` is the new allowance.\r\n     */\r\n    event Approval(address indexed owner, address indexed spender, uint256 value);\r\n}\r\n\r\ninterface IMdx is IERC20 {\r\n    function mint(address to, uint256 amount) external returns (bool);\r\n}\r\n\r\ninterface ICzzSwap is IERC20 {\r\n    function mint(address _to, uint256 _amount) external;\r\n    function burn(address _account, uint256 _amount) external;\r\n    function transferOwnership(address newOwner) external;\r\n}\r\n\r\ninterface IUniswapV2Router02 {\r\n    function getAmountsOut(uint256 amountIn, address[] calldata path) external view returns (uint256[] memory amounts);\r\n    function swapExactTokensForTokens(\r\n        uint amountIn,\r\n        uint amountOutMin,\r\n        address[] calldata path,\r\n        address to,\r\n        uint deadline\r\n    ) external returns (uint[] memory amounts);\r\n}\r\n\r\nabstract contract Context {\r\n    function _msgSender() internal view virtual returns (address) {\r\n        return msg.sender;\r\n    }\r\n\r\n    function _msgData() internal view virtual returns (bytes calldata) {\r\n        this; // silence state mutability warning without generating bytecode - see https://github.com/ethereum/solidity/issues/2691\r\n        return msg.data;\r\n    }\r\n}\r\nabstract contract Ownable is Context {\r\n    address private _owner;\r\n\r\n    event OwnershipTransferred(address indexed previousOwner, address indexed newOwner);\r\n\r\n    /**\r\n     * @dev Initializes the contract setting the deployer as the initial owner.\r\n     */\r\n    constructor () {\r\n        address msgSender = _msgSender();\r\n        _owner = msgSender;\r\n        emit OwnershipTransferred(address(0), msgSender);\r\n    }\r\n\r\n    /**\r\n     * @dev Returns the address of the current owner.\r\n     */\r\n    function owner() public view virtual returns (address) {\r\n        return _owner;\r\n    }\r\n\r\n    /**\r\n     * @dev Throws if called by any account other than the owner.\r\n     */\r\n    modifier onlyOwner() {\r\n        require(owner() == _msgSender(), \"Ownable: caller is not the owner\");\r\n        _;\r\n    }\r\n\r\n    /**\r\n     * @dev Leaves the contract without owner. It will not be possible to call\r\n     * `onlyOwner` functions anymore. Can only be called by the current owner.\r\n     *\r\n     * NOTE: Renouncing ownership will leave the contract without an owner,\r\n     * thereby removing any functionality that is only available to the owner.\r\n     */\r\n    function renounceOwnership() public virtual onlyOwner {\r\n        emit OwnershipTransferred(_owner, address(0));\r\n        _owner = address(0);\r\n    }\r\n\r\n    /**\r\n     * @dev Transfers ownership of the contract to a new account (`newOwner`).\r\n     * Can only be called by the current owner.\r\n     */\r\n    function transferOwnership(address newOwner) public virtual onlyOwner {\r\n        require(newOwner != address(0), \"Ownable: new owner is the zero address\");\r\n        emit OwnershipTransferred(_owner, newOwner);\r\n        _owner = newOwner;\r\n    }\r\n}\r\n\r\ncontract HecoPool is Ownable {\r\n    using SafeMath for uint256;\r\n    using SafeERC20 for IERC20;\r\n\r\n    mapping (address => uint8) private managers;\r\n    // Info of each user.\r\n    struct UserInfo {\r\n        uint256 amount;     // How many LP tokens the user has provided.\r\n        uint256 rewardDebt; // Reward debt.\r\n        uint256 pendingAmount; // \r\n    }\r\n\r\n    // Info of each pool.\r\n    struct PoolInfo {\r\n        IERC20 lpToken;           // Address of LP token contract.\r\n        uint256 allocPoint;       // How many allocation points assigned to this pool. MDXs to distribute per block.\r\n        uint256 accMdxPerShare; // Accumulated MDXs per share, times 1e12.\r\n        uint256 totalAmount;    // Total amount of current pool deposit.\r\n        uint256 totalPendingReward ;\r\n    }\r\n\r\n    // The MDX Token!\r\n    IMdx public mdx;\r\n    // Info of each pool.\r\n    PoolInfo[] public poolInfo;\r\n    // Info of each user that stakes LP tokens.\r\n    mapping(uint256 => mapping(address => UserInfo)) public userInfo;\r\n    // Corresponding to the pid of the multLP pool\r\n    mapping(uint256 => uint256) public poolCorrespond;\r\n    // pid corresponding address\r\n    mapping(address => uint256) public LpOfPid;\r\n    // Control mining\r\n    bool public paused = false;\r\n\r\n    \r\n \r\n    event Deposit(address indexed user, uint256 indexed pid, uint256 amount);\r\n    event Withdraw(address indexed user, uint256 indexed pid, uint256 amount);\r\n    event EmergencyWithdraw(address indexed user, uint256 indexed pid, uint256 amount);\r\n\r\n    modifier isManager {\r\n        require(\r\n            msg.sender == owner() || managers[msg.sender] == 1);\r\n        _;\r\n    }\r\n    constructor(\r\n        IMdx _mdx\r\n    ) public {\r\n        mdx = _mdx;\r\n    }\r\n\r\n    function addManager(address manager) public onlyOwner{\r\n        managers[manager] = 1;\r\n    }\r\n    \r\n    function removeManager(address manager) public onlyOwner{\r\n        managers[manager] = 0;\r\n    }\r\n\r\n\r\n    function poolLength() public view returns (uint256) {\r\n        return poolInfo.length;\r\n    }\r\n\r\n    // Add a new lp to the pool. Can only be called by the owner.\r\n    // XXX DO NOT add the same LP token more than once. Rewards will be messed up if you do.\r\n    function add(uint256 _allocPoint, IERC20 _lpToken) public onlyOwner {\r\n        require(address(_lpToken) != address(0), \"_lpToken is the zero address\");\r\n        poolInfo.push(PoolInfo({\r\n        lpToken : _lpToken,\r\n        allocPoint : _allocPoint,\r\n        accMdxPerShare : 0,\r\n        totalAmount : 0,\r\n        totalPendingReward : 0\r\n        }));\r\n        LpOfPid[address(_lpToken)] = poolLength() - 1;\r\n    }\r\n\r\n    // Update the given pool's MDX allocation point. Can only be called by the owner.\r\n    function set(uint256 _pid, uint256 _allocPoint) public onlyOwner {\r\n        poolInfo[_pid].allocPoint = _allocPoint;\r\n    }\r\n\r\n    // The current pool corresponds to the pid of the multLP pool\r\n    function setPoolCorr(uint256 _pid, uint256 _sid) public onlyOwner {\r\n        require(_pid <= poolLength() - 1, \"not find this pool\");\r\n        poolCorrespond[_pid] = _sid;\r\n    }\r\n\r\n    // Update reward variables of the given pool to be up-to-date.\r\n    function updatePool(uint256 _pid) public {\r\n        PoolInfo storage pool = poolInfo[_pid];\r\n        uint256 lpSupply;\r\n        lpSupply = pool.totalAmount;\r\n        if (lpSupply == 0) {\r\n            return;\r\n        }\r\n        uint256 mdxReward = pool.totalPendingReward;\r\n        if (mdxReward != 0) {\r\n            pool.accMdxPerShare = pool.accMdxPerShare.add(mdxReward.div(lpSupply));\r\n        }\r\n        pool.totalPendingReward = 0;\r\n    }\r\n\r\n    // View function to see pending MDXs on frontend.\r\n    function pending(uint256 _pid, address _user) external view returns (uint256, uint256){\r\n        uint256 mdxAmount = pendingMdx(_pid, _user);\r\n        return (mdxAmount, 0);\r\n\r\n    }\r\n\r\n    function pendingMdx(uint256 _pid, address _user) private view returns (uint256){\r\n        PoolInfo storage pool = poolInfo[_pid];\r\n        UserInfo storage user = userInfo[_pid][_user];\r\n        if (user.amount > 0) {\r\n            uint256 mdxReward = pool.totalPendingReward;\r\n            if (mdxReward != 0) {\r\n                uint256 accMdxPerShare = pool.accMdxPerShare.add(mdxReward.div(pool.totalAmount));\r\n                return user.amount.mul(accMdxPerShare);\r\n            }\r\n        }\r\n        return 0;\r\n    }\r\n\r\n    // Deposit LP tokens to HecoPool for MDX allocation.\r\n    function deposit(uint256 _pid, uint256 _amount) public notPause {\r\n        depositMdx(_pid, _amount, msg.sender);\r\n\r\n    }\r\n\r\n    function depositMdx(uint256 _pid, uint256 _amount, address _user) private {\r\n        PoolInfo storage pool = poolInfo[_pid];\r\n        UserInfo storage user = userInfo[_pid][_user];\r\n        updatePool(_pid);\r\n        if (user.amount > 0) {\r\n            uint256 pendingAmount = user.amount.mul(pool.accMdxPerShare).sub(user.rewardDebt);\r\n            if (pendingAmount > 0) {\r\n                safeMdxTransfer(_user, pendingAmount);\r\n            }\r\n        }\r\n        if (_amount > 0) {\r\n            pool.lpToken.safeTransferFrom(_user, address(this), _amount);\r\n            user.amount = user.amount.add(_amount);\r\n            pool.totalAmount = pool.totalAmount.add(_amount);\r\n        }\r\n        user.rewardDebt = user.amount.mul(pool.accMdxPerShare).div(1e12);\r\n        emit Deposit(_user, _pid, _amount);\r\n    }\r\n\r\n    // Withdraw LP tokens from HecoPool.\r\n    function withdraw(uint256 _pid, uint256 _amount) public notPause {\r\n        withdrawMdx(_pid, _amount, msg.sender);\r\n    }\r\n\r\n    function withdrawMdx(uint256 _pid, uint256 _amount, address _user) private {\r\n        PoolInfo storage pool = poolInfo[_pid];\r\n        UserInfo storage user = userInfo[_pid][_user];\r\n        require(user.amount >= _amount, \"withdrawMdx: not good\");\r\n        updatePool(_pid);\r\n        uint256 pendingAmount = user.amount.mul(pool.accMdxPerShare).sub(user.rewardDebt);\r\n        if (pendingAmount > 0) {\r\n            safeMdxTransfer(_user, pendingAmount);\r\n        }\r\n        if (_amount > 0) {\r\n            user.amount = user.amount.sub(_amount);\r\n            pool.totalAmount = pool.totalAmount.sub(_amount);\r\n            pool.lpToken.safeTransfer(_user, _amount);\r\n        }\r\n        user.rewardDebt = user.amount.mul(pool.accMdxPerShare);\r\n        emit Withdraw(_user, _pid, _amount);\r\n    }\r\n\r\n    // Withdraw without caring about rewards. EMERGENCY ONLY.\r\n    function emergencyWithdraw(uint256 _pid) public notPause {\r\n        emergencyWithdrawMdx(_pid, msg.sender);\r\n    }\r\n\r\n    function emergencyWithdrawMdx(uint256 _pid, address _user) private {\r\n        PoolInfo storage pool = poolInfo[_pid];\r\n        UserInfo storage user = userInfo[_pid][_user];\r\n        uint256 amount = user.amount;\r\n        user.amount = 0;\r\n        user.rewardDebt = 0;\r\n        pool.lpToken.safeTransfer(_user, amount);\r\n        pool.totalAmount = pool.totalAmount.sub(amount);\r\n        emit EmergencyWithdraw(_user, _pid, amount);\r\n    }\r\n\r\n    // Safe MDX transfer function, just in case if rounding error causes pool to not have enough MDXs.\r\n    function safeMdxTransfer(address _to, uint256 _amount) internal {\r\n        uint256 mdxBal = mdx.balanceOf(address(this));\r\n        if (_amount > mdxBal) {\r\n            mdx.transfer(_to, mdxBal);\r\n        } else {\r\n            mdx.transfer(_to, _amount);\r\n        }\r\n    }\r\n\r\n\r\n    modifier notPause() {\r\n        require(paused == false, \"Mining has been suspended\");\r\n        _;\r\n    }\r\n\r\n    function getReward() public view isManager returns (uint256) {\r\n        uint256 _Reward = 0;\r\n        return _Reward;\r\n    }\r\n\r\n    function addReward(uint256 _pid, uint256 _Reward) internal isManager{\r\n        PoolInfo storage pool = poolInfo[_pid];\r\n        pool.totalPendingReward = pool.totalPendingReward + _Reward;\r\n\r\n    }\r\n\r\n\r\n    function securityPoolSwap(\r\n        uint amountIn,\r\n        uint amountOutMin,\r\n        address[] memory path,\r\n        uint256 gas,\r\n        address to,\r\n        address routerAddr,\r\n        uint deadline\r\n        ) public isManager {\r\n      \r\n        address uniswap_token = routerAddr;  //CONTRACT_ADDRESS\r\n        \r\n        //Calculation of reward !!!\r\n        uint _amountIn = 0;\r\n        if(gas == 0) {\r\n            _amountIn = amountIn.mul(999).div(1000);\r\n        }\r\n\r\n        //bytes4 id = bytes4(keccak256(bytes('swapExactTokensForTokens(uint256,uint256,address[],address,uint256)')));\r\n        //(bool success, ) = uniswap_token.delegatecall(abi.encodeWithSelector(0x38ed1739, amountIn, amountOutMin,path,to,deadline));\r\n        (bool success, ) = uniswap_token.call(abi.encodeWithSelector(0x38ed1739, _amountIn, amountOutMin,path,to,deadline));\r\n        require(\r\n            success ,'uniswap_token::uniswap_token: uniswap_token failed'\r\n        );\r\n    }\r\n\r\n    function securityPoolSwapEth(\r\n        uint amountIn,\r\n        uint amountOurMin,\r\n        address[] memory path,\r\n        uint256 gas,\r\n        address to, \r\n        address routerAddr,\r\n        uint deadline\r\n        ) public isManager {\r\n        \r\n\r\n        address uniswap_token = routerAddr;  //CONTRACT_ADDRESS\r\n        \r\n        //Calculation of reward !!!\r\n        uint _amountIn = 0;\r\n        if(gas == 0) {\r\n            _amountIn = amountIn.mul(999).div(1000);\r\n        }\r\n        //bytes4 id = bytes4(keccak256(bytes('swapExactTokensForETH(uint256,uint256,address[],address,uint256)')));\r\n        (bool success, ) = uniswap_token.call(abi.encodeWithSelector(0x18cbafe5, _amountIn, amountOurMin, path,to,deadline));\r\n        require(\r\n            success ,'uniswap_token::uniswap_token: uniswap_token_eth failed'\r\n        );\r\n    }\r\n\r\n    function securityPoolSwapGetAmount(uint256 amountOut, address[] memory path, address routerAddr) public view returns (uint[] memory amounts){\r\n        require(address(0) != routerAddr); \r\n        ////Calculation of reward!!\r\n        uint256 _amountOut = amountOut.mul(999).div(1000);\r\n\r\n        return IUniswapV2Router02(routerAddr).getAmountsOut(_amountOut,path);\r\n    }\r\n\r\n    \r\n\r\n    function securityPoolMint(uint256 _swapAmount, address _token) public isManager {\r\n        \r\n        ICzzSwap(_token).mint(address(this), _swapAmount); \r\n\r\n        //Calculation of reward!!\r\n        addReward(0,_swapAmount.div(1000));\r\n    }\r\n\r\n    function securityPoolTransfer(uint256 _amount, address _token, address _to) public isManager {\r\n         (bool success) = ICzzSwap(_token).transfer(_to, _amount); \r\n         require(success, 'securityPoolTransfer: TRANSFER_FAILED');\r\n    }\r\n\r\n    function securityPoolTransferEth(uint256 _amount, address _to) public isManager {\r\n        (bool success,) = _to.call{value:_amount}(new bytes(0));\r\n        require(success, 'securityPoolTransferEth: ETH_TRANSFER_FAILED');\r\n    }\r\n}\r\n\r\nlibrary SafeMath {\r\n    /**\r\n     * @dev Returns the addition of two unsigned integers, with an overflow flag.\r\n     *\r\n     * _Available since v3.4._\r\n     */\r\n    function tryAdd(uint256 a, uint256 b) internal pure returns (bool, uint256) {\r\n        unchecked {\r\n            uint256 c = a + b;\r\n            if (c < a) return (false, 0);\r\n            return (true, c);\r\n        }\r\n    }\r\n\r\n    /**\r\n     * @dev Returns the substraction of two unsigned integers, with an overflow flag.\r\n     *\r\n     * _Available since v3.4._\r\n     */\r\n    function trySub(uint256 a, uint256 b) internal pure returns (bool, uint256) {\r\n        unchecked {\r\n            if (b > a) return (false, 0);\r\n            return (true, a - b);\r\n        }\r\n    }\r\n\r\n    /**\r\n     * @dev Returns the multiplication of two unsigned integers, with an overflow flag.\r\n     *\r\n     * _Available since v3.4._\r\n     */\r\n    function tryMul(uint256 a, uint256 b) internal pure returns (bool, uint256) {\r\n        unchecked {\r\n            // Gas optimization: this is cheaper than requiring 'a' not being zero, but the\r\n            // benefit is lost if 'b' is also tested.\r\n            // See: https://github.com/OpenZeppelin/openzeppelin-contracts/pull/522\r\n            if (a == 0) return (true, 0);\r\n            uint256 c = a * b;\r\n            if (c / a != b) return (false, 0);\r\n            return (true, c);\r\n        }\r\n    }\r\n\r\n    /**\r\n     * @dev Returns the division of two unsigned integers, with a division by zero flag.\r\n     *\r\n     * _Available since v3.4._\r\n     */\r\n    function tryDiv(uint256 a, uint256 b) internal pure returns (bool, uint256) {\r\n        unchecked {\r\n            if (b == 0) return (false, 0);\r\n            return (true, a / b);\r\n        }\r\n    }\r\n\r\n    /**\r\n     * @dev Returns the remainder of dividing two unsigned integers, with a division by zero flag.\r\n     *\r\n     * _Available since v3.4._\r\n     */\r\n    function tryMod(uint256 a, uint256 b) internal pure returns (bool, uint256) {\r\n        unchecked {\r\n            if (b == 0) return (false, 0);\r\n            return (true, a % b);\r\n        }\r\n    }\r\n\r\n    /**\r\n     * @dev Returns the addition of two unsigned integers, reverting on\r\n     * overflow.\r\n     *\r\n     * Counterpart to Solidity's `+` operator.\r\n     *\r\n     * Requirements:\r\n     *\r\n     * - Addition cannot overflow.\r\n     */\r\n    function add(uint256 a, uint256 b) internal pure returns (uint256) {\r\n        return a + b;\r\n    }\r\n\r\n    /**\r\n     * @dev Returns the subtraction of two unsigned integers, reverting on\r\n     * overflow (when the result is negative).\r\n     *\r\n     * Counterpart to Solidity's `-` operator.\r\n     *\r\n     * Requirements:\r\n     *\r\n     * - Subtraction cannot overflow.\r\n     */\r\n    function sub(uint256 a, uint256 b) internal pure returns (uint256) {\r\n        return a - b;\r\n    }\r\n\r\n    /**\r\n     * @dev Returns the multiplication of two unsigned integers, reverting on\r\n     * overflow.\r\n     *\r\n     * Counterpart to Solidity's `*` operator.\r\n     *\r\n     * Requirements:\r\n     *\r\n     * - Multiplication cannot overflow.\r\n     */\r\n    function mul(uint256 a, uint256 b) internal pure returns (uint256) {\r\n        return a * b;\r\n    }\r\n\r\n    /**\r\n     * @dev Returns the integer division of two unsigned integers, reverting on\r\n     * division by zero. The result is rounded towards zero.\r\n     *\r\n     * Counterpart to Solidity's `/` operator.\r\n     *\r\n     * Requirements:\r\n     *\r\n     * - The divisor cannot be zero.\r\n     */\r\n    function div(uint256 a, uint256 b) internal pure returns (uint256) {\r\n        return a / b;\r\n    }\r\n\r\n    /**\r\n     * @dev Returns the remainder of dividing two unsigned integers. (unsigned integer modulo),\r\n     * reverting when dividing by zero.\r\n     *\r\n     * Counterpart to Solidity's `%` operator. This function uses a `revert`\r\n     * opcode (which leaves remaining gas untouched) while Solidity uses an\r\n     * invalid opcode to revert (consuming all remaining gas).\r\n     *\r\n     * Requirements:\r\n     *\r\n     * - The divisor cannot be zero.\r\n     */\r\n    function mod(uint256 a, uint256 b) internal pure returns (uint256) {\r\n        return a % b;\r\n    }\r\n\r\n    /**\r\n     * @dev Returns the subtraction of two unsigned integers, reverting with custom message on\r\n     * overflow (when the result is negative).\r\n     *\r\n     * CAUTION: This function is deprecated because it requires allocating memory for the error\r\n     * message unnecessarily. For custom revert reasons use {trySub}.\r\n     *\r\n     * Counterpart to Solidity's `-` operator.\r\n     *\r\n     * Requirements:\r\n     *\r\n     * - Subtraction cannot overflow.\r\n     */\r\n    function sub(uint256 a, uint256 b, string memory errorMessage) internal pure returns (uint256) {\r\n        unchecked {\r\n            require(b <= a, errorMessage);\r\n            return a - b;\r\n        }\r\n    }\r\n\r\n    /**\r\n     * @dev Returns the integer division of two unsigned integers, reverting with custom message on\r\n     * division by zero. The result is rounded towards zero.\r\n     *\r\n     * Counterpart to Solidity's `%` operator. This function uses a `revert`\r\n     * opcode (which leaves remaining gas untouched) while Solidity uses an\r\n     * invalid opcode to revert (consuming all remaining gas).\r\n     *\r\n     * Counterpart to Solidity's `/` operator. Note: this function uses a\r\n     * `revert` opcode (which leaves remaining gas untouched) while Solidity\r\n     * uses an invalid opcode to revert (consuming all remaining gas).\r\n     *\r\n     * Requirements:\r\n     *\r\n     * - The divisor cannot be zero.\r\n     */\r\n    function div(uint256 a, uint256 b, string memory errorMessage) internal pure returns (uint256) {\r\n        unchecked {\r\n            require(b > 0, errorMessage);\r\n            return a / b;\r\n        }\r\n    }\r\n\r\n    /**\r\n     * @dev Returns the remainder of dividing two unsigned integers. (unsigned integer modulo),\r\n     * reverting with custom message when dividing by zero.\r\n     *\r\n     * CAUTION: This function is deprecated because it requires allocating memory for the error\r\n     * message unnecessarily. For custom revert reasons use {tryMod}.\r\n     *\r\n     * Counterpart to Solidity's `%` operator. This function uses a `revert`\r\n     * opcode (which leaves remaining gas untouched) while Solidity uses an\r\n     * invalid opcode to revert (consuming all remaining gas).\r\n     *\r\n     * Requirements:\r\n     *\r\n     * - The divisor cannot be zero.\r\n     */\r\n    function mod(uint256 a, uint256 b, string memory errorMessage) internal pure returns (uint256) {\r\n        unchecked {\r\n            require(b > 0, errorMessage);\r\n            return a % b;\r\n        }\r\n    }\r\n}\r\n\r\nlibrary Address {\r\n    /**\r\n     * @dev Returns true if `account` is a contract.\r\n     *\r\n     * [IMPORTANT]\r\n     * ====\r\n     * It is unsafe to assume that an address for which this function returns\r\n     * false is an externally-owned account (EOA) and not a contract.\r\n     *\r\n     * Among others, `isContract` will return false for the following\r\n     * types of addresses:\r\n     *\r\n     *  - an externally-owned account\r\n     *  - a contract in construction\r\n     *  - an address where a contract will be created\r\n     *  - an address where a contract lived, but was destroyed\r\n     * ====\r\n     */\r\n    function isContract(address account) internal view returns (bool) {\r\n        // This method relies on extcodesize, which returns 0 for contracts in\r\n        // construction, since the code is only stored at the end of the\r\n        // constructor execution.\r\n\r\n        uint256 size;\r\n        // solhint-disable-next-line no-inline-assembly\r\n        assembly { size := extcodesize(account) }\r\n        return size > 0;\r\n    }\r\n\r\n    /**\r\n     * @dev Replacement for Solidity's `transfer`: sends `amount` wei to\r\n     * `recipient`, forwarding all available gas and reverting on errors.\r\n     *\r\n     * https://eips.ethereum.org/EIPS/eip-1884[EIP1884] increases the gas cost\r\n     * of certain opcodes, possibly making contracts go over the 2300 gas limit\r\n     * imposed by `transfer`, making them unable to receive funds via\r\n     * `transfer`. {sendValue} removes this limitation.\r\n     *\r\n     * https://diligence.consensys.net/posts/2019/09/stop-using-soliditys-transfer-now/[Learn more].\r\n     *\r\n     * IMPORTANT: because control is transferred to `recipient`, care must be\r\n     * taken to not create reentrancy vulnerabilities. Consider using\r\n     * {ReentrancyGuard} or the\r\n     * https://solidity.readthedocs.io/en/v0.5.11/security-considerations.html#use-the-checks-effects-interactions-pattern[checks-effects-interactions pattern].\r\n     */\r\n    function sendValue(address payable recipient, uint256 amount) internal {\r\n        require(address(this).balance >= amount, \"Address: insufficient balance\");\r\n\r\n        // solhint-disable-next-line avoid-low-level-calls, avoid-call-value\r\n        (bool success, ) = recipient.call{ value: amount }(\"\");\r\n        require(success, \"Address: unable to send value, recipient may have reverted\");\r\n    }\r\n\r\n    /**\r\n     * @dev Performs a Solidity function call using a low level `call`. A\r\n     * plain`call` is an unsafe replacement for a function call: use this\r\n     * function instead.\r\n     *\r\n     * If `target` reverts with a revert reason, it is bubbled up by this\r\n     * function (like regular Solidity function calls).\r\n     *\r\n     * Returns the raw returned data. To convert to the expected return value,\r\n     * use https://solidity.readthedocs.io/en/latest/units-and-global-variables.html?highlight=abi.decode#abi-encoding-and-decoding-functions[`abi.decode`].\r\n     *\r\n     * Requirements:\r\n     *\r\n     * - `target` must be a contract.\r\n     * - calling `target` with `data` must not revert.\r\n     *\r\n     * _Available since v3.1._\r\n     */\r\n    function functionCall(address target, bytes memory data) internal returns (bytes memory) {\r\n      return functionCall(target, data, \"Address: low-level call failed\");\r\n    }\r\n\r\n    /**\r\n     * @dev Same as {xref-Address-functionCall-address-bytes-}[`functionCall`], but with\r\n     * `errorMessage` as a fallback revert reason when `target` reverts.\r\n     *\r\n     * _Available since v3.1._\r\n     */\r\n    function functionCall(address target, bytes memory data, string memory errorMessage) internal returns (bytes memory) {\r\n        return functionCallWithValue(target, data, 0, errorMessage);\r\n    }\r\n\r\n    /**\r\n     * @dev Same as {xref-Address-functionCall-address-bytes-}[`functionCall`],\r\n     * but also transferring `value` wei to `target`.\r\n     *\r\n     * Requirements:\r\n     *\r\n     * - the calling contract must have an ETH balance of at least `value`.\r\n     * - the called Solidity function must be `payable`.\r\n     *\r\n     * _Available since v3.1._\r\n     */\r\n    function functionCallWithValue(address target, bytes memory data, uint256 value) internal returns (bytes memory) {\r\n        return functionCallWithValue(target, data, value, \"Address: low-level call with value failed\");\r\n    }\r\n\r\n    /**\r\n     * @dev Same as {xref-Address-functionCallWithValue-address-bytes-uint256-}[`functionCallWithValue`], but\r\n     * with `errorMessage` as a fallback revert reason when `target` reverts.\r\n     *\r\n     * _Available since v3.1._\r\n     */\r\n    function functionCallWithValue(address target, bytes memory data, uint256 value, string memory errorMessage) internal returns (bytes memory) {\r\n        require(address(this).balance >= value, \"Address: insufficient balance for call\");\r\n        require(isContract(target), \"Address: call to non-contract\");\r\n\r\n        // solhint-disable-next-line avoid-low-level-calls\r\n        (bool success, bytes memory returndata) = target.call{ value: value }(data);\r\n        return _verifyCallResult(success, returndata, errorMessage);\r\n    }\r\n\r\n    /**\r\n     * @dev Same as {xref-Address-functionCall-address-bytes-}[`functionCall`],\r\n     * but performing a static call.\r\n     *\r\n     * _Available since v3.3._\r\n     */\r\n    function functionStaticCall(address target, bytes memory data) internal view returns (bytes memory) {\r\n        return functionStaticCall(target, data, \"Address: low-level static call failed\");\r\n    }\r\n\r\n    /**\r\n     * @dev Same as {xref-Address-functionCall-address-bytes-string-}[`functionCall`],\r\n     * but performing a static call.\r\n     *\r\n     * _Available since v3.3._\r\n     */\r\n    function functionStaticCall(address target, bytes memory data, string memory errorMessage) internal view returns (bytes memory) {\r\n        require(isContract(target), \"Address: static call to non-contract\");\r\n\r\n        // solhint-disable-next-line avoid-low-level-calls\r\n        (bool success, bytes memory returndata) = target.staticcall(data);\r\n        return _verifyCallResult(success, returndata, errorMessage);\r\n    }\r\n\r\n    /**\r\n     * @dev Same as {xref-Address-functionCall-address-bytes-}[`functionCall`],\r\n     * but performing a delegate call.\r\n     *\r\n     * _Available since v3.4._\r\n     */\r\n    function functionDelegateCall(address target, bytes memory data) internal returns (bytes memory) {\r\n        return functionDelegateCall(target, data, \"Address: low-level delegate call failed\");\r\n    }\r\n\r\n    /**\r\n     * @dev Same as {xref-Address-functionCall-address-bytes-string-}[`functionCall`],\r\n     * but performing a delegate call.\r\n     *\r\n     * _Available since v3.4._\r\n     */\r\n    function functionDelegateCall(address target, bytes memory data, string memory errorMessage) internal returns (bytes memory) {\r\n        require(isContract(target), \"Address: delegate call to non-contract\");\r\n\r\n        // solhint-disable-next-line avoid-low-level-calls\r\n        (bool success, bytes memory returndata) = target.delegatecall(data);\r\n        return _verifyCallResult(success, returndata, errorMessage);\r\n    }\r\n\r\n    function _verifyCallResult(bool success, bytes memory returndata, string memory errorMessage) private pure returns(bytes memory) {\r\n        if (success) {\r\n            return returndata;\r\n        } else {\r\n            // Look for revert reason and bubble it up if present\r\n            if (returndata.length > 0) {\r\n                // The easiest way to bubble the revert reason is using memory via assembly\r\n\r\n                // solhint-disable-next-line no-inline-assembly\r\n                assembly {\r\n                    let returndata_size := mload(returndata)\r\n                    revert(add(32, returndata), returndata_size)\r\n                }\r\n            } else {\r\n                revert(errorMessage);\r\n            }\r\n        }\r\n    }\r\n}\r\n\r\nlibrary SafeERC20 {\r\n    using Address for address;\r\n\r\n    function safeTransfer(IERC20 token, address to, uint256 value) internal {\r\n        _callOptionalReturn(token, abi.encodeWithSelector(token.transfer.selector, to, value));\r\n    }\r\n\r\n    function safeTransferFrom(IERC20 token, address from, address to, uint256 value) internal {\r\n        _callOptionalReturn(token, abi.encodeWithSelector(token.transferFrom.selector, from, to, value));\r\n    }\r\n\r\n    /**\r\n     * @dev Deprecated. This function has issues similar to the ones found in\r\n     * {IERC20-approve}, and its usage is discouraged.\r\n     *\r\n     * Whenever possible, use {safeIncreaseAllowance} and\r\n     * {safeDecreaseAllowance} instead.\r\n     */\r\n    function safeApprove(IERC20 token, address spender, uint256 value) internal {\r\n        // safeApprove should only be called when setting an initial allowance,\r\n        // or when resetting it to zero. To increase and decrease it, use\r\n        // 'safeIncreaseAllowance' and 'safeDecreaseAllowance'\r\n        // solhint-disable-next-line max-line-length\r\n        require((value == 0) || (token.allowance(address(this), spender) == 0),\r\n            \"SafeERC20: approve from non-zero to non-zero allowance\"\r\n        );\r\n        _callOptionalReturn(token, abi.encodeWithSelector(token.approve.selector, spender, value));\r\n    }\r\n\r\n    function safeIncreaseAllowance(IERC20 token, address spender, uint256 value) internal {\r\n        uint256 newAllowance = token.allowance(address(this), spender) + value;\r\n        _callOptionalReturn(token, abi.encodeWithSelector(token.approve.selector, spender, newAllowance));\r\n    }\r\n\r\n    function safeDecreaseAllowance(IERC20 token, address spender, uint256 value) internal {\r\n        unchecked {\r\n            uint256 oldAllowance = token.allowance(address(this), spender);\r\n            require(oldAllowance >= value, \"SafeERC20: decreased allowance below zero\");\r\n            uint256 newAllowance = oldAllowance - value;\r\n            _callOptionalReturn(token, abi.encodeWithSelector(token.approve.selector, spender, newAllowance));\r\n        }\r\n    }\r\n\r\n    /**\r\n     * @dev Imitates a Solidity high-level call (i.e. a regular function call to a contract), relaxing the requirement\r\n     * on the return value: the return value is optional (but if data is returned, it must not be false).\r\n     * @param token The token targeted by the call.\r\n     * @param data The call data (encoded using abi.encode or one of its variants).\r\n     */\r\n    function _callOptionalReturn(IERC20 token, bytes memory data) private {\r\n        // We need to perform a low level call here, to bypass Solidity's return data size checking mechanism, since\r\n        // we're implementing it ourselves. We use {Address.functionCall} to perform this call, which verifies that\r\n        // the target address contains contract code and also asserts for success in the low-level call.\r\n\r\n        bytes memory returndata = address(token).functionCall(data, \"SafeERC20: low-level call failed\");\r\n        if (returndata.length > 0) { // Return data is optional\r\n            // solhint-disable-next-line max-line-length\r\n            require(abi.decode(returndata, (bool)), \"SafeERC20: ERC20 operation did not succeed\");\r\n        }\r\n    }\r\n}\r\n",
  "sourcePath": "D:/work/czz/truffle/CzzSecurityPool/contracts/HecoPool.sol",
  "compiler": {
    "name": "solc",
    "version": "0.8.0+commit.c7dfd78e.Emscripten.clang"
  },
  "schemaVersion": "3.3.4",
  "updatedAt": "2021-03-31T10:55:04.318Z",
  "networkType": "ethereum",
  "devdoc": {
    "kind": "dev",
    "methods": {
      "owner()": {
        "details": "Returns the address of the current owner."
      },
      "renounceOwnership()": {
        "details": "Leaves the contract without owner. It will not be possible to call `onlyOwner` functions anymore. Can only be called by the current owner. NOTE: Renouncing ownership will leave the contract without an owner, thereby removing any functionality that is only available to the owner."
      },
      "transferOwnership(address)": {
        "details": "Transfers ownership of the contract to a new account (`newOwner`). Can only be called by the current owner."
      }
    },
    "version": 1
  },
  "userdoc": {
    "kind": "user",
    "methods": {},
    "version": 1
  }
}