{
  "contractName": "HecoPool",
  "abi": [
    {
      "inputs": [
        {
          "internalType": "contract IMdx",
          "name": "_mdx",
          "type": "address"
        },
        {
          "internalType": "uint256",
          "name": "_mdxPerBlock",
          "type": "uint256"
        },
        {
          "internalType": "uint256",
          "name": "_startBlock",
          "type": "uint256"
        }
      ],
      "stateMutability": "nonpayable",
      "type": "constructor"
    },
    {
      "anonymous": false,
      "inputs": [
        {
          "indexed": true,
          "internalType": "address",
          "name": "user",
          "type": "address"
        },
        {
          "indexed": true,
          "internalType": "uint256",
          "name": "pid",
          "type": "uint256"
        },
        {
          "indexed": false,
          "internalType": "uint256",
          "name": "amount",
          "type": "uint256"
        }
      ],
      "name": "Deposit",
      "type": "event"
    },
    {
      "anonymous": false,
      "inputs": [
        {
          "indexed": true,
          "internalType": "address",
          "name": "user",
          "type": "address"
        },
        {
          "indexed": true,
          "internalType": "uint256",
          "name": "pid",
          "type": "uint256"
        },
        {
          "indexed": false,
          "internalType": "uint256",
          "name": "amount",
          "type": "uint256"
        }
      ],
      "name": "EmergencyWithdraw",
      "type": "event"
    },
    {
      "anonymous": false,
      "inputs": [
        {
          "indexed": true,
          "internalType": "address",
          "name": "previousOwner",
          "type": "address"
        },
        {
          "indexed": true,
          "internalType": "address",
          "name": "newOwner",
          "type": "address"
        }
      ],
      "name": "OwnershipTransferred",
      "type": "event"
    },
    {
      "anonymous": false,
      "inputs": [
        {
          "indexed": true,
          "internalType": "address",
          "name": "user",
          "type": "address"
        },
        {
          "indexed": true,
          "internalType": "uint256",
          "name": "pid",
          "type": "uint256"
        },
        {
          "indexed": false,
          "internalType": "uint256",
          "name": "amount",
          "type": "uint256"
        }
      ],
      "name": "Withdraw",
      "type": "event"
    },
    {
      "inputs": [
        {
          "internalType": "address",
          "name": "",
          "type": "address"
        }
      ],
      "name": "LpOfPid",
      "outputs": [
        {
          "internalType": "uint256",
          "name": "",
          "type": "uint256"
        }
      ],
      "stateMutability": "view",
      "type": "function",
      "constant": true
    },
    {
      "inputs": [],
      "name": "halvingPeriod",
      "outputs": [
        {
          "internalType": "uint256",
          "name": "",
          "type": "uint256"
        }
      ],
      "stateMutability": "view",
      "type": "function",
      "constant": true
    },
    {
      "inputs": [],
      "name": "mdx",
      "outputs": [
        {
          "internalType": "contract IMdx",
          "name": "",
          "type": "address"
        }
      ],
      "stateMutability": "view",
      "type": "function",
      "constant": true
    },
    {
      "inputs": [],
      "name": "mdxPerBlock",
      "outputs": [
        {
          "internalType": "uint256",
          "name": "",
          "type": "uint256"
        }
      ],
      "stateMutability": "view",
      "type": "function",
      "constant": true
    },
    {
      "inputs": [],
      "name": "multLpChef",
      "outputs": [
        {
          "internalType": "address",
          "name": "",
          "type": "address"
        }
      ],
      "stateMutability": "view",
      "type": "function",
      "constant": true
    },
    {
      "inputs": [],
      "name": "multLpToken",
      "outputs": [
        {
          "internalType": "address",
          "name": "",
          "type": "address"
        }
      ],
      "stateMutability": "view",
      "type": "function",
      "constant": true
    },
    {
      "inputs": [],
      "name": "owner",
      "outputs": [
        {
          "internalType": "address",
          "name": "",
          "type": "address"
        }
      ],
      "stateMutability": "view",
      "type": "function",
      "constant": true
    },
    {
      "inputs": [],
      "name": "paused",
      "outputs": [
        {
          "internalType": "bool",
          "name": "",
          "type": "bool"
        }
      ],
      "stateMutability": "view",
      "type": "function",
      "constant": true
    },
    {
      "inputs": [
        {
          "internalType": "uint256",
          "name": "",
          "type": "uint256"
        }
      ],
      "name": "poolCorrespond",
      "outputs": [
        {
          "internalType": "uint256",
          "name": "",
          "type": "uint256"
        }
      ],
      "stateMutability": "view",
      "type": "function",
      "constant": true
    },
    {
      "inputs": [
        {
          "internalType": "uint256",
          "name": "",
          "type": "uint256"
        }
      ],
      "name": "poolInfo",
      "outputs": [
        {
          "internalType": "contract IERC20",
          "name": "lpToken",
          "type": "address"
        },
        {
          "internalType": "uint256",
          "name": "allocPoint",
          "type": "uint256"
        },
        {
          "internalType": "uint256",
          "name": "lastRewardBlock",
          "type": "uint256"
        },
        {
          "internalType": "uint256",
          "name": "accMdxPerShare",
          "type": "uint256"
        },
        {
          "internalType": "uint256",
          "name": "accMultLpPerShare",
          "type": "uint256"
        },
        {
          "internalType": "uint256",
          "name": "totalAmount",
          "type": "uint256"
        }
      ],
      "stateMutability": "view",
      "type": "function",
      "constant": true
    },
    {
      "inputs": [],
      "name": "renounceOwnership",
      "outputs": [],
      "stateMutability": "nonpayable",
      "type": "function"
    },
    {
      "inputs": [],
      "name": "startBlock",
      "outputs": [
        {
          "internalType": "uint256",
          "name": "",
          "type": "uint256"
        }
      ],
      "stateMutability": "view",
      "type": "function",
      "constant": true
    },
    {
      "inputs": [],
      "name": "totalAllocPoint",
      "outputs": [
        {
          "internalType": "uint256",
          "name": "",
          "type": "uint256"
        }
      ],
      "stateMutability": "view",
      "type": "function",
      "constant": true
    },
    {
      "inputs": [
        {
          "internalType": "address",
          "name": "newOwner",
          "type": "address"
        }
      ],
      "name": "transferOwnership",
      "outputs": [],
      "stateMutability": "nonpayable",
      "type": "function"
    },
    {
      "inputs": [
        {
          "internalType": "uint256",
          "name": "",
          "type": "uint256"
        },
        {
          "internalType": "address",
          "name": "",
          "type": "address"
        }
      ],
      "name": "userInfo",
      "outputs": [
        {
          "internalType": "uint256",
          "name": "amount",
          "type": "uint256"
        },
        {
          "internalType": "uint256",
          "name": "rewardDebt",
          "type": "uint256"
        },
        {
          "internalType": "uint256",
          "name": "multLpRewardDebt",
          "type": "uint256"
        }
      ],
      "stateMutability": "view",
      "type": "function",
      "constant": true
    },
    {
      "inputs": [
        {
          "internalType": "uint256",
          "name": "_block",
          "type": "uint256"
        }
      ],
      "name": "setHalvingPeriod",
      "outputs": [],
      "stateMutability": "nonpayable",
      "type": "function"
    },
    {
      "inputs": [
        {
          "internalType": "uint256",
          "name": "_newPerBlock",
          "type": "uint256"
        }
      ],
      "name": "setMdxPerBlock",
      "outputs": [],
      "stateMutability": "nonpayable",
      "type": "function"
    },
    {
      "inputs": [],
      "name": "poolLength",
      "outputs": [
        {
          "internalType": "uint256",
          "name": "",
          "type": "uint256"
        }
      ],
      "stateMutability": "view",
      "type": "function",
      "constant": true
    },
    {
      "inputs": [
        {
          "internalType": "address",
          "name": "_addLP",
          "type": "address"
        }
      ],
      "name": "addMultLP",
      "outputs": [
        {
          "internalType": "bool",
          "name": "",
          "type": "bool"
        }
      ],
      "stateMutability": "nonpayable",
      "type": "function"
    },
    {
      "inputs": [
        {
          "internalType": "address",
          "name": "_LP",
          "type": "address"
        }
      ],
      "name": "isMultLP",
      "outputs": [
        {
          "internalType": "bool",
          "name": "",
          "type": "bool"
        }
      ],
      "stateMutability": "view",
      "type": "function",
      "constant": true
    },
    {
      "inputs": [],
      "name": "getMultLPLength",
      "outputs": [
        {
          "internalType": "uint256",
          "name": "",
          "type": "uint256"
        }
      ],
      "stateMutability": "view",
      "type": "function",
      "constant": true
    },
    {
      "inputs": [
        {
          "internalType": "uint256",
          "name": "_pid",
          "type": "uint256"
        }
      ],
      "name": "getMultLPAddress",
      "outputs": [
        {
          "internalType": "address",
          "name": "",
          "type": "address"
        }
      ],
      "stateMutability": "view",
      "type": "function",
      "constant": true
    },
    {
      "inputs": [],
      "name": "setPause",
      "outputs": [],
      "stateMutability": "nonpayable",
      "type": "function"
    },
    {
      "inputs": [
        {
          "internalType": "address",
          "name": "_multLpToken",
          "type": "address"
        },
        {
          "internalType": "address",
          "name": "_multLpChef",
          "type": "address"
        }
      ],
      "name": "setMultLP",
      "outputs": [],
      "stateMutability": "nonpayable",
      "type": "function"
    },
    {
      "inputs": [
        {
          "internalType": "address",
          "name": "_multLpToken",
          "type": "address"
        },
        {
          "internalType": "address",
          "name": "_multLpChef",
          "type": "address"
        }
      ],
      "name": "replaceMultLP",
      "outputs": [],
      "stateMutability": "nonpayable",
      "type": "function"
    },
    {
      "inputs": [
        {
          "internalType": "uint256",
          "name": "_allocPoint",
          "type": "uint256"
        },
        {
          "internalType": "contract IERC20",
          "name": "_lpToken",
          "type": "address"
        },
        {
          "internalType": "bool",
          "name": "_withUpdate",
          "type": "bool"
        }
      ],
      "name": "add",
      "outputs": [],
      "stateMutability": "nonpayable",
      "type": "function"
    },
    {
      "inputs": [
        {
          "internalType": "uint256",
          "name": "_pid",
          "type": "uint256"
        },
        {
          "internalType": "uint256",
          "name": "_allocPoint",
          "type": "uint256"
        },
        {
          "internalType": "bool",
          "name": "_withUpdate",
          "type": "bool"
        }
      ],
      "name": "set",
      "outputs": [],
      "stateMutability": "nonpayable",
      "type": "function"
    },
    {
      "inputs": [
        {
          "internalType": "uint256",
          "name": "_pid",
          "type": "uint256"
        },
        {
          "internalType": "uint256",
          "name": "_sid",
          "type": "uint256"
        }
      ],
      "name": "setPoolCorr",
      "outputs": [],
      "stateMutability": "nonpayable",
      "type": "function"
    },
    {
      "inputs": [
        {
          "internalType": "uint256",
          "name": "blockNumber",
          "type": "uint256"
        }
      ],
      "name": "phase",
      "outputs": [
        {
          "internalType": "uint256",
          "name": "",
          "type": "uint256"
        }
      ],
      "stateMutability": "view",
      "type": "function",
      "constant": true
    },
    {
      "inputs": [
        {
          "internalType": "uint256",
          "name": "blockNumber",
          "type": "uint256"
        }
      ],
      "name": "reward",
      "outputs": [
        {
          "internalType": "uint256",
          "name": "",
          "type": "uint256"
        }
      ],
      "stateMutability": "view",
      "type": "function",
      "constant": true
    },
    {
      "inputs": [
        {
          "internalType": "uint256",
          "name": "_lastRewardBlock",
          "type": "uint256"
        }
      ],
      "name": "getMdxBlockReward",
      "outputs": [
        {
          "internalType": "uint256",
          "name": "",
          "type": "uint256"
        }
      ],
      "stateMutability": "view",
      "type": "function",
      "constant": true
    },
    {
      "inputs": [],
      "name": "massUpdatePools",
      "outputs": [],
      "stateMutability": "nonpayable",
      "type": "function"
    },
    {
      "inputs": [
        {
          "internalType": "uint256",
          "name": "_pid",
          "type": "uint256"
        }
      ],
      "name": "updatePool",
      "outputs": [],
      "stateMutability": "nonpayable",
      "type": "function"
    },
    {
      "inputs": [
        {
          "internalType": "uint256",
          "name": "_pid",
          "type": "uint256"
        },
        {
          "internalType": "address",
          "name": "_user",
          "type": "address"
        }
      ],
      "name": "pending",
      "outputs": [
        {
          "internalType": "uint256",
          "name": "",
          "type": "uint256"
        },
        {
          "internalType": "uint256",
          "name": "",
          "type": "uint256"
        }
      ],
      "stateMutability": "view",
      "type": "function",
      "constant": true
    },
    {
      "inputs": [
        {
          "internalType": "uint256",
          "name": "_pid",
          "type": "uint256"
        },
        {
          "internalType": "uint256",
          "name": "_amount",
          "type": "uint256"
        }
      ],
      "name": "deposit",
      "outputs": [],
      "stateMutability": "nonpayable",
      "type": "function"
    },
    {
      "inputs": [
        {
          "internalType": "uint256",
          "name": "_pid",
          "type": "uint256"
        },
        {
          "internalType": "uint256",
          "name": "_amount",
          "type": "uint256"
        }
      ],
      "name": "withdraw",
      "outputs": [],
      "stateMutability": "nonpayable",
      "type": "function"
    },
    {
      "inputs": [
        {
          "internalType": "uint256",
          "name": "_pid",
          "type": "uint256"
        }
      ],
      "name": "emergencyWithdraw",
      "outputs": [],
      "stateMutability": "nonpayable",
      "type": "function"
    }
  ],
  "bytecode": "0x60806040526000600960006101000a81548160ff0219169083151502179055506000600a5562503340600e553480156200003857600080fd5b5060405162005cec38038062005cec83398181016040528101906200005e91906200019c565b6000620000706200016660201b60201c565b9050806000806101000a81548173ffffffffffffffffffffffffffffffffffffffff021916908373ffffffffffffffffffffffffffffffffffffffff1602179055508073ffffffffffffffffffffffffffffffffffffffff16600073ffffffffffffffffffffffffffffffffffffffff167f8be0079c531659141344cd1fd0a4f28419497f9722a3daafe3b4186f6b6457e060405160405180910390a35082600360006101000a81548173ffffffffffffffffffffffffffffffffffffffff021916908373ffffffffffffffffffffffffffffffffffffffff1602179055508160048190555080600b8190555050505062000278565b600033905090565b6000815190506200017f8162000244565b92915050565b60008151905062000196816200025e565b92915050565b600080600060608486031215620001b257600080fd5b6000620001c2868287016200016e565b9350506020620001d58682870162000185565b9250506040620001e88682870162000185565b9150509250925092565b6000620001ff826200021a565b9050919050565b60006200021382620001f2565b9050919050565b600073ffffffffffffffffffffffffffffffffffffffff82169050919050565b6000819050919050565b6200024f8162000206565b81146200025b57600080fd5b50565b62000269816200023a565b81146200027557600080fd5b50565b615a6480620002886000396000f3fe608060405234801561001057600080fd5b50600436106102275760003560e01c8063715018a611610130578063b337d32c116100b8578063e2bbb1581161007c578063e2bbb15814610659578063e4c75c2714610675578063e6ab8d48146106a6578063e715e234146106c4578063f2fde38b146106e057610227565b8063b337d32c146105c9578063b5ec5c99146105e5578063cb4502c414610601578063d431b1ac14610631578063dfc7b95b1461063b57610227565b80638fa39a88116100ff5780638fa39a88146104fd57806393f1a40b1461051b578063a9fb763c1461054d578063aaae43cc1461057d578063b0c7044b1461059957610227565b8063715018a614610489578063791ba374146104935780637fe6f5ac146104af5780638da5cb5b146104df57610227565b806351eb05a6116101b35780635a3e251f116101825780635a3e251f146104095780635c975abb14610427578063630b5ba11461044557806364482f791461044f578063705bbc011461046b57610227565b806351eb05a6146103835780635312ea8e1461039f5780635672ab55146103bb57806356c5867d146103d957610227565b80631b15b579116101fa5780631b15b579146102cd5780631eaaa045146102fd5780634315490714610319578063441a3e701461034957806348cd4cb11461036557610227565b8063081e3eda1461022c578063135f8aa71461024a5780631526fe271461027a57806317caf6f1146102af575b600080fd5b6102346106fc565b6040516102419190615477565b60405180910390f35b610264600480360381019061025f9190614ac8565b610709565b6040516102719190615477565b60405180910390f35b610294600480360381019061028f9190614ac8565b610775565b6040516102a6969594939291906151f9565b60405180910390f35b6102b76107e1565b6040516102c49190615477565b60405180910390f35b6102e760048036038101906102e29190614ac8565b6107e7565b6040516102f49190615477565b60405180910390f35b61031760048036038101906103129190614b56565b6108e2565b005b610333600480360381019061032e9190614ac8565b610b58565b6040516103409190615163565b60405180910390f35b610363600480360381019061035e9190614ba5565b610bc2565b005b61036d610cb7565b60405161037a9190615477565b60405180910390f35b61039d60048036038101906103989190614ac8565b610cbd565b005b6103b960048036038101906103b49190614ac8565b610fa4565b005b6103c3611096565b6040516103d0919061525a565b60405180910390f35b6103f360048036038101906103ee9190614a3a565b6110bc565b60405161040091906151de565b60405180910390f35b61041161128c565b60405161041e9190615477565b60405180910390f35b61042f611292565b60405161043c91906151de565b60405180910390f35b61044d6112a5565b005b61046960048036038101906104649190614be1565b6112d8565b005b610473611430565b6040516104809190615163565b60405180910390f35b610491611456565b005b6104ad60048036038101906104a89190614ac8565b611590565b005b6104c960048036038101906104c49190614a3a565b61161e565b6040516104d691906151de565b60405180910390f35b6104e7611632565b6040516104f49190615163565b60405180910390f35b61050561165b565b6040516105129190615477565b60405180910390f35b61053560048036038101906105309190614b1a565b611661565b6040516105449392919061550d565b60405180910390f35b61056760048036038101906105629190614ac8565b611698565b6040516105749190615477565b60405180910390f35b61059760048036038101906105929190614a63565b6116cf565b005b6105b360048036038101906105ae9190614a3a565b6119fc565b6040516105c09190615477565b60405180910390f35b6105e360048036038101906105de9190614ba5565b611a14565b005b6105ff60048036038101906105fa9190614ac8565b611b02565b005b61061b60048036038101906106169190614ac8565b611b88565b6040516106289190615477565b60405180910390f35b610639611ba0565b005b610643611c48565b6040516106509190615163565b60405180910390f35b610673600480360381019061066e9190614ba5565b611c6e565b005b61068f600480360381019061068a9190614b1a565b611d63565b60405161069d9291906154e4565b60405180910390f35b6106ae611e22565b6040516106bb9190615477565b60405180910390f35b6106de60048036038101906106d99190614a63565b611e33565b005b6106fa60048036038101906106f59190614a3a565b611fde565b005b6000600580549050905090565b600080600e54141561071e5760009050610770565b600b5482111561076b57610764600e546107566001610748600b548761218790919063ffffffff16565b61218790919063ffffffff16565b61219d90919063ffffffff16565b9050610770565b600090505b919050565b6005818154811061078557600080fd5b90600052602060002090600602016000915090508060000160009054906101000a900473ffffffffffffffffffffffffffffffffffffffff16908060010154908060020154908060030154908060040154908060050154905086565b600a5481565b6000806000905060006107f984610709565b9050600061080643610709565b90505b8082101561089657818061081c9061590d565b925050600061084a600b5461083c600e54866121b390919063ffffffff16565b6121c990919063ffffffff16565b905061088b61087c61085b83611698565b61086e898561218790919063ffffffff16565b6121b390919063ffffffff16565b856121c990919063ffffffff16565b935080955050610809565b6108d56108c66108a543611698565b6108b8884361218790919063ffffffff16565b6121b390919063ffffffff16565b846121c990919063ffffffff16565b9250829350505050919050565b6108ea6121df565b73ffffffffffffffffffffffffffffffffffffffff16610908611632565b73ffffffffffffffffffffffffffffffffffffffff161461095e576040517f08c379a0000000000000000000000000000000000000000000000000000000008152600401610955906153f7565b60405180910390fd5b600073ffffffffffffffffffffffffffffffffffffffff168273ffffffffffffffffffffffffffffffffffffffff1614156109ce576040517f08c379a00000000000000000000000000000000000000000000000000000000081526004016109c590615457565b60405180910390fd5b80156109dd576109dc6112a5565b5b6000600b5443116109f057600b546109f2565b435b9050610a0984600a546121c990919063ffffffff16565b600a8190555060056040518060c001604052808573ffffffffffffffffffffffffffffffffffffffff16815260200186815260200183815260200160008152602001600081526020016000815250908060018154018082558091505060019003906000526020600020906006020160009091909190915060008201518160000160006101000a81548173ffffffffffffffffffffffffffffffffffffffff021916908373ffffffffffffffffffffffffffffffffffffffff1602179055506020820151816001015560408201518160020155606082015181600301556080820151816004015560a0820151816005015550506001610b056106fc565b610b0f91906157c8565b600860008573ffffffffffffffffffffffffffffffffffffffff1673ffffffffffffffffffffffffffffffffffffffff1681526020019081526020016000208190555050505050565b60006001610b64611e22565b610b6e91906157c8565b821115610bb0576040517f08c379a0000000000000000000000000000000000000000000000000000000008152600401610ba790615357565b60405180910390fd5b610bbb6001836121e7565b9050919050565b60001515600960009054906101000a900460ff16151514610c18576040517f08c379a0000000000000000000000000000000000000000000000000000000008152600401610c0f906152f7565b60405180910390fd5b600060058381548110610c54577f4e487b7100000000000000000000000000000000000000000000000000000000600052603260045260246000fd5b90600052602060002090600602019050610c918160000160009054906101000a900473ffffffffffffffffffffffffffffffffffffffff1661161e565b15610ca657610ca1838333612201565b610cb2565b610cb18383336127b7565b5b505050565b600b5481565b600060058281548110610cf9577f4e487b7100000000000000000000000000000000000000000000000000000000600052603260045260246000fd5b9060005260206000209060060201905080600201544311610d1a5750610fa1565b6000610d498260000160009054906101000a900473ffffffffffffffffffffffffffffffffffffffff1661161e565b15610d7757600082600501541415610d6b574382600201819055505050610fa1565b81600501549050610e40565b8160000160009054906101000a900473ffffffffffffffffffffffffffffffffffffffff1673ffffffffffffffffffffffffffffffffffffffff166370a08231306040518263ffffffff1660e01b8152600401610dd49190615163565b60206040518083038186803b158015610dec57600080fd5b505afa158015610e00573d6000803e3d6000fd5b505050506040513d601f19601f82011682018060405250810190610e249190614af1565b90506000811415610e3f574382600201819055505050610fa1565b5b6000610e4f83600201546107e7565b905060008111610e6157505050610fa1565b6000610e8e600a54610e808660010154856121b390919063ffffffff16565b61219d90919063ffffffff16565b90506000600360009054906101000a900473ffffffffffffffffffffffffffffffffffffffff1673ffffffffffffffffffffffffffffffffffffffff166340c10f1930846040518363ffffffff1660e01b8152600401610eef9291906151b5565b602060405180830381600087803b158015610f0957600080fd5b505af1158015610f1d573d6000803e3d6000fd5b505050506040513d601f19601f82011682018060405250810190610f419190614a9f565b90508015610f9257610f89610f7685610f6864e8d4a51000866121b390919063ffffffff16565b61219d90919063ffffffff16565b86600301546121c990919063ffffffff16565b85600301819055505b43856002018190555050505050505b50565b60001515600960009054906101000a900460ff16151514610ffa576040517f08c379a0000000000000000000000000000000000000000000000000000000008152600401610ff1906152f7565b60405180910390fd5b600060058281548110611036577f4e487b7100000000000000000000000000000000000000000000000000000000600052603260045260246000fd5b906000526020600020906006020190506110738160000160009054906101000a900473ffffffffffffffffffffffffffffffffffffffff1661161e565b15611087576110828233612a2f565b611092565b6110918233612e10565b5b5050565b600360009054906101000a900473ffffffffffffffffffffffffffffffffffffffff1681565b60006110c66121df565b73ffffffffffffffffffffffffffffffffffffffff166110e4611632565b73ffffffffffffffffffffffffffffffffffffffff161461113a576040517f08c379a0000000000000000000000000000000000000000000000000000000008152600401611131906153f7565b60405180910390fd5b600073ffffffffffffffffffffffffffffffffffffffff168273ffffffffffffffffffffffffffffffffffffffff1614156111aa576040517f08c379a00000000000000000000000000000000000000000000000000000000081526004016111a1906152d7565b60405180910390fd5b8173ffffffffffffffffffffffffffffffffffffffff1663095ea7b3600c60009054906101000a900473ffffffffffffffffffffffffffffffffffffffff167fffffffffffffffffffffffffffffffffffffffffffffffffffffffffffffffff6040518363ffffffff1660e01b81526004016112279291906151b5565b602060405180830381600087803b15801561124157600080fd5b505af1158015611255573d6000803e3d6000fd5b505050506040513d601f19601f820116820180604052508101906112799190614a9f565b50611285600183612f91565b9050919050565b600e5481565b600960009054906101000a900460ff1681565b6000600580549050905060005b818110156112d4576112c381610cbd565b806112cd9061590d565b90506112b2565b5050565b6112e06121df565b73ffffffffffffffffffffffffffffffffffffffff166112fe611632565b73ffffffffffffffffffffffffffffffffffffffff1614611354576040517f08c379a000000000000000000000000000000000000000000000000000000000815260040161134b906153f7565b60405180910390fd5b8015611363576113626112a5565b5b6113d5826113c7600586815481106113a4577f4e487b7100000000000000000000000000000000000000000000000000000000600052603260045260246000fd5b906000526020600020906006020160010154600a5461218790919063ffffffff16565b6121c990919063ffffffff16565b600a819055508160058481548110611416577f4e487b7100000000000000000000000000000000000000000000000000000000600052603260045260246000fd5b906000526020600020906006020160010181905550505050565b600d60009054906101000a900473ffffffffffffffffffffffffffffffffffffffff1681565b61145e6121df565b73ffffffffffffffffffffffffffffffffffffffff1661147c611632565b73ffffffffffffffffffffffffffffffffffffffff16146114d2576040517f08c379a00000000000000000000000000000000000000000000000000000000081526004016114c9906153f7565b60405180910390fd5b600073ffffffffffffffffffffffffffffffffffffffff1660008054906101000a900473ffffffffffffffffffffffffffffffffffffffff1673ffffffffffffffffffffffffffffffffffffffff167f8be0079c531659141344cd1fd0a4f28419497f9722a3daafe3b4186f6b6457e060405160405180910390a360008060006101000a81548173ffffffffffffffffffffffffffffffffffffffff021916908373ffffffffffffffffffffffffffffffffffffffff160217905550565b6115986121df565b73ffffffffffffffffffffffffffffffffffffffff166115b6611632565b73ffffffffffffffffffffffffffffffffffffffff161461160c576040517f08c379a0000000000000000000000000000000000000000000000000000000008152600401611603906153f7565b60405180910390fd5b6116146112a5565b8060048190555050565b600061162b600183612fc1565b9050919050565b60008060009054906101000a900473ffffffffffffffffffffffffffffffffffffffff16905090565b60045481565b6006602052816000526040600020602052806000526040600020600091509150508060000154908060010154908060020154905083565b6000806116a483610709565b90506116c78160026116b69190615650565b60045461219d90919063ffffffff16565b915050919050565b6116d76121df565b73ffffffffffffffffffffffffffffffffffffffff166116f5611632565b73ffffffffffffffffffffffffffffffffffffffff161461174b576040517f08c379a0000000000000000000000000000000000000000000000000000000008152600401611742906153f7565b60405180910390fd5b600073ffffffffffffffffffffffffffffffffffffffff168273ffffffffffffffffffffffffffffffffffffffff16141580156117b55750600073ffffffffffffffffffffffffffffffffffffffff168173ffffffffffffffffffffffffffffffffffffffff1614155b6117f4576040517f08c379a00000000000000000000000000000000000000000000000000000000081526004016117eb90615337565b60405180910390fd5b60011515600960009054906101000a900460ff1615151461184a576040517f08c379a0000000000000000000000000000000000000000000000000000000008152600401611841906153b7565b60405180910390fd5b81600d60006101000a81548173ffffffffffffffffffffffffffffffffffffffff021916908373ffffffffffffffffffffffffffffffffffffffff16021790555080600c60006101000a81548173ffffffffffffffffffffffffffffffffffffffff021916908373ffffffffffffffffffffffffffffffffffffffff16021790555060006118d6611e22565b90505b60008111156119f75760006118f0600160006121e7565b90506000600860008373ffffffffffffffffffffffffffffffffffffffff1673ffffffffffffffffffffffffffffffffffffffff168152602001908152602001600020549050600c60009054906101000a900473ffffffffffffffffffffffffffffffffffffffff1673ffffffffffffffffffffffffffffffffffffffff16635312ea8e60076000848152602001908152602001600020546040518263ffffffff1660e01b81526004016119a49190615477565b600060405180830381600087803b1580156119be57600080fd5b505af11580156119d2573d6000803e3d6000fd5b505050506119e1600183612ff1565b5082806119ed906158e3565b93505050506118d9565b505050565b60086020528060005260406000206000915090505481565b611a1c6121df565b73ffffffffffffffffffffffffffffffffffffffff16611a3a611632565b73ffffffffffffffffffffffffffffffffffffffff1614611a90576040517f08c379a0000000000000000000000000000000000000000000000000000000008152600401611a87906153f7565b60405180910390fd5b6001611a9a6106fc565b611aa491906157c8565b821115611ae6576040517f08c379a0000000000000000000000000000000000000000000000000000000008152600401611add906153d7565b60405180910390fd5b8060076000848152602001908152602001600020819055505050565b611b0a6121df565b73ffffffffffffffffffffffffffffffffffffffff16611b28611632565b73ffffffffffffffffffffffffffffffffffffffff1614611b7e576040517f08c379a0000000000000000000000000000000000000000000000000000000008152600401611b75906153f7565b60405180910390fd5b80600e8190555050565b60076020528060005260406000206000915090505481565b611ba86121df565b73ffffffffffffffffffffffffffffffffffffffff16611bc6611632565b73ffffffffffffffffffffffffffffffffffffffff1614611c1c576040517f08c379a0000000000000000000000000000000000000000000000000000000008152600401611c13906153f7565b60405180910390fd5b600960009054906101000a900460ff1615600960006101000a81548160ff021916908315150217905550565b600c60009054906101000a900473ffffffffffffffffffffffffffffffffffffffff1681565b60001515600960009054906101000a900460ff16151514611cc4576040517f08c379a0000000000000000000000000000000000000000000000000000000008152600401611cbb906152f7565b60405180910390fd5b600060058381548110611d00577f4e487b7100000000000000000000000000000000000000000000000000000000600052603260045260246000fd5b90600052602060002090600602019050611d3d8160000160009054906101000a900473ffffffffffffffffffffffffffffffffffffffff1661161e565b15611d5257611d4d838333613021565b611d5e565b611d5d8383336138f4565b5b505050565b600080600060058581548110611da2577f4e487b7100000000000000000000000000000000000000000000000000000000600052603260045260246000fd5b90600052602060002090600602019050611ddf8160000160009054906101000a900473ffffffffffffffffffffffffffffffffffffffff1661161e565b15611e0357600080611df18787613b35565b91509150818194509450505050611e1b565b6000611e0f8686613e9f565b90508060009350935050505b9250929050565b6000611e2e600161414d565b905090565b611e3b6121df565b73ffffffffffffffffffffffffffffffffffffffff16611e59611632565b73ffffffffffffffffffffffffffffffffffffffff1614611eaf576040517f08c379a0000000000000000000000000000000000000000000000000000000008152600401611ea6906153f7565b60405180910390fd5b600073ffffffffffffffffffffffffffffffffffffffff168273ffffffffffffffffffffffffffffffffffffffff1614158015611f195750600073ffffffffffffffffffffffffffffffffffffffff168173ffffffffffffffffffffffffffffffffffffffff1614155b611f58576040517f08c379a0000000000000000000000000000000000000000000000000000000008152600401611f4f90615337565b60405180910390fd5b81600d60006101000a81548173ffffffffffffffffffffffffffffffffffffffff021916908373ffffffffffffffffffffffffffffffffffffffff16021790555080600c60006101000a81548173ffffffffffffffffffffffffffffffffffffffff021916908373ffffffffffffffffffffffffffffffffffffffff1602179055505050565b611fe66121df565b73ffffffffffffffffffffffffffffffffffffffff16612004611632565b73ffffffffffffffffffffffffffffffffffffffff161461205a576040517f08c379a0000000000000000000000000000000000000000000000000000000008152600401612051906153f7565b60405180910390fd5b600073ffffffffffffffffffffffffffffffffffffffff168173ffffffffffffffffffffffffffffffffffffffff1614156120ca576040517f08c379a00000000000000000000000000000000000000000000000000000000081526004016120c190615317565b60405180910390fd5b8073ffffffffffffffffffffffffffffffffffffffff1660008054906101000a900473ffffffffffffffffffffffffffffffffffffffff1673ffffffffffffffffffffffffffffffffffffffff167f8be0079c531659141344cd1fd0a4f28419497f9722a3daafe3b4186f6b6457e060405160405180910390a3806000806101000a81548173ffffffffffffffffffffffffffffffffffffffff021916908373ffffffffffffffffffffffffffffffffffffffff16021790555050565b6000818361219591906157c8565b905092915050565b600081836121ab91906155cc565b905092915050565b600081836121c1919061576e565b905092915050565b600081836121d79190615576565b905092915050565b600033905090565b60006121f68360000183614162565b60001c905092915050565b60006005848154811061223d577f4e487b7100000000000000000000000000000000000000000000000000000000600052603260045260246000fd5b9060005260206000209060060201905060006006600086815260200190815260200160002060008473ffffffffffffffffffffffffffffffffffffffff1673ffffffffffffffffffffffffffffffffffffffff168152602001908152602001600020905083816000015410156122e8576040517f08c379a00000000000000000000000000000000000000000000000000000000081526004016122df906152b7565b60405180910390fd5b6122f185610cbd565b600061233b826001015461232d64e8d4a5100061231f876003015487600001546121b390919063ffffffff16565b61219d90919063ffffffff16565b61218790919063ffffffff16565b905060008111156123515761235084826141fc565b5b60008511156126ec576000600d60009054906101000a900473ffffffffffffffffffffffffffffffffffffffff1673ffffffffffffffffffffffffffffffffffffffff166370a08231306040518263ffffffff1660e01b81526004016123b79190615163565b60206040518083038186803b1580156123cf57600080fd5b505afa1580156123e3573d6000803e3d6000fd5b505050506040513d601f19601f820116820180604052508101906124079190614af1565b9050600c60009054906101000a900473ffffffffffffffffffffffffffffffffffffffff1673ffffffffffffffffffffffffffffffffffffffff1663441a3e70600760008a815260200190815260200160002054886040518363ffffffff1660e01b81526004016124799291906154e4565b600060405180830381600087803b15801561249357600080fd5b505af11580156124a7573d6000803e3d6000fd5b505050506000600d60009054906101000a900473ffffffffffffffffffffffffffffffffffffffff1673ffffffffffffffffffffffffffffffffffffffff166370a08231306040518263ffffffff1660e01b81526004016125089190615163565b60206040518083038186803b15801561252057600080fd5b505afa158015612534573d6000803e3d6000fd5b505050506040513d601f19601f820116820180604052508101906125589190614af1565b90506125b061259d866005015461258f64e8d4a51000612581878761218790919063ffffffff16565b6121b390919063ffffffff16565b61219d90919063ffffffff16565b86600401546121c990919063ffffffff16565b8560040181905550600061260285600201546125f464e8d4a510006125e68a600401548a600001546121b390919063ffffffff16565b61219d90919063ffffffff16565b61218790919063ffffffff16565b9050600081111561265b5761265a8782600d60009054906101000a900473ffffffffffffffffffffffffffffffffffffffff1673ffffffffffffffffffffffffffffffffffffffff1661441e9092919063ffffffff16565b5b61267288866000015461218790919063ffffffff16565b856000018190555061269188876005015461218790919063ffffffff16565b86600501819055506126e887898860000160009054906101000a900473ffffffffffffffffffffffffffffffffffffffff1673ffffffffffffffffffffffffffffffffffffffff1661441e9092919063ffffffff16565b5050505b61271e64e8d4a51000612710856003015485600001546121b390919063ffffffff16565b61219d90919063ffffffff16565b826001018190555061275864e8d4a5100061274a856004015485600001546121b390919063ffffffff16565b61219d90919063ffffffff16565b8260020181905550858473ffffffffffffffffffffffffffffffffffffffff167ff279e6a1f5e320cca91135676d9cb6e44ca8a08c0b88342bcdb1144f6511b568876040516127a79190615477565b60405180910390a3505050505050565b6000600584815481106127f3577f4e487b7100000000000000000000000000000000000000000000000000000000600052603260045260246000fd5b9060005260206000209060060201905060006006600086815260200190815260200160002060008473ffffffffffffffffffffffffffffffffffffffff1673ffffffffffffffffffffffffffffffffffffffff1681526020019081526020016000209050838160000154101561289e576040517f08c379a000000000000000000000000000000000000000000000000000000000815260040161289590615377565b60405180910390fd5b6128a785610cbd565b60006128f182600101546128e364e8d4a510006128d5876003015487600001546121b390919063ffffffff16565b61219d90919063ffffffff16565b61218790919063ffffffff16565b905060008111156129075761290684826141fc565b5b600085111561299e5761292785836000015461218790919063ffffffff16565b826000018190555061294685846005015461218790919063ffffffff16565b836005018190555061299d84868560000160009054906101000a900473ffffffffffffffffffffffffffffffffffffffff1673ffffffffffffffffffffffffffffffffffffffff1661441e9092919063ffffffff16565b5b6129d064e8d4a510006129c2856003015485600001546121b390919063ffffffff16565b61219d90919063ffffffff16565b8260010181905550858473ffffffffffffffffffffffffffffffffffffffff167ff279e6a1f5e320cca91135676d9cb6e44ca8a08c0b88342bcdb1144f6511b56887604051612a1f9190615477565b60405180910390a3505050505050565b600060058381548110612a6b577f4e487b7100000000000000000000000000000000000000000000000000000000600052603260045260246000fd5b9060005260206000209060060201905060006006600085815260200190815260200160002060008473ffffffffffffffffffffffffffffffffffffffff1673ffffffffffffffffffffffffffffffffffffffff16815260200190815260200160002090506000816000015490506000600d60009054906101000a900473ffffffffffffffffffffffffffffffffffffffff1673ffffffffffffffffffffffffffffffffffffffff166370a08231306040518263ffffffff1660e01b8152600401612b359190615163565b60206040518083038186803b158015612b4d57600080fd5b505afa158015612b61573d6000803e3d6000fd5b505050506040513d601f19601f82011682018060405250810190612b859190614af1565b9050600c60009054906101000a900473ffffffffffffffffffffffffffffffffffffffff1673ffffffffffffffffffffffffffffffffffffffff1663441a3e706007600089815260200190815260200160002054846040518363ffffffff1660e01b8152600401612bf79291906154e4565b600060405180830381600087803b158015612c1157600080fd5b505af1158015612c25573d6000803e3d6000fd5b505050506000600d60009054906101000a900473ffffffffffffffffffffffffffffffffffffffff1673ffffffffffffffffffffffffffffffffffffffff166370a08231306040518263ffffffff1660e01b8152600401612c869190615163565b60206040518083038186803b158015612c9e57600080fd5b505afa158015612cb2573d6000803e3d6000fd5b505050506040513d601f19601f82011682018060405250810190612cd69190614af1565b9050612d2e612d1b8660050154612d0d64e8d4a51000612cff878761218790919063ffffffff16565b6121b390919063ffffffff16565b61219d90919063ffffffff16565b86600401546121c990919063ffffffff16565b85600401819055506000846000018190555060008460010181905550612d9986848760000160009054906101000a900473ffffffffffffffffffffffffffffffffffffffff1673ffffffffffffffffffffffffffffffffffffffff1661441e9092919063ffffffff16565b612db083866005015461218790919063ffffffff16565b8560050181905550868673ffffffffffffffffffffffffffffffffffffffff167fbb757047c2b5f3974fe26b7c10f732e7bce710b0952a71082702781e62ae059585604051612dff9190615477565b60405180910390a350505050505050565b600060058381548110612e4c577f4e487b7100000000000000000000000000000000000000000000000000000000600052603260045260246000fd5b9060005260206000209060060201905060006006600085815260200190815260200160002060008473ffffffffffffffffffffffffffffffffffffffff1673ffffffffffffffffffffffffffffffffffffffff16815260200190815260200160002090506000816000015490506000826000018190555060008260010181905550612f1c84828560000160009054906101000a900473ffffffffffffffffffffffffffffffffffffffff1673ffffffffffffffffffffffffffffffffffffffff1661441e9092919063ffffffff16565b612f3381846005015461218790919063ffffffff16565b8360050181905550848473ffffffffffffffffffffffffffffffffffffffff167fbb757047c2b5f3974fe26b7c10f732e7bce710b0952a71082702781e62ae059583604051612f829190615477565b60405180910390a35050505050565b6000612fb9836000018373ffffffffffffffffffffffffffffffffffffffff1660001b6144a4565b905092915050565b6000612fe9836000018373ffffffffffffffffffffffffffffffffffffffff1660001b614514565b905092915050565b6000613019836000018373ffffffffffffffffffffffffffffffffffffffff1660001b614537565b905092915050565b60006005848154811061305d577f4e487b7100000000000000000000000000000000000000000000000000000000600052603260045260246000fd5b9060005260206000209060060201905060006006600086815260200190815260200160002060008473ffffffffffffffffffffffffffffffffffffffff1673ffffffffffffffffffffffffffffffffffffffff16815260200190815260200160002090506130ca85610cbd565b60008160000154111561343e576000613121826001015461311364e8d4a51000613105876003015487600001546121b390919063ffffffff16565b61219d90919063ffffffff16565b61218790919063ffffffff16565b905060008111156131375761313684826141fc565b5b6000600d60009054906101000a900473ffffffffffffffffffffffffffffffffffffffff1673ffffffffffffffffffffffffffffffffffffffff166370a08231306040518263ffffffff1660e01b81526004016131949190615163565b60206040518083038186803b1580156131ac57600080fd5b505afa1580156131c0573d6000803e3d6000fd5b505050506040513d601f19601f820116820180604052508101906131e49190614af1565b9050600c60009054906101000a900473ffffffffffffffffffffffffffffffffffffffff1673ffffffffffffffffffffffffffffffffffffffff1663e2bbb158600760008a81526020019081526020016000205460006040518363ffffffff1660e01b81526004016132579291906154bb565b600060405180830381600087803b15801561327157600080fd5b505af1158015613285573d6000803e3d6000fd5b505050506000600d60009054906101000a900473ffffffffffffffffffffffffffffffffffffffff1673ffffffffffffffffffffffffffffffffffffffff166370a08231306040518263ffffffff1660e01b81526004016132e69190615163565b60206040518083038186803b1580156132fe57600080fd5b505afa158015613312573d6000803e3d6000fd5b505050506040513d601f19601f820116820180604052508101906133369190614af1565b905061338e61337b866005015461336d64e8d4a5100061335f878761218790919063ffffffff16565b6121b390919063ffffffff16565b61219d90919063ffffffff16565b86600401546121c990919063ffffffff16565b856004018190555060006133e085600201546133d264e8d4a510006133c48a600401548a600001546121b390919063ffffffff16565b61219d90919063ffffffff16565b61218790919063ffffffff16565b90506000811115613439576134388782600d60009054906101000a900473ffffffffffffffffffffffffffffffffffffffff1673ffffffffffffffffffffffffffffffffffffffff1661441e9092919063ffffffff16565b5b505050505b600084111561382a576134988330868560000160009054906101000a900473ffffffffffffffffffffffffffffffffffffffff1673ffffffffffffffffffffffffffffffffffffffff166146b5909392919063ffffffff16565b60008260050154141561358a57600c60009054906101000a900473ffffffffffffffffffffffffffffffffffffffff1673ffffffffffffffffffffffffffffffffffffffff1663e2bbb1586007600088815260200190815260200160002054866040518363ffffffff1660e01b81526004016135159291906154e4565b600060405180830381600087803b15801561352f57600080fd5b505af1158015613543573d6000803e3d6000fd5b5050505061355e8482600001546121c990919063ffffffff16565b816000018190555061357d8483600501546121c990919063ffffffff16565b8260050181905550613829565b6000600d60009054906101000a900473ffffffffffffffffffffffffffffffffffffffff1673ffffffffffffffffffffffffffffffffffffffff166370a08231306040518263ffffffff1660e01b81526004016135e79190615163565b60206040518083038186803b1580156135ff57600080fd5b505afa158015613613573d6000803e3d6000fd5b505050506040513d601f19601f820116820180604052508101906136379190614af1565b9050600c60009054906101000a900473ffffffffffffffffffffffffffffffffffffffff1673ffffffffffffffffffffffffffffffffffffffff1663e2bbb1586007600089815260200190815260200160002054876040518363ffffffff1660e01b81526004016136a99291906154e4565b600060405180830381600087803b1580156136c357600080fd5b505af11580156136d7573d6000803e3d6000fd5b505050506000600d60009054906101000a900473ffffffffffffffffffffffffffffffffffffffff1673ffffffffffffffffffffffffffffffffffffffff166370a08231306040518263ffffffff1660e01b81526004016137389190615163565b60206040518083038186803b15801561375057600080fd5b505afa158015613764573d6000803e3d6000fd5b505050506040513d601f19601f820116820180604052508101906137889190614af1565b90506137e06137cd85600501546137bf64e8d4a510006137b1878761218790919063ffffffff16565b6121b390919063ffffffff16565b61219d90919063ffffffff16565b85600401546121c990919063ffffffff16565b84600401819055506137ff8684600001546121c990919063ffffffff16565b836000018190555061381e8685600501546121c990919063ffffffff16565b846005018190555050505b5b61385c64e8d4a5100061384e846003015484600001546121b390919063ffffffff16565b61219d90919063ffffffff16565b816001018190555061389664e8d4a51000613888846004015484600001546121b390919063ffffffff16565b61219d90919063ffffffff16565b8160020181905550848373ffffffffffffffffffffffffffffffffffffffff167f90890809c654f11d6e72a28fa60149770a0d11ec6c92319d6ceb2bb0a4ea1a15866040516138e59190615477565b60405180910390a35050505050565b600060058481548110613930577f4e487b7100000000000000000000000000000000000000000000000000000000600052603260045260246000fd5b9060005260206000209060060201905060006006600086815260200190815260200160002060008473ffffffffffffffffffffffffffffffffffffffff1673ffffffffffffffffffffffffffffffffffffffff168152602001908152602001600020905061399d85610cbd565b600081600001541115613a0c5760006139f482600101546139e664e8d4a510006139d8876003015487600001546121b390919063ffffffff16565b61219d90919063ffffffff16565b61218790919063ffffffff16565b90506000811115613a0a57613a0984826141fc565b5b505b6000841115613aa557613a668330868560000160009054906101000a900473ffffffffffffffffffffffffffffffffffffffff1673ffffffffffffffffffffffffffffffffffffffff166146b5909392919063ffffffff16565b613a7d8482600001546121c990919063ffffffff16565b8160000181905550613a9c8483600501546121c990919063ffffffff16565b82600501819055505b613ad764e8d4a51000613ac9846003015484600001546121b390919063ffffffff16565b61219d90919063ffffffff16565b8160010181905550848373ffffffffffffffffffffffffffffffffffffffff167f90890809c654f11d6e72a28fa60149770a0d11ec6c92319d6ceb2bb0a4ea1a1586604051613b269190615477565b60405180910390a35050505050565b600080600060058581548110613b74577f4e487b7100000000000000000000000000000000000000000000000000000000600052603260045260246000fd5b9060005260206000209060060201905060006006600087815260200190815260200160002060008673ffffffffffffffffffffffffffffffffffffffff1673ffffffffffffffffffffffffffffffffffffffff1681526020019081526020016000209050600082600301549050600083600401549050600083600001541115613e8c576000600c60009054906101000a900473ffffffffffffffffffffffffffffffffffffffff1673ffffffffffffffffffffffffffffffffffffffff1663e4c75c27600760008c815260200190815260200160002054306040518363ffffffff1660e01b8152600401613c69929190615492565b60206040518083038186803b158015613c8157600080fd5b505afa158015613c95573d6000803e3d6000fd5b505050506040513d601f19601f82011682018060405250810190613cb99190614af1565b9050613cfb613cec8660050154613cde64e8d4a51000856121b390919063ffffffff16565b61219d90919063ffffffff16565b836121c990919063ffffffff16565b91506000613d438560020154613d3564e8d4a51000613d27878a600001546121b390919063ffffffff16565b61219d90919063ffffffff16565b61218790919063ffffffff16565b90508560020154431115613e29576000613d6087600201546107e7565b90506000613d8f600a54613d818a60010154856121b390919063ffffffff16565b61219d90919063ffffffff16565b9050613dd1613dc28960050154613db464e8d4a51000856121b390919063ffffffff16565b61219d90919063ffffffff16565b876121c990919063ffffffff16565b9550613e178760010154613e0964e8d4a51000613dfb8a8c600001546121b390919063ffffffff16565b61219d90919063ffffffff16565b61218790919063ffffffff16565b83995099505050505050505050613e98565b8560020154431415613e8957613e798560010154613e6b64e8d4a51000613e5d888a600001546121b390919063ffffffff16565b61219d90919063ffffffff16565b61218790919063ffffffff16565b8197509750505050505050613e98565b50505b60008095509550505050505b9250929050565b60008060058481548110613edc577f4e487b7100000000000000000000000000000000000000000000000000000000600052603260045260246000fd5b9060005260206000209060060201905060006006600086815260200190815260200160002060008573ffffffffffffffffffffffffffffffffffffffff1673ffffffffffffffffffffffffffffffffffffffff168152602001908152602001600020905060008260030154905060008360000160009054906101000a900473ffffffffffffffffffffffffffffffffffffffff1673ffffffffffffffffffffffffffffffffffffffff166370a08231306040518263ffffffff1660e01b8152600401613fa89190615163565b60206040518083038186803b158015613fc057600080fd5b505afa158015613fd4573d6000803e3d6000fd5b505050506040513d601f19601f82011682018060405250810190613ff89190614af1565b905060008360000154111561413e5783600201544311156140e257600061402285600201546107e7565b90506000614051600a546140438860010154856121b390919063ffffffff16565b61219d90919063ffffffff16565b905061408f6140808461407264e8d4a51000856121b390919063ffffffff16565b61219d90919063ffffffff16565b856121c990919063ffffffff16565b93506140d585600101546140c764e8d4a510006140b9888a600001546121b390919063ffffffff16565b61219d90919063ffffffff16565b61218790919063ffffffff16565b9650505050505050614147565b836002015443141561413d57614132836001015461412464e8d4a510006141168688600001546121b390919063ffffffff16565b61219d90919063ffffffff16565b61218790919063ffffffff16565b945050505050614147565b5b60009450505050505b92915050565b600061415b8260000161473e565b9050919050565b6000818360000180549050116141ad576040517f08c379a00000000000000000000000000000000000000000000000000000000081526004016141a490615297565b60405180910390fd5b8260000182815481106141e9577f4e487b7100000000000000000000000000000000000000000000000000000000600052603260045260246000fd5b9060005260206000200154905092915050565b6000600360009054906101000a900473ffffffffffffffffffffffffffffffffffffffff1673ffffffffffffffffffffffffffffffffffffffff166370a08231306040518263ffffffff1660e01b81526004016142599190615163565b60206040518083038186803b15801561427157600080fd5b505afa158015614285573d6000803e3d6000fd5b505050506040513d601f19601f820116820180604052508101906142a99190614af1565b90508082111561436857600360009054906101000a900473ffffffffffffffffffffffffffffffffffffffff1673ffffffffffffffffffffffffffffffffffffffff1663a9059cbb84836040518363ffffffff1660e01b81526004016143109291906151b5565b602060405180830381600087803b15801561432a57600080fd5b505af115801561433e573d6000803e3d6000fd5b505050506040513d601f19601f820116820180604052508101906143629190614a9f565b50614419565b600360009054906101000a900473ffffffffffffffffffffffffffffffffffffffff1673ffffffffffffffffffffffffffffffffffffffff1663a9059cbb84846040518363ffffffff1660e01b81526004016143c59291906151b5565b602060405180830381600087803b1580156143df57600080fd5b505af11580156143f3573d6000803e3d6000fd5b505050506040513d601f19601f820116820180604052508101906144179190614a9f565b505b505050565b61449f8363a9059cbb60e01b848460405160240161443d9291906151b5565b604051602081830303815290604052907bffffffffffffffffffffffffffffffffffffffffffffffffffffffff19166020820180517bffffffffffffffffffffffffffffffffffffffffffffffffffffffff838183161783525050505061474f565b505050565b60006144b08383614514565b61450957826000018290806001815401808255809150506001900390600052602060002001600090919091909150558260000180549050836001016000848152602001908152602001600020819055506001905061450e565b600090505b92915050565b600080836001016000848152602001908152602001600020541415905092915050565b600080836001016000848152602001908152602001600020549050600081146146a957600060018261456991906157c8565b905060006001866000018054905061458191906157c8565b905060008660000182815481106145c1577f4e487b7100000000000000000000000000000000000000000000000000000000600052603260045260246000fd5b906000526020600020015490508087600001848154811061460b577f4e487b7100000000000000000000000000000000000000000000000000000000600052603260045260246000fd5b906000526020600020018190555083876001016000838152602001908152602001600020819055508660000180548061466d577f4e487b7100000000000000000000000000000000000000000000000000000000600052603160045260246000fd5b600190038181906000526020600020016000905590558660010160008781526020019081526020016000206000905560019450505050506146af565b60009150505b92915050565b614738846323b872dd60e01b8585856040516024016146d69392919061517e565b604051602081830303815290604052907bffffffffffffffffffffffffffffffffffffffffffffffffffffffff19166020820180517bffffffffffffffffffffffffffffffffffffffffffffffffffffffff838183161783525050505061474f565b50505050565b600081600001805490509050919050565b60006147b1826040518060400160405280602081526020017f5361666545524332303a206c6f772d6c6576656c2063616c6c206661696c65648152508573ffffffffffffffffffffffffffffffffffffffff166148169092919063ffffffff16565b905060008151111561481157808060200190518101906147d19190614a9f565b614810576040517f08c379a000000000000000000000000000000000000000000000000000000000815260040161480790615437565b60405180910390fd5b5b505050565b6060614825848460008561482e565b90509392505050565b606082471015614873576040517f08c379a000000000000000000000000000000000000000000000000000000000815260040161486a90615397565b60405180910390fd5b61487c85614942565b6148bb576040517f08c379a00000000000000000000000000000000000000000000000000000000081526004016148b290615417565b60405180910390fd5b6000808673ffffffffffffffffffffffffffffffffffffffff1685876040516148e4919061514c565b60006040518083038185875af1925050503d8060008114614921576040519150601f19603f3d011682016040523d82523d6000602084013e614926565b606091505b5091509150614936828286614955565b92505050949350505050565b600080823b905060008111915050919050565b60608315614965578290506149b5565b6000835111156149785782518084602001fd5b816040517f08c379a00000000000000000000000000000000000000000000000000000000081526004016149ac9190615275565b60405180910390fd5b9392505050565b6000813590506149cb816159d2565b92915050565b6000813590506149e0816159e9565b92915050565b6000815190506149f5816159e9565b92915050565b600081359050614a0a81615a00565b92915050565b600081359050614a1f81615a17565b92915050565b600081519050614a3481615a17565b92915050565b600060208284031215614a4c57600080fd5b6000614a5a848285016149bc565b91505092915050565b60008060408385031215614a7657600080fd5b6000614a84858286016149bc565b9250506020614a95858286016149bc565b9150509250929050565b600060208284031215614ab157600080fd5b6000614abf848285016149e6565b91505092915050565b600060208284031215614ada57600080fd5b6000614ae884828501614a10565b91505092915050565b600060208284031215614b0357600080fd5b6000614b1184828501614a25565b91505092915050565b60008060408385031215614b2d57600080fd5b6000614b3b85828601614a10565b9250506020614b4c858286016149bc565b9150509250929050565b600080600060608486031215614b6b57600080fd5b6000614b7986828701614a10565b9350506020614b8a868287016149fb565b9250506040614b9b868287016149d1565b9150509250925092565b60008060408385031215614bb857600080fd5b6000614bc685828601614a10565b9250506020614bd785828601614a10565b9150509250929050565b600080600060608486031215614bf657600080fd5b6000614c0486828701614a10565b9350506020614c1586828701614a10565b9250506040614c26868287016149d1565b9150509250925092565b614c39816157fc565b82525050565b614c488161580e565b82525050565b6000614c5982615544565b614c63818561555a565b9350614c738185602086016158b0565b80840191505092915050565b614c8881615856565b82525050565b614c978161587a565b82525050565b614ca68161589e565b82525050565b6000614cb78261554f565b614cc18185615565565b9350614cd18185602086016158b0565b614cda816159b4565b840191505092915050565b6000614cf2602283615565565b91507f456e756d657261626c655365743a20696e646578206f7574206f6620626f756e60008301527f64730000000000000000000000000000000000000000000000000000000000006020830152604082019050919050565b6000614d58601d83615565565b91507f77697468647261774d6478416e64546f6b656e3a206e6f7420676f6f640000006000830152602082019050919050565b6000614d98601683615565565b91507f4c5020697320746865207a65726f2061646472657373000000000000000000006000830152602082019050919050565b6000614dd8601983615565565b91507f4d696e696e6720686173206265656e2073757370656e646564000000000000006000830152602082019050919050565b6000614e18602683615565565b91507f4f776e61626c653a206e6577206f776e657220697320746865207a65726f206160008301527f64647265737300000000000000000000000000000000000000000000000000006020830152604082019050919050565b6000614e7e601383615565565b91507f697320746865207a65726f2061646472657373000000000000000000000000006000830152602082019050919050565b6000614ebe601483615565565b91507f6e6f742066696e642074686973206d756c744c500000000000000000000000006000830152602082019050919050565b6000614efe601583615565565b91507f77697468647261774d64783a206e6f7420676f6f6400000000000000000000006000830152602082019050919050565b6000614f3e602683615565565b91507f416464726573733a20696e73756666696369656e742062616c616e636520666f60008301527f722063616c6c00000000000000000000000000000000000000000000000000006020830152604082019050919050565b6000614fa4601483615565565b91507f4e6f206d696e696e672073757370656e73696f6e0000000000000000000000006000830152602082019050919050565b6000614fe4601283615565565b91507f6e6f742066696e64207468697320706f6f6c00000000000000000000000000006000830152602082019050919050565b6000615024602083615565565b91507f4f776e61626c653a2063616c6c6572206973206e6f7420746865206f776e65726000830152602082019050919050565b6000615064601d83615565565b91507f416464726573733a2063616c6c20746f206e6f6e2d636f6e74726163740000006000830152602082019050919050565b60006150a4602a83615565565b91507f5361666545524332303a204552433230206f7065726174696f6e20646964206e60008301527f6f742073756363656564000000000000000000000000000000000000000000006020830152604082019050919050565b600061510a601c83615565565b91507f5f6c70546f6b656e20697320746865207a65726f2061646472657373000000006000830152602082019050919050565b6151468161584c565b82525050565b60006151588284614c4e565b915081905092915050565b60006020820190506151786000830184614c30565b92915050565b60006060820190506151936000830186614c30565b6151a06020830185614c30565b6151ad604083018461513d565b949350505050565b60006040820190506151ca6000830185614c30565b6151d7602083018461513d565b9392505050565b60006020820190506151f36000830184614c3f565b92915050565b600060c08201905061520e6000830189614c7f565b61521b602083018861513d565b615228604083018761513d565b615235606083018661513d565b615242608083018561513d565b61524f60a083018461513d565b979650505050505050565b600060208201905061526f6000830184614c8e565b92915050565b6000602082019050818103600083015261528f8184614cac565b905092915050565b600060208201905081810360008301526152b081614ce5565b9050919050565b600060208201905081810360008301526152d081614d4b565b9050919050565b600060208201905081810360008301526152f081614d8b565b9050919050565b6000602082019050818103600083015261531081614dcb565b9050919050565b6000602082019050818103600083015261533081614e0b565b9050919050565b6000602082019050818103600083015261535081614e71565b9050919050565b6000602082019050818103600083015261537081614eb1565b9050919050565b6000602082019050818103600083015261539081614ef1565b9050919050565b600060208201905081810360008301526153b081614f31565b9050919050565b600060208201905081810360008301526153d081614f97565b9050919050565b600060208201905081810360008301526153f081614fd7565b9050919050565b6000602082019050818103600083015261541081615017565b9050919050565b6000602082019050818103600083015261543081615057565b9050919050565b6000602082019050818103600083015261545081615097565b9050919050565b60006020820190508181036000830152615470816150fd565b9050919050565b600060208201905061548c600083018461513d565b92915050565b60006040820190506154a7600083018561513d565b6154b46020830184614c30565b9392505050565b60006040820190506154d0600083018561513d565b6154dd6020830184614c9d565b9392505050565b60006040820190506154f9600083018561513d565b615506602083018461513d565b9392505050565b6000606082019050615522600083018661513d565b61552f602083018561513d565b61553c604083018461513d565b949350505050565b600081519050919050565b600081519050919050565b600081905092915050565b600082825260208201905092915050565b60006155818261584c565b915061558c8361584c565b9250827fffffffffffffffffffffffffffffffffffffffffffffffffffffffffffffffff038211156155c1576155c0615956565b5b828201905092915050565b60006155d78261584c565b91506155e28361584c565b9250826155f2576155f1615985565b5b828204905092915050565b6000808291508390505b60018511156156475780860481111561562357615622615956565b5b60018516156156325780820291505b8081029050615640856159c5565b9450615607565b94509492505050565b600061565b8261584c565b91506156668361584c565b92506156937fffffffffffffffffffffffffffffffffffffffffffffffffffffffffffffffff848461569b565b905092915050565b6000826156ab5760019050615767565b816156b95760009050615767565b81600181146156cf57600281146156d957615708565b6001915050615767565b60ff8411156156eb576156ea615956565b5b8360020a91508482111561570257615701615956565b5b50615767565b5060208310610133831016604e8410600b841016171561573d5782820a90508381111561573857615737615956565b5b615767565b61574a84848460016155fd565b9250905081840481111561576157615760615956565b5b81810290505b9392505050565b60006157798261584c565b91506157848361584c565b9250817fffffffffffffffffffffffffffffffffffffffffffffffffffffffffffffffff04831182151516156157bd576157bc615956565b5b828202905092915050565b60006157d38261584c565b91506157de8361584c565b9250828210156157f1576157f0615956565b5b828203905092915050565b60006158078261582c565b9050919050565b60008115159050919050565b6000615825826157fc565b9050919050565b600073ffffffffffffffffffffffffffffffffffffffff82169050919050565b6000819050919050565b600061586182615868565b9050919050565b60006158738261582c565b9050919050565b60006158858261588c565b9050919050565b60006158978261582c565b9050919050565b60006158a98261584c565b9050919050565b60005b838110156158ce5780820151818401526020810190506158b3565b838111156158dd576000848401525b50505050565b60006158ee8261584c565b9150600082141561590257615901615956565b5b600182039050919050565b60006159188261584c565b91507fffffffffffffffffffffffffffffffffffffffffffffffffffffffffffffffff82141561594b5761594a615956565b5b600182019050919050565b7f4e487b7100000000000000000000000000000000000000000000000000000000600052601160045260246000fd5b7f4e487b7100000000000000000000000000000000000000000000000000000000600052601260045260246000fd5b6000601f19601f8301169050919050565b60008160011c9050919050565b6159db816157fc565b81146159e657600080fd5b50565b6159f28161580e565b81146159fd57600080fd5b50565b615a098161581a565b8114615a1457600080fd5b50565b615a208161584c565b8114615a2b57600080fd5b5056fea2646970667358221220a2843ca83d8465427f7cbdab2a99f4c259abdb51dc27126ad6cd7fd8b67e1f0664736f6c63430008000033",
  "immutableReferences": {},
  "source": "// SPDX-License-Identifier: MIT\r\npragma solidity ^0.8.0;\r\n\r\nimport \"../../openzeppelin/contracts/access/Ownable.sol\";\r\nimport \"../../openzeppelin/contracts/utils/structs/EnumerableSet.sol\";\r\nimport \"../../openzeppelin/contracts/token/ERC20/IERC20.sol\";\r\nimport \"../../openzeppelin/contracts/token/ERC20/utils/SafeERC20.sol\";\r\nimport \"../../openzeppelin/contracts/utils/math/SafeMath.sol\";\r\nimport \"./interface/IMdx.sol\";\r\n\r\ninterface IMasterChefHeco {\r\n    function pending(uint256 pid, address user) external view returns (uint256);\r\n\r\n    function deposit(uint256 pid, uint256 amount) external;\r\n\r\n    function withdraw(uint256 pid, uint256 amount) external;\r\n\r\n    function emergencyWithdraw(uint256 pid) external;\r\n}\r\n\r\ncontract HecoPool is Ownable {\r\n    using SafeMath for uint256;\r\n    using SafeERC20 for IERC20;\r\n\r\n    using EnumerableSet for EnumerableSet.AddressSet;\r\n    EnumerableSet.AddressSet private _multLP;\r\n\r\n    // Info of each user.\r\n    struct UserInfo {\r\n        uint256 amount;     // How many LP tokens the user has provided.\r\n        uint256 rewardDebt; // Reward debt.\r\n        uint256 multLpRewardDebt; //multLp Reward debt.\r\n    }\r\n\r\n    // Info of each pool.\r\n    struct PoolInfo {\r\n        IERC20 lpToken;           // Address of LP token contract.\r\n        uint256 allocPoint;       // How many allocation points assigned to this pool. MDXs to distribute per block.\r\n        uint256 lastRewardBlock;  // Last block number that MDXs distribution occurs.\r\n        uint256 accMdxPerShare; // Accumulated MDXs per share, times 1e12.\r\n        uint256 accMultLpPerShare; //Accumulated multLp per share\r\n        uint256 totalAmount;    // Total amount of current pool deposit.\r\n    }\r\n\r\n    // The MDX Token!\r\n    IMdx public mdx;\r\n    // MDX tokens created per block.\r\n    uint256 public mdxPerBlock;\r\n    // Info of each pool.\r\n    PoolInfo[] public poolInfo;\r\n    // Info of each user that stakes LP tokens.\r\n    mapping(uint256 => mapping(address => UserInfo)) public userInfo;\r\n    // Corresponding to the pid of the multLP pool\r\n    mapping(uint256 => uint256) public poolCorrespond;\r\n    // pid corresponding address\r\n    mapping(address => uint256) public LpOfPid;\r\n    // Control mining\r\n    bool public paused = false;\r\n    // Total allocation points. Must be the sum of all allocation points in all pools.\r\n    uint256 public totalAllocPoint = 0;\r\n    // The block number when MDX mining starts.\r\n    uint256 public startBlock;\r\n    // multLP MasterChef\r\n    address public multLpChef;\r\n    // multLP Token\r\n    address public multLpToken;\r\n    // How many blocks are halved\r\n    uint256 public halvingPeriod = 5256000;\r\n\r\n    event Deposit(address indexed user, uint256 indexed pid, uint256 amount);\r\n    event Withdraw(address indexed user, uint256 indexed pid, uint256 amount);\r\n    event EmergencyWithdraw(address indexed user, uint256 indexed pid, uint256 amount);\r\n\r\n    constructor(\r\n        IMdx _mdx,\r\n        uint256 _mdxPerBlock,\r\n        uint256 _startBlock\r\n    ) public {\r\n        mdx = _mdx;\r\n        mdxPerBlock = _mdxPerBlock;\r\n        startBlock = _startBlock;\r\n    }\r\n\r\n    function setHalvingPeriod(uint256 _block) public onlyOwner {\r\n        halvingPeriod = _block;\r\n    }\r\n\r\n    // Set the number of mdx produced by each block\r\n    function setMdxPerBlock(uint256 _newPerBlock) public onlyOwner {\r\n        massUpdatePools();\r\n        mdxPerBlock = _newPerBlock;\r\n    }\r\n\r\n    function poolLength() public view returns (uint256) {\r\n        return poolInfo.length;\r\n    }\r\n\r\n    function addMultLP(address _addLP) public onlyOwner returns (bool) {\r\n        require(_addLP != address(0), \"LP is the zero address\");\r\n        IERC20(_addLP).approve(multLpChef, uint256(0xffffffffffffffffffffffffffffffffffffffffffffffffffffffffffffffff));\r\n        return EnumerableSet.add(_multLP, _addLP);\r\n    }\r\n\r\n    function isMultLP(address _LP) public view returns (bool) {\r\n        return EnumerableSet.contains(_multLP, _LP);\r\n    }\r\n\r\n    function getMultLPLength() public view returns (uint256) {\r\n        return EnumerableSet.length(_multLP);\r\n    }\r\n\r\n    function getMultLPAddress(uint256 _pid) public view returns (address){\r\n        require(_pid <= getMultLPLength() - 1, \"not find this multLP\");\r\n        return EnumerableSet.at(_multLP, _pid);\r\n    }\r\n\r\n    function setPause() public onlyOwner {\r\n        paused = !paused;\r\n    }\r\n\r\n    function setMultLP(address _multLpToken, address _multLpChef) public onlyOwner {\r\n        require(_multLpToken != address(0) && _multLpChef != address(0), \"is the zero address\");\r\n        multLpToken = _multLpToken;\r\n        multLpChef = _multLpChef;\r\n    }\r\n\r\n    function replaceMultLP(address _multLpToken, address _multLpChef) public onlyOwner {\r\n        require(_multLpToken != address(0) && _multLpChef != address(0), \"is the zero address\");\r\n        require(paused == true, \"No mining suspension\");\r\n        multLpToken = _multLpToken;\r\n        multLpChef = _multLpChef;\r\n        uint256 length = getMultLPLength();\r\n        while (length > 0) {\r\n            address dAddress = EnumerableSet.at(_multLP, 0);\r\n            uint256 pid = LpOfPid[dAddress];\r\n            IMasterChefHeco(multLpChef).emergencyWithdraw(poolCorrespond[pid]);\r\n            EnumerableSet.remove(_multLP, dAddress);\r\n            length--;\r\n        }\r\n    }\r\n\r\n    // Add a new lp to the pool. Can only be called by the owner.\r\n    // XXX DO NOT add the same LP token more than once. Rewards will be messed up if you do.\r\n    function add(uint256 _allocPoint, IERC20 _lpToken, bool _withUpdate) public onlyOwner {\r\n        require(address(_lpToken) != address(0), \"_lpToken is the zero address\");\r\n        if (_withUpdate) {\r\n            massUpdatePools();\r\n        }\r\n        uint256 lastRewardBlock = block.number > startBlock ? block.number : startBlock;\r\n        totalAllocPoint = totalAllocPoint.add(_allocPoint);\r\n        poolInfo.push(PoolInfo({\r\n        lpToken : _lpToken,\r\n        allocPoint : _allocPoint,\r\n        lastRewardBlock : lastRewardBlock,\r\n        accMdxPerShare : 0,\r\n        accMultLpPerShare : 0,\r\n        totalAmount : 0\r\n        }));\r\n        LpOfPid[address(_lpToken)] = poolLength() - 1;\r\n    }\r\n\r\n    // Update the given pool's MDX allocation point. Can only be called by the owner.\r\n    function set(uint256 _pid, uint256 _allocPoint, bool _withUpdate) public onlyOwner {\r\n        if (_withUpdate) {\r\n            massUpdatePools();\r\n        }\r\n        totalAllocPoint = totalAllocPoint.sub(poolInfo[_pid].allocPoint).add(_allocPoint);\r\n        poolInfo[_pid].allocPoint = _allocPoint;\r\n    }\r\n\r\n    // The current pool corresponds to the pid of the multLP pool\r\n    function setPoolCorr(uint256 _pid, uint256 _sid) public onlyOwner {\r\n        require(_pid <= poolLength() - 1, \"not find this pool\");\r\n        poolCorrespond[_pid] = _sid;\r\n    }\r\n\r\n    function phase(uint256 blockNumber) public view returns (uint256) {\r\n        if (halvingPeriod == 0) {\r\n            return 0;\r\n        }\r\n        if (blockNumber > startBlock) {\r\n            return (blockNumber.sub(startBlock).sub(1)).div(halvingPeriod);\r\n        }\r\n        return 0;\r\n    }\r\n\r\n    function reward(uint256 blockNumber) public view returns (uint256) {\r\n        uint256 _phase = phase(blockNumber);\r\n        return mdxPerBlock.div(2 ** _phase);\r\n    }\r\n\r\n    function getMdxBlockReward(uint256 _lastRewardBlock) public view returns (uint256) {\r\n        uint256 blockReward = 0;\r\n        uint256 n = phase(_lastRewardBlock);\r\n        uint256 m = phase(block.number);\r\n        while (n < m) {\r\n            n++;\r\n            uint256 r = n.mul(halvingPeriod).add(startBlock);\r\n            blockReward = blockReward.add((r.sub(_lastRewardBlock)).mul(reward(r)));\r\n            _lastRewardBlock = r;\r\n        }\r\n        blockReward = blockReward.add((block.number.sub(_lastRewardBlock)).mul(reward(block.number)));\r\n        return blockReward;\r\n    }\r\n\r\n    // Update reward variables for all pools. Be careful of gas spending!\r\n    function massUpdatePools() public {\r\n        uint256 length = poolInfo.length;\r\n        for (uint256 pid = 0; pid < length; ++pid) {\r\n            updatePool(pid);\r\n        }\r\n    }\r\n\r\n    // Update reward variables of the given pool to be up-to-date.\r\n    function updatePool(uint256 _pid) public {\r\n        PoolInfo storage pool = poolInfo[_pid];\r\n        if (block.number <= pool.lastRewardBlock) {\r\n            return;\r\n        }\r\n        uint256 lpSupply;\r\n        if (isMultLP(address(pool.lpToken))) {\r\n            if (pool.totalAmount == 0) {\r\n                pool.lastRewardBlock = block.number;\r\n                return;\r\n            }\r\n            lpSupply = pool.totalAmount;\r\n        } else {\r\n            lpSupply = pool.lpToken.balanceOf(address(this));\r\n            if (lpSupply == 0) {\r\n                pool.lastRewardBlock = block.number;\r\n                return;\r\n            }\r\n        }\r\n        uint256 blockReward = getMdxBlockReward(pool.lastRewardBlock);\r\n        if (blockReward <= 0) {\r\n            return;\r\n        }\r\n        uint256 mdxReward = blockReward.mul(pool.allocPoint).div(totalAllocPoint);\r\n        bool minRet = mdx.mint(address(this), mdxReward);\r\n        if (minRet) {\r\n            pool.accMdxPerShare = pool.accMdxPerShare.add(mdxReward.mul(1e12).div(lpSupply));\r\n        }\r\n        pool.lastRewardBlock = block.number;\r\n    }\r\n\r\n    // View function to see pending MDXs on frontend.\r\n    function pending(uint256 _pid, address _user) external view returns (uint256, uint256){\r\n        PoolInfo storage pool = poolInfo[_pid];\r\n        if (isMultLP(address(pool.lpToken))) {\r\n            (uint256 mdxAmount, uint256 tokenAmount) = pendingMdxAndToken(_pid, _user);\r\n            return (mdxAmount, tokenAmount);\r\n        } else {\r\n            uint256 mdxAmount = pendingMdx(_pid, _user);\r\n            return (mdxAmount, 0);\r\n        }\r\n    }\r\n\r\n    function pendingMdxAndToken(uint256 _pid, address _user) private view returns (uint256, uint256){\r\n        PoolInfo storage pool = poolInfo[_pid];\r\n        UserInfo storage user = userInfo[_pid][_user];\r\n        uint256 accMdxPerShare = pool.accMdxPerShare;\r\n        uint256 accMultLpPerShare = pool.accMultLpPerShare;\r\n        if (user.amount > 0) {\r\n            uint256 TokenPending = IMasterChefHeco(multLpChef).pending(poolCorrespond[_pid], address(this));\r\n            accMultLpPerShare = accMultLpPerShare.add(TokenPending.mul(1e12).div(pool.totalAmount));\r\n            uint256 userPending = user.amount.mul(accMultLpPerShare).div(1e12).sub(user.multLpRewardDebt);\r\n            if (block.number > pool.lastRewardBlock) {\r\n                uint256 blockReward = getMdxBlockReward(pool.lastRewardBlock);\r\n                uint256 mdxReward = blockReward.mul(pool.allocPoint).div(totalAllocPoint);\r\n                accMdxPerShare = accMdxPerShare.add(mdxReward.mul(1e12).div(pool.totalAmount));\r\n                return (user.amount.mul(accMdxPerShare).div(1e12).sub(user.rewardDebt), userPending);\r\n            }\r\n            if (block.number == pool.lastRewardBlock) {\r\n                return (user.amount.mul(accMdxPerShare).div(1e12).sub(user.rewardDebt), userPending);\r\n            }\r\n        }\r\n        return (0, 0);\r\n    }\r\n\r\n    function pendingMdx(uint256 _pid, address _user) private view returns (uint256){\r\n        PoolInfo storage pool = poolInfo[_pid];\r\n        UserInfo storage user = userInfo[_pid][_user];\r\n        uint256 accMdxPerShare = pool.accMdxPerShare;\r\n        uint256 lpSupply = pool.lpToken.balanceOf(address(this));\r\n        if (user.amount > 0) {\r\n            if (block.number > pool.lastRewardBlock) {\r\n                uint256 blockReward = getMdxBlockReward(pool.lastRewardBlock);\r\n                uint256 mdxReward = blockReward.mul(pool.allocPoint).div(totalAllocPoint);\r\n                accMdxPerShare = accMdxPerShare.add(mdxReward.mul(1e12).div(lpSupply));\r\n                return user.amount.mul(accMdxPerShare).div(1e12).sub(user.rewardDebt);\r\n            }\r\n            if (block.number == pool.lastRewardBlock) {\r\n                return user.amount.mul(accMdxPerShare).div(1e12).sub(user.rewardDebt);\r\n            }\r\n        }\r\n        return 0;\r\n    }\r\n\r\n    // Deposit LP tokens to HecoPool for MDX allocation.\r\n    function deposit(uint256 _pid, uint256 _amount) public notPause {\r\n        PoolInfo storage pool = poolInfo[_pid];\r\n        if (isMultLP(address(pool.lpToken))) {\r\n            depositMdxAndToken(_pid, _amount, msg.sender);\r\n        } else {\r\n            depositMdx(_pid, _amount, msg.sender);\r\n        }\r\n    }\r\n\r\n    function depositMdxAndToken(uint256 _pid, uint256 _amount, address _user) private {\r\n        PoolInfo storage pool = poolInfo[_pid];\r\n        UserInfo storage user = userInfo[_pid][_user];\r\n        updatePool(_pid);\r\n        if (user.amount > 0) {\r\n            uint256 pendingAmount = user.amount.mul(pool.accMdxPerShare).div(1e12).sub(user.rewardDebt);\r\n            if (pendingAmount > 0) {\r\n                safeMdxTransfer(_user, pendingAmount);\r\n            }\r\n            uint256 beforeToken = IERC20(multLpToken).balanceOf(address(this));\r\n            IMasterChefHeco(multLpChef).deposit(poolCorrespond[_pid], 0);\r\n            uint256 afterToken = IERC20(multLpToken).balanceOf(address(this));\r\n            pool.accMultLpPerShare = pool.accMultLpPerShare.add(afterToken.sub(beforeToken).mul(1e12).div(pool.totalAmount));\r\n            uint256 tokenPending = user.amount.mul(pool.accMultLpPerShare).div(1e12).sub(user.multLpRewardDebt);\r\n            if (tokenPending > 0) {\r\n                IERC20(multLpToken).safeTransfer(_user, tokenPending);\r\n            }\r\n        }\r\n        if (_amount > 0) {\r\n            pool.lpToken.safeTransferFrom(_user, address(this), _amount);\r\n            if (pool.totalAmount == 0) {\r\n                IMasterChefHeco(multLpChef).deposit(poolCorrespond[_pid], _amount);\r\n                user.amount = user.amount.add(_amount);\r\n                pool.totalAmount = pool.totalAmount.add(_amount);\r\n            } else {\r\n                uint256 beforeToken = IERC20(multLpToken).balanceOf(address(this));\r\n                IMasterChefHeco(multLpChef).deposit(poolCorrespond[_pid], _amount);\r\n                uint256 afterToken = IERC20(multLpToken).balanceOf(address(this));\r\n                pool.accMultLpPerShare = pool.accMultLpPerShare.add(afterToken.sub(beforeToken).mul(1e12).div(pool.totalAmount));\r\n                user.amount = user.amount.add(_amount);\r\n                pool.totalAmount = pool.totalAmount.add(_amount);\r\n            }\r\n        }\r\n        user.rewardDebt = user.amount.mul(pool.accMdxPerShare).div(1e12);\r\n        user.multLpRewardDebt = user.amount.mul(pool.accMultLpPerShare).div(1e12);\r\n        emit Deposit(_user, _pid, _amount);\r\n    }\r\n\r\n    function depositMdx(uint256 _pid, uint256 _amount, address _user) private {\r\n        PoolInfo storage pool = poolInfo[_pid];\r\n        UserInfo storage user = userInfo[_pid][_user];\r\n        updatePool(_pid);\r\n        if (user.amount > 0) {\r\n            uint256 pendingAmount = user.amount.mul(pool.accMdxPerShare).div(1e12).sub(user.rewardDebt);\r\n            if (pendingAmount > 0) {\r\n                safeMdxTransfer(_user, pendingAmount);\r\n            }\r\n        }\r\n        if (_amount > 0) {\r\n            pool.lpToken.safeTransferFrom(_user, address(this), _amount);\r\n            user.amount = user.amount.add(_amount);\r\n            pool.totalAmount = pool.totalAmount.add(_amount);\r\n        }\r\n        user.rewardDebt = user.amount.mul(pool.accMdxPerShare).div(1e12);\r\n        emit Deposit(_user, _pid, _amount);\r\n    }\r\n\r\n    // Withdraw LP tokens from HecoPool.\r\n    function withdraw(uint256 _pid, uint256 _amount) public notPause {\r\n        PoolInfo storage pool = poolInfo[_pid];\r\n        if (isMultLP(address(pool.lpToken))) {\r\n            withdrawMdxAndToken(_pid, _amount, msg.sender);\r\n        } else {\r\n            withdrawMdx(_pid, _amount, msg.sender);\r\n        }\r\n    }\r\n\r\n    function withdrawMdxAndToken(uint256 _pid, uint256 _amount, address _user) private {\r\n        PoolInfo storage pool = poolInfo[_pid];\r\n        UserInfo storage user = userInfo[_pid][_user];\r\n        require(user.amount >= _amount, \"withdrawMdxAndToken: not good\");\r\n        updatePool(_pid);\r\n        uint256 pendingAmount = user.amount.mul(pool.accMdxPerShare).div(1e12).sub(user.rewardDebt);\r\n        if (pendingAmount > 0) {\r\n            safeMdxTransfer(_user, pendingAmount);\r\n        }\r\n        if (_amount > 0) {\r\n            uint256 beforeToken = IERC20(multLpToken).balanceOf(address(this));\r\n            IMasterChefHeco(multLpChef).withdraw(poolCorrespond[_pid], _amount);\r\n            uint256 afterToken = IERC20(multLpToken).balanceOf(address(this));\r\n            pool.accMultLpPerShare = pool.accMultLpPerShare.add(afterToken.sub(beforeToken).mul(1e12).div(pool.totalAmount));\r\n            uint256 tokenPending = user.amount.mul(pool.accMultLpPerShare).div(1e12).sub(user.multLpRewardDebt);\r\n            if (tokenPending > 0) {\r\n                IERC20(multLpToken).safeTransfer(_user, tokenPending);\r\n            }\r\n            user.amount = user.amount.sub(_amount);\r\n            pool.totalAmount = pool.totalAmount.sub(_amount);\r\n            pool.lpToken.safeTransfer(_user, _amount);\r\n        }\r\n        user.rewardDebt = user.amount.mul(pool.accMdxPerShare).div(1e12);\r\n        user.multLpRewardDebt = user.amount.mul(pool.accMultLpPerShare).div(1e12);\r\n        emit Withdraw(_user, _pid, _amount);\r\n    }\r\n\r\n    function withdrawMdx(uint256 _pid, uint256 _amount, address _user) private {\r\n        PoolInfo storage pool = poolInfo[_pid];\r\n        UserInfo storage user = userInfo[_pid][_user];\r\n        require(user.amount >= _amount, \"withdrawMdx: not good\");\r\n        updatePool(_pid);\r\n        uint256 pendingAmount = user.amount.mul(pool.accMdxPerShare).div(1e12).sub(user.rewardDebt);\r\n        if (pendingAmount > 0) {\r\n            safeMdxTransfer(_user, pendingAmount);\r\n        }\r\n        if (_amount > 0) {\r\n            user.amount = user.amount.sub(_amount);\r\n            pool.totalAmount = pool.totalAmount.sub(_amount);\r\n            pool.lpToken.safeTransfer(_user, _amount);\r\n        }\r\n        user.rewardDebt = user.amount.mul(pool.accMdxPerShare).div(1e12);\r\n        emit Withdraw(_user, _pid, _amount);\r\n    }\r\n\r\n    // Withdraw without caring about rewards. EMERGENCY ONLY.\r\n    function emergencyWithdraw(uint256 _pid) public notPause {\r\n        PoolInfo storage pool = poolInfo[_pid];\r\n        if (isMultLP(address(pool.lpToken))) {\r\n            emergencyWithdrawMdxAndToken(_pid, msg.sender);\r\n        } else {\r\n            emergencyWithdrawMdx(_pid, msg.sender);\r\n        }\r\n    }\r\n\r\n    function emergencyWithdrawMdxAndToken(uint256 _pid, address _user) private {\r\n        PoolInfo storage pool = poolInfo[_pid];\r\n        UserInfo storage user = userInfo[_pid][_user];\r\n        uint256 amount = user.amount;\r\n        uint256 beforeToken = IERC20(multLpToken).balanceOf(address(this));\r\n        IMasterChefHeco(multLpChef).withdraw(poolCorrespond[_pid], amount);\r\n        uint256 afterToken = IERC20(multLpToken).balanceOf(address(this));\r\n        pool.accMultLpPerShare = pool.accMultLpPerShare.add(afterToken.sub(beforeToken).mul(1e12).div(pool.totalAmount));\r\n        user.amount = 0;\r\n        user.rewardDebt = 0;\r\n        pool.lpToken.safeTransfer(_user, amount);\r\n        pool.totalAmount = pool.totalAmount.sub(amount);\r\n        emit EmergencyWithdraw(_user, _pid, amount);\r\n    }\r\n\r\n    function emergencyWithdrawMdx(uint256 _pid, address _user) private {\r\n        PoolInfo storage pool = poolInfo[_pid];\r\n        UserInfo storage user = userInfo[_pid][_user];\r\n        uint256 amount = user.amount;\r\n        user.amount = 0;\r\n        user.rewardDebt = 0;\r\n        pool.lpToken.safeTransfer(_user, amount);\r\n        pool.totalAmount = pool.totalAmount.sub(amount);\r\n        emit EmergencyWithdraw(_user, _pid, amount);\r\n    }\r\n\r\n    // Safe MDX transfer function, just in case if rounding error causes pool to not have enough MDXs.\r\n    function safeMdxTransfer(address _to, uint256 _amount) internal {\r\n        uint256 mdxBal = mdx.balanceOf(address(this));\r\n        if (_amount > mdxBal) {\r\n            mdx.transfer(_to, mdxBal);\r\n        } else {\r\n            mdx.transfer(_to, _amount);\r\n        }\r\n    }\r\n\r\n    modifier notPause() {\r\n        require(paused == false, \"Mining has been suspended\");\r\n        _;\r\n    }\r\n}\r\n",
  "sourcePath": "D:/work/czz/truffle/safebox/contracts/HecoPool.sol",
  "compiler": {
    "name": "solc",
    "version": "0.8.0+commit.c7dfd78e.Emscripten.clang"
  },
  "schemaVersion": "3.3.4",
  "updatedAt": "2021-03-30T11:05:41.675Z",
  "networkType": "ethereum",
  "devdoc": {
    "kind": "dev",
    "methods": {
      "owner()": {
        "details": "Returns the address of the current owner."
      },
      "renounceOwnership()": {
        "details": "Leaves the contract without owner. It will not be possible to call `onlyOwner` functions anymore. Can only be called by the current owner. NOTE: Renouncing ownership will leave the contract without an owner, thereby removing any functionality that is only available to the owner."
      },
      "transferOwnership(address)": {
        "details": "Transfers ownership of the contract to a new account (`newOwner`). Can only be called by the current owner."
      }
    },
    "version": 1
  },
  "userdoc": {
    "kind": "user",
    "methods": {},
    "version": 1
  }
}