{
  "contractName": "MathMock",
  "abi": [
    {
      "inputs": [
        {
          "internalType": "uint256",
          "name": "a",
          "type": "uint256"
        },
        {
          "internalType": "uint256",
          "name": "b",
          "type": "uint256"
        }
      ],
      "name": "max",
      "outputs": [
        {
          "internalType": "uint256",
          "name": "",
          "type": "uint256"
        }
      ],
      "stateMutability": "pure",
      "type": "function"
    },
    {
      "inputs": [
        {
          "internalType": "uint256",
          "name": "a",
          "type": "uint256"
        },
        {
          "internalType": "uint256",
          "name": "b",
          "type": "uint256"
        }
      ],
      "name": "min",
      "outputs": [
        {
          "internalType": "uint256",
          "name": "",
          "type": "uint256"
        }
      ],
      "stateMutability": "pure",
      "type": "function"
    },
    {
      "inputs": [
        {
          "internalType": "uint256",
          "name": "a",
          "type": "uint256"
        },
        {
          "internalType": "uint256",
          "name": "b",
          "type": "uint256"
        }
      ],
      "name": "average",
      "outputs": [
        {
          "internalType": "uint256",
          "name": "",
          "type": "uint256"
        }
      ],
      "stateMutability": "pure",
      "type": "function"
    }
  ],
  "bytecode": "0x608060405234801561001057600080fd5b50610394806100206000396000f3fe608060405234801561001057600080fd5b50600436106100415760003560e01c80632b7423ab146100465780636d5433e6146100765780637ae2b5c7146100a6575b600080fd5b610060600480360381019061005b91906101c1565b6100d6565b60405161006d919061020c565b60405180910390f35b610090600480360381019061008b91906101c1565b6100ea565b60405161009d919061020c565b60405180910390f35b6100c060048036038101906100bb91906101c1565b6100fe565b6040516100cd919061020c565b60405180910390f35b60006100e28383610112565b905092915050565b60006100f68383610179565b905092915050565b600061010a8383610193565b905092915050565b60006002808361012291906102b8565b60028561012f91906102b8565b6101399190610227565b610143919061027d565b600283610150919061027d565b60028561015d919061027d565b6101679190610227565b6101719190610227565b905092915050565b600081831015610189578161018b565b825b905092915050565b60008183106101a257816101a4565b825b905092915050565b6000813590506101bb81610347565b92915050565b600080604083850312156101d457600080fd5b60006101e2858286016101ac565b92505060206101f3858286016101ac565b9150509250929050565b610206816102ae565b82525050565b600060208201905061022160008301846101fd565b92915050565b6000610232826102ae565b915061023d836102ae565b9250827fffffffffffffffffffffffffffffffffffffffffffffffffffffffffffffffff03821115610272576102716102e9565b5b828201905092915050565b6000610288826102ae565b9150610293836102ae565b9250826102a3576102a2610318565b5b828204905092915050565b6000819050919050565b60006102c3826102ae565b91506102ce836102ae565b9250826102de576102dd610318565b5b828206905092915050565b7f4e487b7100000000000000000000000000000000000000000000000000000000600052601160045260246000fd5b7f4e487b7100000000000000000000000000000000000000000000000000000000600052601260045260246000fd5b610350816102ae565b811461035b57600080fd5b5056fea2646970667358221220d9a96c9f5bef14284dcd6ff04cc8004cf3cea395061cb73be908e425b1f0576664736f6c63430008000033",
  "immutableReferences": {},
  "source": "// SPDX-License-Identifier: MIT\n\npragma solidity ^0.8.0;\n\nimport \"../utils/math/Math.sol\";\n\ncontract MathMock {\n    function max(uint256 a, uint256 b) public pure returns (uint256) {\n        return Math.max(a, b);\n    }\n\n    function min(uint256 a, uint256 b) public pure returns (uint256) {\n        return Math.min(a, b);\n    }\n\n    function average(uint256 a, uint256 b) public pure returns (uint256) {\n        return Math.average(a, b);\n    }\n}\n",
  "sourcePath": "E:/work/工作/czz/合约/truffle/safebox/contracts/openzeppelin/contracts/mocks/MathMock.sol",
  "compiler": {
    "name": "solc",
    "version": "0.8.0+commit.c7dfd78e.Emscripten.clang"
  },
  "schemaVersion": "3.2.3",
  "updatedAt": "2021-03-26T11:32:50.959Z",
  "devdoc": {
    "kind": "dev",
    "methods": {},
    "version": 1
  },
  "userdoc": {
    "kind": "user",
    "methods": {},
    "version": 1
  }
}