{
  "contractName": "MerkleProofWrapper",
  "abi": [
    {
      "inputs": [
        {
          "internalType": "bytes32[]",
          "name": "proof",
          "type": "bytes32[]"
        },
        {
          "internalType": "bytes32",
          "name": "root",
          "type": "bytes32"
        },
        {
          "internalType": "bytes32",
          "name": "leaf",
          "type": "bytes32"
        }
      ],
      "name": "verify",
      "outputs": [
        {
          "internalType": "bool",
          "name": "",
          "type": "bool"
        }
      ],
      "stateMutability": "pure",
      "type": "function"
    }
  ],
  "bytecode": "0x608060405234801561001057600080fd5b5061044c806100206000396000f3fe608060405234801561001057600080fd5b506004361061002b5760003560e01c80635a9a49c714610030575b600080fd5b61004a600480360381019061004591906101fd565b610060565b60405161005791906102b6565b60405180910390f35b600061006d848484610076565b90509392505050565b60008082905060005b85518110156101445760008682815181106100c3577f4e487b7100000000000000000000000000000000000000000000000000000000600052603260045260246000fd5b602002602001015190508083116101045782816040516020016100e792919061028a565b604051602081830303815290604052805190602001209250610130565b808360405160200161011792919061028a565b6040516020818303038152906040528051906020012092505b50808061013c9061034e565b91505061007f565b508381149150509392505050565b600061016561016084610302565b6102d1565b9050808382526020820190508285602086028201111561018457600080fd5b60005b858110156101b4578161019a88826101e8565b845260208401935060208301925050600181019050610187565b5050509392505050565b600082601f8301126101cf57600080fd5b81356101df848260208601610152565b91505092915050565b6000813590506101f7816103ff565b92915050565b60008060006060848603121561021257600080fd5b600084013567ffffffffffffffff81111561022c57600080fd5b610238868287016101be565b9350506020610249868287016101e8565b925050604061025a868287016101e8565b9150509250925092565b61026d8161032e565b82525050565b61028461027f8261033a565b610397565b82525050565b60006102968285610273565b6020820191506102a68284610273565b6020820191508190509392505050565b60006020820190506102cb6000830184610264565b92915050565b6000604051905081810181811067ffffffffffffffff821117156102f8576102f76103d0565b5b8060405250919050565b600067ffffffffffffffff82111561031d5761031c6103d0565b5b602082029050602081019050919050565b60008115159050919050565b6000819050919050565b6000819050919050565b600061035982610344565b91507fffffffffffffffffffffffffffffffffffffffffffffffffffffffffffffffff82141561038c5761038b6103a1565b5b600182019050919050565b6000819050919050565b7f4e487b7100000000000000000000000000000000000000000000000000000000600052601160045260246000fd5b7f4e487b7100000000000000000000000000000000000000000000000000000000600052604160045260246000fd5b6104088161033a565b811461041357600080fd5b5056fea26469706673582212206e8d80438b526ab420663029e2818bbc5769e27476df52f3b2d9b348a81cbc4f64736f6c63430008000033",
  "immutableReferences": {},
  "source": "// SPDX-License-Identifier: MIT\n\npragma solidity ^0.8.0;\n\nimport \"../utils/cryptography/MerkleProof.sol\";\n\ncontract MerkleProofWrapper {\n    function verify(bytes32[] memory proof, bytes32 root, bytes32 leaf) public pure returns (bool) {\n        return MerkleProof.verify(proof, root, leaf);\n    }\n}\n",
  "sourcePath": "E:/work/工作/czz/合约/truffle/safebox/contracts/openzeppelin/contracts/mocks/MerkleProofWrapper.sol",
  "compiler": {
    "name": "solc",
    "version": "0.8.0+commit.c7dfd78e.Emscripten.clang"
  },
  "schemaVersion": "3.2.3",
  "updatedAt": "2021-03-26T11:32:50.960Z",
  "devdoc": {
    "kind": "dev",
    "methods": {},
    "version": 1
  },
  "userdoc": {
    "kind": "user",
    "methods": {},
    "version": 1
  }
}