{
  "contractName": "PausableMock",
  "abi": [
    {
      "inputs": [],
      "stateMutability": "nonpayable",
      "type": "constructor"
    },
    {
      "anonymous": false,
      "inputs": [
        {
          "indexed": false,
          "internalType": "address",
          "name": "account",
          "type": "address"
        }
      ],
      "name": "Paused",
      "type": "event"
    },
    {
      "anonymous": false,
      "inputs": [
        {
          "indexed": false,
          "internalType": "address",
          "name": "account",
          "type": "address"
        }
      ],
      "name": "Unpaused",
      "type": "event"
    },
    {
      "inputs": [],
      "name": "count",
      "outputs": [
        {
          "internalType": "uint256",
          "name": "",
          "type": "uint256"
        }
      ],
      "stateMutability": "view",
      "type": "function"
    },
    {
      "inputs": [],
      "name": "drasticMeasureTaken",
      "outputs": [
        {
          "internalType": "bool",
          "name": "",
          "type": "bool"
        }
      ],
      "stateMutability": "view",
      "type": "function"
    },
    {
      "inputs": [],
      "name": "paused",
      "outputs": [
        {
          "internalType": "bool",
          "name": "",
          "type": "bool"
        }
      ],
      "stateMutability": "view",
      "type": "function"
    },
    {
      "inputs": [],
      "name": "normalProcess",
      "outputs": [],
      "stateMutability": "nonpayable",
      "type": "function"
    },
    {
      "inputs": [],
      "name": "drasticMeasure",
      "outputs": [],
      "stateMutability": "nonpayable",
      "type": "function"
    },
    {
      "inputs": [],
      "name": "pause",
      "outputs": [],
      "stateMutability": "nonpayable",
      "type": "function"
    },
    {
      "inputs": [],
      "name": "unpause",
      "outputs": [],
      "stateMutability": "nonpayable",
      "type": "function"
    }
  ],
  "bytecode": "0x608060405234801561001057600080fd5b5060008060006101000a81548160ff02191690831515021790555060008060016101000a81548160ff021916908315150217905550600060018190555061059d8061005c6000396000f3fe608060405234801561001057600080fd5b506004361061007d5760003560e01c806376657b8e1161005b57806376657b8e146100c85780638456cb59146100e65780639958f045146100f0578063e7651d7a146100fa5761007d565b806306661abd146100825780633f4ba83a146100a05780635c975abb146100aa575b600080fd5b61008a610104565b604051610097919061047b565b60405180910390f35b6100a861010a565b005b6100b2610114565b6040516100bf9190610420565b60405180910390f35b6100d061012a565b6040516100dd9190610420565b60405180910390f35b6100ee61013d565b005b6100f8610147565b005b6101026101ab565b005b60015481565b61011261020d565b565b60008060009054906101000a900460ff16905090565b600060019054906101000a900460ff1681565b6101456102ae565b565b61014f610114565b61018e576040517f08c379a00000000000000000000000000000000000000000000000000000000081526004016101859061043b565b60405180910390fd5b6001600060016101000a81548160ff021916908315150217905550565b6101b3610114565b156101f3576040517f08c379a00000000000000000000000000000000000000000000000000000000081526004016101ea9061045b565b60405180910390fd5b60016000815480929190610206906104ef565b9190505550565b610215610114565b610254576040517f08c379a000000000000000000000000000000000000000000000000000000000815260040161024b9061043b565b60405180910390fd5b60008060006101000a81548160ff0219169083151502179055507f5db9ee0a495bf2e6ff9c91a7834c1ba4fdd244a5e8aa4e537bd38aeae4b073aa610297610350565b6040516102a49190610405565b60405180910390a1565b6102b6610114565b156102f6576040517f08c379a00000000000000000000000000000000000000000000000000000000081526004016102ed9061045b565b60405180910390fd5b60016000806101000a81548160ff0219169083151502179055507f62e78cea01bee320cd4e420270b5ea74000d11b0c9f74754ebdbfc544b05a258610339610350565b6040516103469190610405565b60405180910390a1565b600033905090565b610361816104a7565b82525050565b610370816104b9565b82525050565b6000610383601483610496565b91507f5061757361626c653a206e6f74207061757365640000000000000000000000006000830152602082019050919050565b60006103c3601083610496565b91507f5061757361626c653a20706175736564000000000000000000000000000000006000830152602082019050919050565b6103ff816104e5565b82525050565b600060208201905061041a6000830184610358565b92915050565b60006020820190506104356000830184610367565b92915050565b6000602082019050818103600083015261045481610376565b9050919050565b60006020820190508181036000830152610474816103b6565b9050919050565b600060208201905061049060008301846103f6565b92915050565b600082825260208201905092915050565b60006104b2826104c5565b9050919050565b60008115159050919050565b600073ffffffffffffffffffffffffffffffffffffffff82169050919050565b6000819050919050565b60006104fa826104e5565b91507fffffffffffffffffffffffffffffffffffffffffffffffffffffffffffffffff82141561052d5761052c610538565b5b600182019050919050565b7f4e487b7100000000000000000000000000000000000000000000000000000000600052601160045260246000fdfea2646970667358221220914158e5c1101d730b78bcefda0da6baad877eae6b78812c73daf4a02ed446e164736f6c63430008000033",
  "immutableReferences": {},
  "source": "// SPDX-License-Identifier: MIT\n\npragma solidity ^0.8.0;\n\nimport \"../security/Pausable.sol\";\n\ncontract PausableMock is Pausable {\n    bool public drasticMeasureTaken;\n    uint256 public count;\n\n    constructor () {\n        drasticMeasureTaken = false;\n        count = 0;\n    }\n\n    function normalProcess() external whenNotPaused {\n        count++;\n    }\n\n    function drasticMeasure() external whenPaused {\n        drasticMeasureTaken = true;\n    }\n\n    function pause() external {\n        _pause();\n    }\n\n    function unpause() external {\n        _unpause();\n    }\n}\n",
  "sourcePath": "E:/work/工作/czz/合约/truffle/safebox/contracts/openzeppelin/contracts/mocks/PausableMock.sol",
  "compiler": {
    "name": "solc",
    "version": "0.8.0+commit.c7dfd78e.Emscripten.clang"
  },
  "schemaVersion": "3.2.3",
  "updatedAt": "2021-03-26T11:32:50.973Z",
  "devdoc": {
    "kind": "dev",
    "methods": {
      "paused()": {
        "details": "Returns true if the contract is paused, and false otherwise."
      }
    },
    "version": 1
  },
  "userdoc": {
    "kind": "user",
    "methods": {},
    "version": 1
  }
}