{
  "contractName": "SafeCastMock",
  "abi": [
    {
      "inputs": [
        {
          "internalType": "int256",
          "name": "a",
          "type": "int256"
        }
      ],
      "name": "toUint256",
      "outputs": [
        {
          "internalType": "uint256",
          "name": "",
          "type": "uint256"
        }
      ],
      "stateMutability": "pure",
      "type": "function"
    },
    {
      "inputs": [
        {
          "internalType": "uint256",
          "name": "a",
          "type": "uint256"
        }
      ],
      "name": "toInt256",
      "outputs": [
        {
          "internalType": "int256",
          "name": "",
          "type": "int256"
        }
      ],
      "stateMutability": "pure",
      "type": "function"
    },
    {
      "inputs": [
        {
          "internalType": "uint256",
          "name": "a",
          "type": "uint256"
        }
      ],
      "name": "toUint128",
      "outputs": [
        {
          "internalType": "uint128",
          "name": "",
          "type": "uint128"
        }
      ],
      "stateMutability": "pure",
      "type": "function"
    },
    {
      "inputs": [
        {
          "internalType": "uint256",
          "name": "a",
          "type": "uint256"
        }
      ],
      "name": "toUint64",
      "outputs": [
        {
          "internalType": "uint64",
          "name": "",
          "type": "uint64"
        }
      ],
      "stateMutability": "pure",
      "type": "function"
    },
    {
      "inputs": [
        {
          "internalType": "uint256",
          "name": "a",
          "type": "uint256"
        }
      ],
      "name": "toUint32",
      "outputs": [
        {
          "internalType": "uint32",
          "name": "",
          "type": "uint32"
        }
      ],
      "stateMutability": "pure",
      "type": "function"
    },
    {
      "inputs": [
        {
          "internalType": "uint256",
          "name": "a",
          "type": "uint256"
        }
      ],
      "name": "toUint16",
      "outputs": [
        {
          "internalType": "uint16",
          "name": "",
          "type": "uint16"
        }
      ],
      "stateMutability": "pure",
      "type": "function"
    },
    {
      "inputs": [
        {
          "internalType": "uint256",
          "name": "a",
          "type": "uint256"
        }
      ],
      "name": "toUint8",
      "outputs": [
        {
          "internalType": "uint8",
          "name": "",
          "type": "uint8"
        }
      ],
      "stateMutability": "pure",
      "type": "function"
    },
    {
      "inputs": [
        {
          "internalType": "int256",
          "name": "a",
          "type": "int256"
        }
      ],
      "name": "toInt128",
      "outputs": [
        {
          "internalType": "int128",
          "name": "",
          "type": "int128"
        }
      ],
      "stateMutability": "pure",
      "type": "function"
    },
    {
      "inputs": [
        {
          "internalType": "int256",
          "name": "a",
          "type": "int256"
        }
      ],
      "name": "toInt64",
      "outputs": [
        {
          "internalType": "int64",
          "name": "",
          "type": "int64"
        }
      ],
      "stateMutability": "pure",
      "type": "function"
    },
    {
      "inputs": [
        {
          "internalType": "int256",
          "name": "a",
          "type": "int256"
        }
      ],
      "name": "toInt32",
      "outputs": [
        {
          "internalType": "int32",
          "name": "",
          "type": "int32"
        }
      ],
      "stateMutability": "pure",
      "type": "function"
    },
    {
      "inputs": [
        {
          "internalType": "int256",
          "name": "a",
          "type": "int256"
        }
      ],
      "name": "toInt16",
      "outputs": [
        {
          "internalType": "int16",
          "name": "",
          "type": "int16"
        }
      ],
      "stateMutability": "pure",
      "type": "function"
    },
    {
      "inputs": [
        {
          "internalType": "int256",
          "name": "a",
          "type": "int256"
        }
      ],
      "name": "toInt8",
      "outputs": [
        {
          "internalType": "int8",
          "name": "",
          "type": "int8"
        }
      ],
      "stateMutability": "pure",
      "type": "function"
    }
  ],
  "bytecode": "0x608060405234801561001057600080fd5b50610fbe806100206000396000f3fe608060405234801561001057600080fd5b50600436106100b45760003560e01c8063cf65b4d311610071578063cf65b4d3146101d9578063d6bd32aa14610209578063dd2a031614610239578063dfbe873b14610269578063f136dc0214610299578063fdcf791b146102c9576100b4565b80630cc4681e146100b95780632665fad0146100e9578063809fdd33146101195780639374068f146101495780639c6f59be14610179578063c8193255146101a9575b600080fd5b6100d360048036038101906100ce91906108f4565b6102f9565b6040516100e09190610e7e565b60405180910390f35b61010360048036038101906100fe91906108f4565b61030b565b6040516101109190610e63565b60405180910390f35b610133600480360381019061012e91906108f4565b61031d565b6040516101409190610df7565b60405180910390f35b610163600480360381019061015e91906108f4565b61032f565b6040516101709190610e12565b60405180910390f35b610193600480360381019061018e91906108cb565b610341565b6040516101a09190610cc6565b60405180910390f35b6101c360048036038101906101be91906108f4565b610353565b6040516101d09190610e48565b60405180910390f35b6101f360048036038101906101ee91906108cb565b610365565b6040516102009190610c90565b60405180910390f35b610223600480360381019061021e91906108cb565b610377565b6040516102309190610ce1565b60405180910390f35b610253600480360381019061024e91906108cb565b610389565b6040516102609190610c75565b60405180910390f35b610283600480360381019061027e91906108f4565b61039b565b6040516102909190610cab565b60405180910390f35b6102b360048036038101906102ae91906108cb565b6103ad565b6040516102c09190610cfc565b60405180910390f35b6102e360048036038101906102de91906108cb565b6103bf565b6040516102f09190610e2d565b60405180910390f35b6000610304826103d1565b9050919050565b60006103168261041f565b9050919050565b600061032882610474565b9050919050565b600061033a826104d1565b9050919050565b600061034c82610520565b9050919050565b600061035e8261059c565b9050919050565b6000610370826105ed565b9050919050565b600061038282610667565b9050919050565b6000610394826106e7565b9050919050565b60006103a68261076f565b9050919050565b60006103b8826107db565b9050919050565b60006103ca82610854565b9050919050565b60006101008210610417576040517f08c379a000000000000000000000000000000000000000000000000000000000815260040161040e90610d37565b60405180910390fd5b819050919050565b600068010000000000000000821061046c576040517f08c379a000000000000000000000000000000000000000000000000000000000815260040161046390610d97565b60405180910390fd5b819050919050565b600070010000000000000000000000000000000082106104c9576040517f08c379a00000000000000000000000000000000000000000000000000000000081526004016104c090610d57565b60405180910390fd5b819050919050565b6000620100008210610518576040517f08c379a000000000000000000000000000000000000000000000000000000000815260040161050f90610d17565b60405180910390fd5b819050919050565b60007fffffffffffffffffffffffffffffffffffffffffffffffffffffffff8000000082121580156105555750638000000082125b610594576040517f08c379a000000000000000000000000000000000000000000000000000000000815260040161058b90610db7565b60405180910390fd5b819050919050565b600064010000000082106105e5576040517f08c379a00000000000000000000000000000000000000000000000000000000081526004016105dc90610db7565b60405180910390fd5b819050919050565b60007fffffffffffffffffffffffffffffffffffffffffffffffffffffffffffff80008212158015610620575061800082125b61065f576040517f08c379a000000000000000000000000000000000000000000000000000000000815260040161065690610d17565b60405180910390fd5b819050919050565b60007fffffffffffffffffffffffffffffffffffffffffffffffff800000000000000082121580156106a0575067800000000000000082125b6106df576040517f08c379a00000000000000000000000000000000000000000000000000000000081526004016106d690610d97565b60405180910390fd5b819050919050565b60007fffffffffffffffffffffffffffffffff80000000000000000000000000000000821215801561072857506f8000000000000000000000000000000082125b610767576040517f08c379a000000000000000000000000000000000000000000000000000000000815260040161075e90610d57565b60405180910390fd5b819050919050565b60007f800000000000000000000000000000000000000000000000000000000000000082106107d3576040517f08c379a00000000000000000000000000000000000000000000000000000000081526004016107ca90610dd7565b60405180910390fd5b819050919050565b60007fffffffffffffffffffffffffffffffffffffffffffffffffffffffffffffff80821215801561080d5750608082125b61084c576040517f08c379a000000000000000000000000000000000000000000000000000000000815260040161084390610d37565b60405180910390fd5b819050919050565b600080821215610899576040517f08c379a000000000000000000000000000000000000000000000000000000000815260040161089090610d77565b60405180910390fd5b819050919050565b6000813590506108b081610f5a565b92915050565b6000813590506108c581610f71565b92915050565b6000602082840312156108dd57600080fd5b60006108eb848285016108a1565b91505092915050565b60006020828403121561090657600080fd5b6000610914848285016108b6565b91505092915050565b61092681610eaa565b82525050565b61093581610eb7565b82525050565b61094481610ec4565b82525050565b61095381610ece565b82525050565b61096281610edb565b82525050565b61097181610ee8565b82525050565b6000610984602683610e99565b91507f53616665436173743a2076616c756520646f65736e27742066697420696e203160008301527f36206269747300000000000000000000000000000000000000000000000000006020830152604082019050919050565b60006109ea602583610e99565b91507f53616665436173743a2076616c756520646f65736e27742066697420696e203860008301527f20626974730000000000000000000000000000000000000000000000000000006020830152604082019050919050565b6000610a50602783610e99565b91507f53616665436173743a2076616c756520646f65736e27742066697420696e203160008301527f32382062697473000000000000000000000000000000000000000000000000006020830152604082019050919050565b6000610ab6602083610e99565b91507f53616665436173743a2076616c7565206d75737420626520706f7369746976656000830152602082019050919050565b6000610af6602683610e99565b91507f53616665436173743a2076616c756520646f65736e27742066697420696e203660008301527f34206269747300000000000000000000000000000000000000000000000000006020830152604082019050919050565b6000610b5c602683610e99565b91507f53616665436173743a2076616c756520646f65736e27742066697420696e203360008301527f32206269747300000000000000000000000000000000000000000000000000006020830152604082019050919050565b6000610bc2602883610e99565b91507f53616665436173743a2076616c756520646f65736e27742066697420696e206160008301527f6e20696e743235360000000000000000000000000000000000000000000000006020830152604082019050919050565b610c2481610ef5565b82525050565b610c3381610f11565b82525050565b610c4281610f1f565b82525050565b610c5181610f29565b82525050565b610c6081610f39565b82525050565b610c6f81610f4d565b82525050565b6000602082019050610c8a600083018461091d565b92915050565b6000602082019050610ca5600083018461092c565b92915050565b6000602082019050610cc0600083018461093b565b92915050565b6000602082019050610cdb600083018461094a565b92915050565b6000602082019050610cf66000830184610959565b92915050565b6000602082019050610d116000830184610968565b92915050565b60006020820190508181036000830152610d3081610977565b9050919050565b60006020820190508181036000830152610d50816109dd565b9050919050565b60006020820190508181036000830152610d7081610a43565b9050919050565b60006020820190508181036000830152610d9081610aa9565b9050919050565b60006020820190508181036000830152610db081610ae9565b9050919050565b60006020820190508181036000830152610dd081610b4f565b9050919050565b60006020820190508181036000830152610df081610bb5565b9050919050565b6000602082019050610e0c6000830184610c1b565b92915050565b6000602082019050610e276000830184610c2a565b92915050565b6000602082019050610e426000830184610c39565b92915050565b6000602082019050610e5d6000830184610c48565b92915050565b6000602082019050610e786000830184610c57565b92915050565b6000602082019050610e936000830184610c66565b92915050565b600082825260208201905092915050565b600081600f0b9050919050565b60008160010b9050919050565b6000819050919050565b60008160030b9050919050565b60008160070b9050919050565b60008160000b9050919050565b60006fffffffffffffffffffffffffffffffff82169050919050565b600061ffff82169050919050565b6000819050919050565b600063ffffffff82169050919050565b600067ffffffffffffffff82169050919050565b600060ff82169050919050565b610f6381610ec4565b8114610f6e57600080fd5b50565b610f7a81610f1f565b8114610f8557600080fd5b5056fea2646970667358221220624e585c7c179a11dac3accb4ab8e4db8df7875380258d879f8782c47367beaf64736f6c63430008000033",
  "immutableReferences": {},
  "source": "// SPDX-License-Identifier: MIT\n\npragma solidity ^0.8.0;\n\nimport \"../utils/math/SafeCast.sol\";\n\ncontract SafeCastMock {\n    using SafeCast for uint;\n    using SafeCast for int;\n\n    function toUint256(int a) public pure returns (uint256) {\n        return a.toUint256();\n    }\n\n    function toInt256(uint a) public pure returns (int256) {\n        return a.toInt256();\n    }\n\n    function toUint128(uint a) public pure returns (uint128) {\n        return a.toUint128();\n    }\n\n    function toUint64(uint a) public pure returns (uint64) {\n        return a.toUint64();\n    }\n\n    function toUint32(uint a) public pure returns (uint32) {\n        return a.toUint32();\n    }\n\n    function toUint16(uint a) public pure returns (uint16) {\n        return a.toUint16();\n    }\n\n    function toUint8(uint a) public pure returns (uint8) {\n        return a.toUint8();\n    }\n\n    function toInt128(int a) public pure returns (int128) {\n        return a.toInt128();\n    }\n\n    function toInt64(int a) public pure returns (int64) {\n        return a.toInt64();\n    }\n\n    function toInt32(int a) public pure returns (int32) {\n        return a.toInt32();\n    }\n\n    function toInt16(int a) public pure returns (int16) {\n        return a.toInt16();\n    }\n\n    function toInt8(int a) public pure returns (int8) {\n        return a.toInt8();\n    }\n}\n",
  "sourcePath": "E:/work/工作/czz/合约/truffle/safebox/contracts/openzeppelin/contracts/mocks/SafeCastMock.sol",
  "compiler": {
    "name": "solc",
    "version": "0.8.0+commit.c7dfd78e.Emscripten.clang"
  },
  "schemaVersion": "3.2.3",
  "updatedAt": "2021-03-26T11:32:50.987Z",
  "devdoc": {
    "kind": "dev",
    "methods": {},
    "version": 1
  },
  "userdoc": {
    "kind": "user",
    "methods": {},
    "version": 1
  }
}