{
  "contractName": "SampleFather",
  "abi": [
    {
      "inputs": [],
      "name": "father",
      "outputs": [
        {
          "internalType": "uint256",
          "name": "",
          "type": "uint256"
        }
      ],
      "stateMutability": "view",
      "type": "function"
    },
    {
      "inputs": [],
      "name": "gramps",
      "outputs": [
        {
          "internalType": "string",
          "name": "",
          "type": "string"
        }
      ],
      "stateMutability": "view",
      "type": "function"
    },
    {
      "inputs": [],
      "name": "isHuman",
      "outputs": [
        {
          "internalType": "bool",
          "name": "",
          "type": "bool"
        }
      ],
      "stateMutability": "view",
      "type": "function"
    },
    {
      "inputs": [],
      "name": "initialize",
      "outputs": [],
      "stateMutability": "nonpayable",
      "type": "function"
    },
    {
      "inputs": [
        {
          "internalType": "string",
          "name": "_gramps",
          "type": "string"
        },
        {
          "internalType": "uint256",
          "name": "_father",
          "type": "uint256"
        }
      ],
      "name": "initialize",
      "outputs": [],
      "stateMutability": "nonpayable",
      "type": "function"
    },
    {
      "inputs": [
        {
          "internalType": "string",
          "name": "value",
          "type": "string"
        }
      ],
      "name": "initialize",
      "outputs": [],
      "stateMutability": "nonpayable",
      "type": "function"
    }
  ],
  "bytecode": "0x608060405234801561001057600080fd5b5061092f806100206000396000f3fe608060405234801561001057600080fd5b50600436106100625760003560e01c80631c8aca3b146100675780634a6c9db6146100855780638129fc1c146100a35780638beaf7d7146100ad578063f62d1888146100c9578063fa39851f146100e5575b600080fd5b61006f610103565b60405161007c9190610751565b60405180910390f35b61008d610109565b60405161009a91906106f4565b60405180910390f35b6100ab61011c565b005b6100c760048036038101906100c291906105e3565b610210565b005b6100e360048036038101906100de91906105a2565b6102fb565b005b6100ed6103f4565b6040516100fa919061070f565b60405180910390f35b60025481565b600060029054906101000a900460ff1681565b600060019054906101000a900460ff1680610142575060008054906101000a900460ff16155b610181576040517f08c379a000000000000000000000000000000000000000000000000000000000815260040161017890610731565b60405180910390fd5b60008060019054906101000a900460ff1615905080156101d1576001600060016101000a81548160ff02191690831515021790555060016000806101000a81548160ff0219169083151502179055505b6001600060026101000a81548160ff021916908315150217905550801561020d5760008060016101000a81548160ff0219169083151502179055505b50565b600060019054906101000a900460ff1680610236575060008054906101000a900460ff16155b610275576040517f08c379a000000000000000000000000000000000000000000000000000000000815260040161026c90610731565b60405180910390fd5b60008060019054906101000a900460ff1615905080156102c5576001600060016101000a81548160ff02191690831515021790555060016000806101000a81548160ff0219169083151502179055505b6102ce836102fb565b8160028190555080156102f65760008060016101000a81548160ff0219169083151502179055505b505050565b600060019054906101000a900460ff1680610321575060008054906101000a900460ff16155b610360576040517f08c379a000000000000000000000000000000000000000000000000000000000815260040161035790610731565b60405180910390fd5b60008060019054906101000a900460ff1615905080156103b0576001600060016101000a81548160ff02191690831515021790555060016000806101000a81548160ff0219169083151502179055505b6103b861011c565b81600190805190602001906103ce929190610482565b5080156103f05760008060016101000a81548160ff0219169083151502179055505b5050565b6001805461040190610841565b80601f016020809104026020016040519081016040528092919081815260200182805461042d90610841565b801561047a5780601f1061044f5761010080835404028352916020019161047a565b820191906000526020600020905b81548152906001019060200180831161045d57829003601f168201915b505050505081565b82805461048e90610841565b90600052602060002090601f0160209004810192826104b057600085556104f7565b82601f106104c957805160ff19168380011785556104f7565b828001600101855582156104f7579182015b828111156104f65782518255916020019190600101906104db565b5b5090506105049190610508565b5090565b5b80821115610521576000816000905550600101610509565b5090565b60006105386105338461079d565b61076c565b90508281526020810184848401111561055057600080fd5b61055b8482856107ff565b509392505050565b600082601f83011261057457600080fd5b8135610584848260208601610525565b91505092915050565b60008135905061059c816108e2565b92915050565b6000602082840312156105b457600080fd5b600082013567ffffffffffffffff8111156105ce57600080fd5b6105da84828501610563565b91505092915050565b600080604083850312156105f657600080fd5b600083013567ffffffffffffffff81111561061057600080fd5b61061c85828601610563565b925050602061062d8582860161058d565b9150509250929050565b610640816107e9565b82525050565b6000610651826107cd565b61065b81856107d8565b935061066b81856020860161080e565b610674816108d1565b840191505092915050565b600061068c602e836107d8565b91507f496e697469616c697a61626c653a20636f6e747261637420697320616c72656160008301527f647920696e697469616c697a65640000000000000000000000000000000000006020830152604082019050919050565b6106ee816107f5565b82525050565b60006020820190506107096000830184610637565b92915050565b600060208201905081810360008301526107298184610646565b905092915050565b6000602082019050818103600083015261074a8161067f565b9050919050565b600060208201905061076660008301846106e5565b92915050565b6000604051905081810181811067ffffffffffffffff82111715610793576107926108a2565b5b8060405250919050565b600067ffffffffffffffff8211156107b8576107b76108a2565b5b601f19601f8301169050602081019050919050565b600081519050919050565b600082825260208201905092915050565b60008115159050919050565b6000819050919050565b82818337600083830152505050565b60005b8381101561082c578082015181840152602081019050610811565b8381111561083b576000848401525b50505050565b6000600282049050600182168061085957607f821691505b6020821081141561086d5761086c610873565b5b50919050565b7f4e487b7100000000000000000000000000000000000000000000000000000000600052602260045260246000fd5b7f4e487b7100000000000000000000000000000000000000000000000000000000600052604160045260246000fd5b6000601f19601f8301169050919050565b6108eb816107f5565b81146108f657600080fd5b5056fea2646970667358221220e058420f42a14a9bc4ac9fa6576ff88b3358aa26d80ea83a117b7ce61aa7d45364736f6c63430008000033",
  "immutableReferences": {},
  "source": "// SPDX-License-Identifier: MIT\n\npragma solidity ^0.8.0;\n\nimport \"../proxy/utils/Initializable.sol\";\n\n// Sample contracts showing upgradeability with multiple inheritance.\n// Child contract inherits from Father and Mother contracts, and Father extends from Gramps.\n//\n//         Human\n//       /       \\\n//      |       Gramps\n//      |         |\n//    Mother    Father\n//      |         |\n//      -- Child --\n\n/**\n * Sample base intializable contract that is a human\n */\ncontract SampleHuman is Initializable {\n  bool public isHuman;\n\n  function initialize() public initializer {\n    isHuman = true;\n  }\n}\n\n/**\n * Sample base intializable contract that defines a field mother\n */\ncontract SampleMother is Initializable, SampleHuman {\n  uint256 public mother;\n\n  function initialize(uint256 value) public initializer virtual {\n    SampleHuman.initialize();\n    mother = value;\n  }\n}\n\n/**\n * Sample base intializable contract that defines a field gramps\n */\ncontract SampleGramps is Initializable, SampleHuman {\n  string public gramps;\n\n  function initialize(string memory value) public initializer virtual {\n    SampleHuman.initialize();\n    gramps = value;\n  }\n}\n\n/**\n * Sample base intializable contract that defines a field father and extends from gramps\n */\ncontract SampleFather is Initializable, SampleGramps {\n  uint256 public father;\n\n  function initialize(string memory _gramps, uint256 _father) public initializer {\n    SampleGramps.initialize(_gramps);\n    father = _father;\n  }\n}\n\n/**\n * Child extends from mother, father (gramps)\n */\ncontract SampleChild is Initializable, SampleMother, SampleFather {\n  uint256 public child;\n\n  function initialize(uint256 _mother, string memory _gramps, uint256 _father, uint256 _child) public initializer {\n    SampleMother.initialize(_mother);\n    SampleFather.initialize(_gramps, _father);\n    child = _child;\n  }\n}\n",
  "sourcePath": "E:/work/工作/czz/合约/truffle/safebox/contracts/openzeppelin/contracts/mocks/MultipleInheritanceInitializableMocks.sol",
  "compiler": {
    "name": "solc",
    "version": "0.8.0+commit.c7dfd78e.Emscripten.clang"
  },
  "schemaVersion": "3.2.3",
  "updatedAt": "2021-03-26T11:32:50.964Z",
  "devdoc": {
    "kind": "dev",
    "methods": {},
    "version": 1
  },
  "userdoc": {
    "kind": "user",
    "methods": {},
    "notice": "Sample base intializable contract that defines a field father and extends from gramps",
    "version": 1
  }
}