{
  "contractName": "SignedSafeMathMock",
  "abi": [
    {
      "inputs": [
        {
          "internalType": "int256",
          "name": "a",
          "type": "int256"
        },
        {
          "internalType": "int256",
          "name": "b",
          "type": "int256"
        }
      ],
      "name": "mul",
      "outputs": [
        {
          "internalType": "int256",
          "name": "",
          "type": "int256"
        }
      ],
      "stateMutability": "pure",
      "type": "function"
    },
    {
      "inputs": [
        {
          "internalType": "int256",
          "name": "a",
          "type": "int256"
        },
        {
          "internalType": "int256",
          "name": "b",
          "type": "int256"
        }
      ],
      "name": "div",
      "outputs": [
        {
          "internalType": "int256",
          "name": "",
          "type": "int256"
        }
      ],
      "stateMutability": "pure",
      "type": "function"
    },
    {
      "inputs": [
        {
          "internalType": "int256",
          "name": "a",
          "type": "int256"
        },
        {
          "internalType": "int256",
          "name": "b",
          "type": "int256"
        }
      ],
      "name": "sub",
      "outputs": [
        {
          "internalType": "int256",
          "name": "",
          "type": "int256"
        }
      ],
      "stateMutability": "pure",
      "type": "function"
    },
    {
      "inputs": [
        {
          "internalType": "int256",
          "name": "a",
          "type": "int256"
        },
        {
          "internalType": "int256",
          "name": "b",
          "type": "int256"
        }
      ],
      "name": "add",
      "outputs": [
        {
          "internalType": "int256",
          "name": "",
          "type": "int256"
        }
      ],
      "stateMutability": "pure",
      "type": "function"
    }
  ],
  "bytecode": "0x608060405234801561001057600080fd5b50610592806100206000396000f3fe608060405234801561001057600080fd5b506004361061004c5760003560e01c80634350913814610051578063a5f3c23b14610081578063adefc37b146100b1578063bbe93d91146100e1575b600080fd5b61006b600480360381019061006691906101ce565b610111565b6040516100789190610219565b60405180910390f35b61009b600480360381019061009691906101ce565b610125565b6040516100a89190610219565b60405180910390f35b6100cb60048036038101906100c691906101ce565b610139565b6040516100d89190610219565b60405180910390f35b6100fb60048036038101906100f691906101ce565b61014d565b6040516101089190610219565b60405180910390f35b600061011d8383610161565b905092915050565b60006101318383610177565b905092915050565b6000610145838361018d565b905092915050565b600061015983836101a3565b905092915050565b6000818361016f91906102c8565b905092915050565b600081836101859190610234565b905092915050565b6000818361019b9190610449565b905092915050565b600081836101b19190610332565b905092915050565b6000813590506101c881610545565b92915050565b600080604083850312156101e157600080fd5b60006101ef858286016101b9565b9250506020610200858286016101b9565b9150509250929050565b610213816104dd565b82525050565b600060208201905061022e600083018461020a565b92915050565b600061023f826104dd565b915061024a836104dd565b9250817f7fffffffffffffffffffffffffffffffffffffffffffffffffffffffffffffff03831360008312151615610285576102846104e7565b5b817f80000000000000000000000000000000000000000000000000000000000000000383126000831216156102bd576102bc6104e7565b5b828201905092915050565b60006102d3826104dd565b91506102de836104dd565b9250826102ee576102ed610516565b5b600160000383147f800000000000000000000000000000000000000000000000000000000000000083141615610327576103266104e7565b5b828205905092915050565b600061033d826104dd565b9150610348836104dd565b9250827f7fffffffffffffffffffffffffffffffffffffffffffffffffffffffffffffff0482116000841360008413161615610387576103866104e7565b5b817f800000000000000000000000000000000000000000000000000000000000000005831260008412600084131616156103c4576103c36104e7565b5b827f80000000000000000000000000000000000000000000000000000000000000000582126000841360008412161615610401576104006104e7565b5b827f7fffffffffffffffffffffffffffffffffffffffffffffffffffffffffffffff058212600084126000841216161561043e5761043d6104e7565b5b828202905092915050565b6000610454826104dd565b915061045f836104dd565b9250827f80000000000000000000000000000000000000000000000000000000000000000182126000841215161561049a576104996104e7565b5b827f7fffffffffffffffffffffffffffffffffffffffffffffffffffffffffffffff0182136000841216156104d2576104d16104e7565b5b828203905092915050565b6000819050919050565b7f4e487b7100000000000000000000000000000000000000000000000000000000600052601160045260246000fd5b7f4e487b7100000000000000000000000000000000000000000000000000000000600052601260045260246000fd5b61054e816104dd565b811461055957600080fd5b5056fea26469706673582212200dc46e8d991df10471687e2c16fff5cd7b6a26016a54c6ca6af276115649358264736f6c63430008000033",
  "immutableReferences": {},
  "source": "// SPDX-License-Identifier: MIT\n\npragma solidity ^0.8.0;\n\nimport \"../utils/math/SignedSafeMath.sol\";\n\ncontract SignedSafeMathMock {\n    function mul(int256 a, int256 b) public pure returns (int256) {\n        return SignedSafeMath.mul(a, b);\n    }\n\n    function div(int256 a, int256 b) public pure returns (int256) {\n        return SignedSafeMath.div(a, b);\n    }\n\n    function sub(int256 a, int256 b) public pure returns (int256) {\n        return SignedSafeMath.sub(a, b);\n    }\n\n    function add(int256 a, int256 b) public pure returns (int256) {\n        return SignedSafeMath.add(a, b);\n    }\n}\n",
  "sourcePath": "E:/work/工作/czz/合约/truffle/safebox/contracts/openzeppelin/contracts/mocks/SignedSafeMathMock.sol",
  "compiler": {
    "name": "solc",
    "version": "0.8.0+commit.c7dfd78e.Emscripten.clang"
  },
  "schemaVersion": "3.2.3",
  "updatedAt": "2021-03-26T11:32:51.011Z",
  "devdoc": {
    "kind": "dev",
    "methods": {},
    "version": 1
  },
  "userdoc": {
    "kind": "user",
    "methods": {},
    "version": 1
  }
}